:020000040800F2
:10000000002000203D100008851000088510000821
:1000100000000000000000000000000000000000E0
:100020000000000000000000000000008510000833
:10003000000000000000000085100008F90C000816
:1000400085100008000000008510000885100008D9
:10005000851000088510000885100008851000082C
:1000600000000000851000088510000885100008B9
:1000700085100008851000088510000800000000A9
:10008000090D000885100008000000008510000818
:1000900085100008851000088510000885100008EC
:1000A00085100008851000088510000885100008DC
:1000B00085100008000000000000000000000000A3
:1000C00010B504000A2802D10D20FFF7F9FF084BF4
:1000D0001A68002A05D0511C1960147010BC01BCAC
:1000E00000475B68002BF9D0200000F003FFF5E724
:1000F00010000020034A93681B1891688B42FCDCB7
:100100007047C04610000020014B024A5A607047F9
:10011000100000207701000810B50A00002100F04F
:10012000B3FF10BC01BC0047F7B5050002260A4C1E
:10013000A768042101A8FFF7EFFF3742F7D0257326
:100140000125A668042101A8FFF7E6FF2E42F8D09A
:10015000207BFEBC02BC08470030014010B5FFF711
:10016000E3FF10BC01BC004710B5FF20FFF7DCFF28
:1001700010BC02BC084773B504008025064B1E68FE
:10018000042101A8FFF7C8FF2E42F7D0034B1C70D3
:1001900073BC01BC0047C0461C44004028440040DA
:1001A000F8B504000D0016009527002803D06A3723
:1001B000082800D1783FFF20FFF7D0FF2000403013
:1001C0000006000EFFF7CAFF280EFFF7C7FF280C36
:1001D0000006000EFFF7C2FF280A0006000EFFF718
:1001E000BDFF2806000EFFF7B9FF3800FFF7B6FF86
:1001F0000A24FFF7B9FF3070000602D5013C002C3D
:10020000F7D1F8BC01BC004713B56B46DA1D0023DB
:10021000010040201370084B084C9862237B012B8F
:1002200000D149021220FFF7BBFF0023E3812382A4
:1002300013BC01BC0047C046000400481000002069
:1002400070B5104DEC89002C03D1FFF78DFFFE280F
:10025000FBD1FFF789FF8022013424040600240C1F
:100260009200944204D0EC81300070BC02BC08477C
:100270000023EB812B8A01332B82FFF775FFFFF7F9
:1002800073FFF1E71000002070B505000024013471
:100290002404FFF7D5FF240CA542F8D170BC01BCA3
:1002A000004773B56B46DE1D00230425084C3370F0
:1002B0004033A362320000210C20013DFFF770FFA4
:1002C000002DF7D14023A361A36173BC01BC00479B
:1002D00000040048F8B5114D07006869FFF794FF66
:1002E00000240026FFF7ACFF2B0018339855013689
:1002F000202EF7D1A74204D1FFF7D3FFF8BC01BCF1
:1003000000472B00383320341B782404240C002BA6
:10031000E7D16B8FA342E4D8EEE7C046100000207F
:10032000F0B5F14C95B025680CAF04213800FFF70B
:10033000F3FEAB0700D5E2E2EC4D042138002E6855
:10034000FFF7EAFEEA4B1E402E608026B6042B68BB
:10035000042138000193FFF7DFFE019B3340039334
:10036000019B3342F3D12368102138000293FFF739
:10037000D3FE3A00DF4B43CB43C201211B6813601D
:10038000039B01930800019A9200BA589040019A89
:10039000013201920343042AF4D1029E9E43266057
:1003A000082138002668FFF7B7FEA0239B031E43F1
:1003B0002660380001992E68FFF7AEFE80235B04AB
:1003C0001E432E608026B6042B680421380001935A
:1003D000FFF7A2FE019B3342F6D0042138002568C6
:1003E000FFF79AFE02232B43082523602668042189
:1003F0003800FFF791FE2E42F8D08026BE4C2568CB
:10040000B6023543902638000421FFF785FE2560AB
:100410003800F60504213568FFF77EFE80235B0275
:100420001D433560380004212568FFF775FE8023E1
:10043000B24A16001B031D432560380008211568C9
:10044000FFF76AFEAE4B1D40356080252668ED0241
:1004500038002E430421FFF75FFEAA4A26603800C9
:1004600004211668FFF758FE8021A64A49010E4371
:1004700016602668380035430421FFF74DFEA14A77
:1004800025603800042116001568FFF745FE80231B
:10049000C0215B031D439C4A9C4B35601A609C4AFB
:1004A00013681B0209061B0A0B4313600022994BB9
:1004B0001A60994B07321A60984A3800042115686F
:1004C000FFF72AFE80239B021E00944A1D431560FD
:1004D00025683543902638000421FFF71DFE25606E
:1004E0003800F60508213568FFF716FEA0231D43E6
:1004F00035608B4D380008212E68FFF70DFE8823EC
:100500005B011E43D0232E60864D5B00EB603800FC
:100510000C212E68FFF700FE0D231E432E60824D36
:10052000380004212E68FFF7F7FD802149010E43B2
:100530002E60380004212568FFF7EEFD8023902609
:100540009B021D4325603800F6050C213568FFF736
:10055000E3FDA8231B021D433560744D18213800AC
:100560002E68FFF7D9FD3A00624B103383CB83C26C
:1005700083CB83C200231A006349099108270AA884
:100580009100C01941580120884001320343062AD6
:10059000F4D133432B60664D08210CA82E68FFF779
:1005A000BBFDC02304275B011E432E60614D2E68F6
:1005B00004210CA83E43FFF7AFFD2E6039000CA8C4
:1005C0002E68FFF7A9FD08231E432E6019000CA812
:1005D0002E68FFF7A1FDC0239B001E432E6039004B
:1005E0000CA86E68FFF798FD80235B011E436E60C8
:1005F00039000CA82E68FFF78FFD40231E432E60A4
:10060000464B39000CA81E68FFF786FD02231E43E7
:10061000424B1E60484E336808210CA80193FFF737
:100620007BFD8123019A13433360444E33683900C4
:100630000CA80193FFF770FD01220021019B1343D9
:1006400033603F4B3F4A19601368FF318B4313609F
:1006500039000CA82668FFF75FFD8023DB021E43EC
:100660002660284B08210CA81E68FFF755FDA02323
:100670001B011E43234B1E60334E336808210CA818
:100680000193FFF749FD882301985B03034333601F
:1006900039000CA82668FFF73FFD80231B031E438B
:1006A0002660164E08210CA83468FFF735FDA023FC
:1006B00000211B031C438823244834600160244923
:1006C000DB000B60234A244B1360244A1360244B45
:1006D000244E036039000CA83468FFF71DFD012289
:1006E0001443346040E0C046041002400010024051
:1006F000FFFFFFFEA0100008141002400008004891
:10070000FFFFFFF3000400487FBB000014E000E09F
:1007100020ED00E018E000E010E000E01C100240D6
:100720002000004800440040181002400800004823
:100730000C00004800300140000400400C04004060
:100740002804004010E400E0200400482004004099
:100750002C04004018040040686800001C0400409D
:1007600011110000140400400AABDC1D00232370AB
:1007700039000CA82E68FFF7CFFC40231E432E60E3
:1007800008210CA82E68FFF7C7FC30231E432E60FB
:1007900039000CA82E68FFF7BFFC08239E432E608B
:1007A0004026C54A02209662FFF7A4FCC24A966121
:1007B000363EFF20013EFFF7D1FC002EF9D1642325
:1007C00001932678002E00D1AAE04022D521BA4B11
:1007D00008209A6249002200FFF7E2FC23783B429E
:1007E00000D1B9E00122B54B1A73B34B3F329A6284
:1007F0009A6104210CA82C68FFF78EFC08210C4399
:100800002C600CA82C68FFF787FC30239C43002049
:100810002C60FFF7F9FCE3204000FFF735FD0024D2
:10082000FFF70EFD08220AAB9B1818550134042C63
:10083000F6D10C9CFFF735FD2000FFF7E5FC002406
:10084000FFF7FEFC08220AAB9B1818550134202C38
:10085000F6D113220AABD21853781178974E1B02A7
:100860000B43B38733000AAA527D3E331A700AAB9A
:10087000DB8A01930AAB1B7E029319230AAA9B18F9
:100880005D781A782D02B31C1543DD870AABDC8B2B
:10089000139F002C00D19FE0029B63431C00019B2F
:1008A000DF19E7196D0177617587FFF7FAFC0123FE
:1008B0000122069304930023079203930293059366
:1008C00001937E4A9168546C09319068814200DA44
:1008D0009EE0002C00D1A0E00298039DA84200DD1C
:1008E00091E080257448ED00856203980130000690
:1008F000001603907D28E8D100200390E5E7082149
:1009000038002568FFF708FC03239D4325600C256C
:10091000266808213800FFF7FFFB2E42F8D10BE5CF
:100920000220FFF7E7FB4022634B02209A62FFF7A9
:10093000E1FB220031003000FFF732FC40225E4B29
:100940009A61019B013B0193002B00D039E7FA200B
:100950008000FFF7CFFB07E70426FFF705FC013E09
:100960002070002EF9D14022534B9A61AA282FD132
:1009700040228026504B9A62F60522000021372043
:10098000FFF70EFC310022002920FFF709FC217837
:100990000029F2D122003A20FFF702FCFFF7E4FB26
:1009A0000123464A800983431373FFF7DDFB207060
:1009B000FFF7DAFB2070FFF7D7FB802122002070C1
:1009C00089001020FFF7ECFB40233B4A936110E7BE
:1009D0004022394B9A61BAE73300012238331A704A
:1009E000FFF72EFCFFF72CFCFFF72AFCFFF728FC93
:1009F000FFF726FC08220AAB9B1818550134042C7B
:100A0000F6D10C9C48E780252B48ED0085616CE70A
:100A1000002C02D0002B00D1F9E08022274C284B7B
:100A200052021A602300002248334A341A70FFF73A
:100A300038FC2388002B01D0203323800F271F4D43
:100A40002E004A3634882000FFF744FC2B7EE52B2D
:100A500003D0002B04D13380F1E720343480EEE75B
:100A60001A00423A122A16D9144B5A1CD07F572822
:100A70000BD19A1CD17F412907D1DA1CD27F562A8B
:100A800003D11C1DE47F202C1CD00C4B4A331A8848
:100A900020321A80D3E70435EA7F3A400F2AE3D1A7
:100AA000403B1B061B0E5B01E3181804000C308052
:100AB000FFF710FCD8E7C0460004004810000020F3
:100AC00080E100E01D7E0CAC25705D7E65709D7E32
:100AD000A570DD7EE5701D7F25715D7F65719D7F51
:100AE000A571DB7FE3712E232372002360720A203D
:100AF000A172E2722373FFF7E3FA2078002800D096
:100B0000B2E0734B1A00383212780600002A07D080
:100B10001A002D332C3216781B7836041B06F61873
:100B20006B4C230033331878230032331F782300B3
:100B300035331D78230036331B782D021B04ED1846
:100B4000230034331B78ED18230037331B781B0642
:100B5000ED180002A31C023FA18FC719D88F4B1EAE
:100B60004001E564C01800F0C7F96369C0182300AC
:100B70003E33F6191F787E4380192065FFF744FB4A
:100B8000544BED1816206D0A6564FFF77DFBFFF7E7
:100B900057FB514E3070FFF753FBFFF751FB0890A6
:100BA000FFF74EFB0500FFF74BFB0700FFF748FB85
:100BB0003F04089B2D02ED19ED1800062D180620A4
:100BC0007560FFF761FBFFF73BFB002730720920E0
:100BD000FFF75AFB414B29001F60414800F08CF998
:100BE000404A3E4B1060404A1A60099B726893422B
:100BF0007F412300013754331F70EA2380225B00BA
:100C0000F3603A4B52021A60012348342370069A6B
:100C10009446029B63441B061B1602937D2B25DD25
:100C2000049B5B4206932A4A1300032148331B7836
:100C30000491002B01D00239049180202C490968CD
:100C4000800101400800441EA041079C844212D04C
:100C5000002912D001990B390904090C762928D9E9
:100C600000230193002331E0013444E7029B002B71
:100C7000D9D1049BD6E7002904D101990131090497
:100C80000914019101997829ECDD002B0DD0002386
:100C9000059999421AD18021164B49021960002307
:100CA000483213700122059210E005990029F2D014
:100CB0000CE0002101918B4208D180240B49640291
:100CC0000C60012148321170059301930790F8E5FB
:100CD000100000200038FFFF00000020200400402A
:100CE000006CDC022C0400401111000000E100E067
:100CF0001008004880E100E0024A936801339360E5
:100D00007047C04610000020F0B5714B83B01C68DE
:100D1000042101A8FFF700FAE30773D5902380228E
:100D2000DB0552006B499A610B7A0220102B00D12F
:100D30007AE0694B9A681042FCD0FF2201201A73B6
:100D4000654B9A681042FCD0CD68187B0B786A1E00
:100D50000400CA60022B00D18AE0002300220002B6
:100D600002435420240223435C4C205C1B04824039
:100D70001B0C8340FF205A4DAC465A4F160ACD68D3
:100D80003E60594E02403260584A18401B0A1360B8
:100D900063461860002D35D102204F4B9A681042EF
:100DA000FCD0FF2201201A734B4B9A681042FCD0F2
:100DB00002201B7B484B9A681042FCD0FF22012086
:100DC0001A73454B9A681042FCD01B7B80239B0012
:100DD000CB60FF2502210120666C013E3E4B66641C
:100DE0009A681142FCD01D739A681042FCD01A7B9D
:100DF000FE2AF5D1002E05D180233D4A5B02136007
:100E00004823E65490238022DB0552009A62304D3D
:100E1000042101A82C68FFF77FF901239C432C6073
:100E200003B0F0BC01BC00472B4B9A681042FCD0C9
:100E3000FF2201201A73284B9A681042FCD002242A
:100E40001A7B254B98680442FCD0FF2001241873BC
:100E5000214B98680442FCD0187B8023CD68584011
:100E60000B78AC1ECC60022B12D00400130076E786
:100E70000224194B9A681442FCD0FF2201241A73F1
:100E8000154B9A681442FCD0023D1C7BCD6064E790
:100E90000226114B9C682642FCD0FF2401261C73BD
:100EA0000D4B9C682642FCD002271B7B0A4CA6688F
:100EB0003742FCD0FF2601272673074CA66837422D
:100EC000FCD0043D247BCD6080256C4047E7C046C4
:100ED00010040040000000200030014010000020FD
:100EE0003C0400403804004040040040340400400A
:100EF00080E100E01847C046012051E21EFF2F01AB
:100F00003600003A010050E12200009A020011E18F
:100F10002300000A0E0211E38111A0010830A00392
:100F20000130A013010251E3000051310112A03140
:100F30000332A031FAFFFF3A020151E300005131C0
:100F40008110A0318330A031FAFFFF3A0020A0E3E6
:100F5000010050E10100402003208221A10050E166
:100F6000A1004020A3208221210150E12101402045
:100F700023218221A10150E1A1014020A32182214E
:100F8000000050E32332B0112112A011EFFFFF1A2D
:100F90000200A0E11EFF2FE10100A0030000A0134A
:100FA0001EFF2FE1010851E32118A0211020A023EA
:100FB0000020A033010C51E32114A021082082223B
:100FC000100051E32112A02104208222040051E3E9
:100FD00003208282A12082903002A0E11EFF2FE137
:100FE000000050E30000E013070000EA000051E3B6
:100FF000FAFFFF0A03402DE9BEFFFFEB0640BDE804
:10100000920003E0031041E01EFF2FE11EFF2FE1DD
:1010100007B5074B0193019B00F00EF8054B0093B9
:10102000009B00F009F8002003B002BC0847C0464E
:1010300009010008210300081847C0460B488546EF
:101040000B480C490C4A002302E0D458C450043326
:10105000C4188C42F9D3094A094C002301E01360FB
:101060000432A242FBD3FFF7D3FFFEE700200020AB
:101070000000002010000020C81000081000002010
:1010800068000020FEE700000030A0E1022080E0C0
:10109000020053E11EFF2F010110C3E4FBFFFFEA32
:1010A00015000000140000001300000012000000F2
:1010B0000A0000000B0000000C0000000D00000002
:0810C0000E0000000F0000000B
:1010C8000200000044AC000008000000000200001C
:040000050800103DA2
:00000001FF
