:020000040800F2
:1000000000800120890F0008D10F0008D10F0008DF
:10001000D10F0008D10F0008D10F00080000000028
:10002000000000000000000000000000D10F0008E8
:10003000D10F000800000000D10F0008890D000852
:10004000D10F0008D10F0008D10F0008D10F000810
:10005000D10F0008D10F0008D10F0008D10F000800
:10006000D10F0008D10F0008D10F0008D10F0008F0
:10007000D10F0008D10F0008D10F0008D10F0008E0
:10008000D10F0008D10F0008D10F000800000000B8
:10009000000000000000000000000000D10F000878
:1000A000D10F0008D10F0008D10F0008D10F0008B0
:1000B000D10F0008990D0008D10F0008D10F0008DA
:1000C000D10F0008D10F0008D10F0008D10F000890
:1000D000D10F0008D10F0008D10F00080000000068
:1000E000D10F0008D10F0008D10F00080000000058
:1000F000000000000000000000000000D10F000818
:1001000000000000D10F0008D10F0008D10F000837
:1001100000000000000000000000000000000000DF
:10012000D10F0008D10F0008D10F0008D10F00082F
:10013000D10F0008000000000000000000000000D7
:10014000000000000000000000000000D10F0008C7
:10015000D10F0008D10F0008D10F0008D10F0008FF
:10016000D10F0008D10F00080000000000000000BF
:10017000000000000000000000000000000000007F
:1001800000000000D10F0008000000000000000087
:04019000D10F000883
:100194000A2810B5044602D10D20FFF7F9FF074BDA
:1001A4001A681AB1511C1960147010BD5B68002BD9
:1001B400FBD02046BDE81040184700BF10000020C7
:1001C400034A9368184493689842FCDC704700BF64
:1001D40010000020014B024A5A60704710000020B2
:1001E4002B0200080A46002100F0F1BE73B50B4D46
:1001F4000446AE6804210DEB0100FFF7F3FFB207DC
:10020400F7D52C73054CA56804210DEB0100FFF70D
:10021400E9FFEB07F7D5207B02B070BD0030014049
:10022400E4E7FF20E2E773B504464FF04026D6F832
:10023400005404210DEB0100FFF7D4FF2B06F6D583
:10024400014B1C7102B070BD00440040F8B50D466E
:100254001646044628B3082814BFFF278727FF2023
:10026400FFF7DEFF04F14000C0B2FFF7D9FF280E0C
:10027400FFF7D6FFC5F30740FFF7D2FFC5F307200A
:10028400FFF7CEFFE8B2FFF7CBFF3846FFF7C8FF12
:100294000A24FFF7C6FF0306307001D5013CF8D1EC
:1002A400F8BD9527DBE713B500238DF807300A4B1B
:1002B4000A4C4FF48002C3F81824237B012B014617
:1002C4000DF1070208BF41021220FFF7BFFF002310
:1002D400E381238202B010BD000002401000002020
:1002E40070B50E4DEC891CB9FFF79BFFFE28FBD1BE
:1002F400FFF797FF0134A4B2B4F5007F064602D09D
:10030400EC81304670BD0023EB812B8A01332B82B4
:10031400FFF787FFFFF785FFF3E700BF100000201A
:1003240038B5054600240134FFF7DAFFA542FAD1B7
:1003340038BD13B500238DF807300B4B4FF4800202
:10034400C3F8182404240DF1070200210C20FFF740
:100354007DFF013CF7D1044B4022C3F81824C3F8B5
:10036400182402B010BD00BF000002402DE9F04186
:100374000F4D06466869FFF796FF0024DFF83480C6
:100384000027FFF7ADFF0137202F08F8010BF8D144
:10039400A64202D1BDE8F041CBE795F838302034CD
:1003A400A4B2002BEAD16B8FA342E7D8F2E700BFD7
:1003B40010000020280000204FF0E0222DE9F04F2B
:1003C400D2F8883DC94C43F46053C2F8883D0223F7
:1003D400C4F8003CD4F808588FB0042106A8FFF7ED
:1003E40001FFAD0700F1DA82C04CD4F800580421B3
:1003F40006A825F08075FFF7F5FEC4F80058D4F878
:10040400005806A80421FFF7EDFEA801F7D4B84B65
:10041400C4F80438D4F80058042106A845F08075BF
:10042400FFF7E0FEC4F80058B04CD4F8005804219B
:1004340006A8FFF7D7FEA901F7D54FF48053C4F8F7
:100444000838D4F80858042145F0020506A8FFF737
:10045400C9FEC4F80858A54DD5F80848042106A8D3
:10046400FFF7C0FE2207F7D5D5F83048042106A8C7
:1004740044F00104FFF7B6FEC5F830489D4C2668E9
:10048400042106A846F48036FFF7ACFE2660D5F8B2
:100494003068042106A846F00406FFF7A3FEC5F859
:1004A4003068D4F80068082106A826F04066FFF7F3
:1004B40099FEC4F80068D5F83068042106A846F00F
:1004C4000206FFF78FFEC5F83068D4F800640421F3
:1004D40006A846F48056FFF785FEC4F80064D5F8F4
:1004E4003068042106A846F00206FFF77BFEC5F833
:1004F4003068D4F80064042106A8FFF773FE4FF0B7
:10050400E0237D4A46F48016C4F800645A617B4AAD
:10051400F02182F82310002607229E611A61D5F883
:100524003078042106A847F00107FFF75BFEC5F801
:100534003078D5F84078042106A847F40037FFF74F
:1005440051FEC5F840782568082106A845F0A005A5
:10055400FFF748FE2560E568042106A845F040053C
:10056400FFF740FEE5601821654D276A0DEB010099
:10057400FFF738FE0FCD06AC0FC495E803003346F1
:1005840084E80300324606A8012450F8041B013213
:1005940004FA01F1062A43EA0103F6D1554D4FF05E
:1005A40040263B432B624FF4B673C6F80834554BD0
:1005B400DC6844F400540C2106A844F00C04FFF752
:1005C40011FEC6F80C44494CD4F84468042106A82A
:1005D40046F48056FFF706FEC4F84468D4F8306841
:1005E400042106A846F00106FFF7FCFDC4F83068B4
:1005F4002C680C2106A844F42844FFF7F3FD2C6072
:1006040018212E6A404D0DEB0100FFF7EBFD0FCDD5
:1006140006AC0FC495E80300002384E803001A46DF
:1006240006A8012450F8041B013204FA01F1062A39
:1006340043EA0103F6D12F4A344D334318211362A0
:100644000DEB01009668FFF7CDFD0FCD06AC0FC48E
:1006540095E80300002384E803001A4606A8012451
:1006640050F8041B013204FA01F1062A43EA01039B
:10067400F6D1204C1D4F3343A360E568082106A83A
:1006840045F4C055FFF7AEFDE560214D2E68042109
:1006940006A846F00406FFF7A5FD2E602E68042187
:1006A40006A846F01006FFF79DFD2E602E6808216F
:1006B40006A846F44076FFF795FD2E602E680421C7
:1006C40006A846F04006FFF78DFD2E60D7F8406877
:1006D400042106A846F00206FFF784FDC7F8406827
:1006E4004FF080460821D6F8008413E00030024021
:1006F40010540100000002401F48010000ED00E01A
:10070400E40F000800440040FC0F00081410000827
:100714000030014006A8FFF765FD48F08103C6F8E4
:100724000034D6F80C84042106A8FFF75BFD48F0DA
:100734000103C6F80C34D44B4FF00008C6F82884E3
:1007440083F81D80D7F83098042106A8FFF74AFDE6
:1007540049F00203C7F83038D4F80094082106A8F9
:10076400FFF740FD49F42063C4F80034D4F8209422
:10077400082106A8FFF736FD49F40813C4F820340D
:10078400D4F80C94042106A8FFF72CFD29F48073F7
:10079400C4F80C34D7F83098042106A8FFF722FDDA
:1007A40049F00403C7F83038D4F80078082106A8C3
:1007B40047F42027FFF716FDC4F80078D4F824780E
:1007C400082106A8FFF70EFD47F022074FF4EE6359
:1007D400C4F82478C6F82084C6F82C3446F6680396
:1007E400C6F81834C6F81C3441F21113C6F8203484
:1007F400D6F81474042106A847F00107FFF7F2FCA9
:10080400C6F8147400238DF817302E68042106A846
:1008140046F04006FFF7E6FC2E602E68042106A889
:1008240046F00806FFF7DEFC2E602E6806A80821B5
:10083400FFF7D8FC46F030064FF480032E60022008
:10084400C4F81834FFF7BCFC4023C4F818340A2653
:10085400FF20FFF7E5FC013EFAD164274FF4800640
:100864009DF81710002900F0AD80C4F818640DF14C
:1008740017024FF4D5710820FFF7E8FC9DF81730F4
:100884005B0740F1B780814B01221A734023C4F8FF
:100894001864C4F818347E4C2568042106A825F091
:1008A4000805FFF79FFC25602568042106A845F08C
:1008B4001005FFF797FC25602568042106A825F09C
:1008C4002005FFF78FFC25600020FFF7ECFC4FF4B8
:1008D400E370FFF725FD0DF1180845460024FFF7E6
:1008E400FFFC0134042C05F8010BF8D106980090A4
:1008F400FFF71FFD0098FFF7D6FC06AD0024FFF7B5
:10090400EFFC0134202C05F8010BF8D15F4DBDF844
:100914002330BDF82E40BDF82970AB879DF82530F3
:10092400BDF826609DF82890DDF834A085F83E30A7
:10093400A5F84070002C00F0AF80564404FB096415
:100944007F016C616F8701260025DFF840B1FFF756
:10095400F0FCB2462F46A8462A4600962C46DBF801
:100964000810DBF8440009314FF4806C4FF0806EBE
:10097400DBF808904945C0F2A380002800F0A48069
:10098400AF42444B05F101056DB2D4BFC3F818E47E
:10099400C3F818C47D2D08BF0025E9E7D4F808582A
:1009A400082106A825F00305FFF71CFCC4F8085825
:1009B400D4F80858082106A8FFF714FC15F00C0F0A
:1009C400F6D111E50220FFF7FBFB0220C4F81864FE
:1009D400FFF7F6FB0DF117020846FFF737FC40233B
:1009E400013FC4F818347FF43BAF4FF47A70FFF73B
:1009F400E7FB07E70426FFF714FC013E8DF8170018
:100A0400F9D14023AA28C4F8183439D14FF480030B
:100A1400C4F818340DF1170200213720FFF716FC33
:100A24004FF080410DF117022920FFF70FFC9DF8CC
:100A340017100029EED10DF117023A20FFF706FC3A
:100A4400FFF7EFFB114B80F04000C0F380101873E8
:100A5400FFF7E7FB8DF81700FFF7E3FB8DF81700AE
:100A6400FFF7DFFB0DF117028DF817004FF400714B
:100A74001020FFF7EBFB074B4022C3F818240AE7CA
:100A8400C4F81834B1E700BF00E400E0100000200F
:100A94000030014000000240012385F83830FFF7A0
:100AA4001FFCFFF71DFCFFF71BFCFFF719FCFFF70A
:100AB40017FC0134042C08F8010BF8D1069C3CE720
:100AC40010B1002A00F009814FF0E0224FF00051EC
:100AD400C2F8801100228BF84820FFF72AFCBBF8EB
:100AE4004A2012B12032ABF84A20BBF84A9048465B
:100AF400FFF73CFC9BF81820E52A19D0002AF2D015
:100B0400A2F14201122918D99BF8200057280CD1D0
:100B14009BF82110412908D19BF82220562A04D1A0
:100B24009BF823C0BCF1200F17D0BBF84A20D9E7AB
:100B340009F12009ABF84A90D7E79BF8231001F09C
:100B44000F010F29E0D1403AD2B209EB421080B232
:100B5400ABF84A00FFF70AFCD6E79BF818C08DF8FB
:100B640018C09BF819C08DF819C09BF81AC08DF8ED
:100B74001AC09BF81BC08DF81BC09BF81CC08DF8D5
:100B84001CC09BF81DC08DF81DC09BF81EC08DF8BD
:100B94001EC09BF81FC08DF81FC08DF821004FF0B8
:100BA4002E0C8DF823200A2000228DF820C08DF809
:100BB40022108DF82420FFF7EBFA0DF1180919F82B
:100BC400010B002840F0A9809BF8382032B19BF833
:100BD4002D209BF82C00120602EB00429BF8369065
:100BE4009BF835109BF832C09BF83300BBF840E00B
:100BF4004FEA094909EB01299BF83410ACF1020CC6
:100C04000CEB002C8944BBF83C009BF8371009EB33
:100C14000169411E01EB4E11B1FBF0F1DBF8140048
:100C2400CBF84C9008449BF83E10624401FB020050
:100C3400A9F54849CBF85000FFF735FB4FEA592294
:100C44001620CBF84420FFF76BFBFFF749FBDFF8D6
:100C5400309189F80000FFF743FBFFF741FB019057
:100C6400FFF73EFB0390FFF73BFB0290FFF738FBD7
:100C7400029A0399019B120402EB01221A4402EB2B
:100C840000610620C9F804100191FFF749FBFFF742
:100C940027FB89F808000920FFF742FB4FF0804248
:100CA4000020C2F8200401993348B0FBF1F1C2F8E6
:100CB4002C1441F21111C2F8201402228BF8542092
:100CC4004FF4EA72C9F80C204FF0E0224FF00051C3
:100CD400C2F8001101228BF8482037447FB27D2FDF
:100CE4001EDDCAF1000676B2244B9BF84820D3F8E7
:100CF4001018009B002A01F40050C1F340310CBFCE
:100D04004FF0030A4FF0010A8B420DD068B10B3C3F
:100D1400A4B2762C22D900240FE0FFF739FA4EE76B
:100D2400002F08BF5646DFE708B9013424B2782CF7
:100D340003DD22B1B8F1000F04D000221AE0B8F1AB
:100D4400000F17D14FF0E0224FF00050C2F880019D
:100D540000228BF848204FF001080BE04AB94FF00D
:100D6400E0204FF00054C0F8004101208BF8480007
:100D7400904600240091F2E500BD01050000024008
:100D840000000020024A936801339360704700BF5B
:100D94001000002070B54FF0804382B0D3F81044A7
:100DA40004210DEB0100FFF71DFAE0076AD568483E
:100DB400684A037A4FF48071102B916175D0A2F5C3
:100DC400504293689907FCD5FF21634B11739A68CD
:100DD400D207FCD5C5681A7B6B1EC3600378022B4F
:100DE400D4B200F0868000232546194641EA042245
:100DF4005A4C43EA052394F85410C5689BB28A40C0
:100E04008B404FF08041160AD2B2C1F83864C1F861
:100E140040241A0ADBB2C1F83424C1F83C34002D52
:100E240030D14D4B9A689507FCD5FF221A734A4B73
:100E34009A68D107FCD51B7B474B9A689207FCD56F
:100E4400FF221A73444A9368DE07FCD5636C4FF49F
:100E54000071C160581E137B3F4B6064FF219A6888
:100E64009507FCD519739A68D207FCD51A7BFE2A1C
:100E7400F5D138B94FF0E0234FF00052C3F8802188
:100E840084F84800334B4FF080454FF080720421C2
:100E94009A610DEB0100D5F81044FFF7A3F924F093
:100EA4000104C5F8104402B070BD2B4A93689E0734
:100EB400FCD5FF21284B11739A68D507FCD5197B03
:100EC400254BC9B29C68A407FCD5FF221A73224B98
:100ED4009C68E207FCD51A7BC568037882F080041D
:100EE400022BA5F10202C26013D089B20B4625463B
:100EF4007CE7194B9A689207FCD5FF221A73164BAC
:100F04009A68D607FCD51B7BAA1EC260DDB20023FB
:100F14006BE7114B9A689607FCD5FF221A730E4BA8
:100F24009A68D207FCD51B7BDAB20B4B9E68B607D6
:100F3400FCD5FF261E73084B9E68F607FCD51B7B69
:100F4400043DC56089B283F0800593B24EE700BFCB
:100F5400000000200000024000300140100000208A
:100F640007B5064B0193019B9847054B0093009BE3
:100F74009847002003B05DF804FB00BFD9010008C6
:100F8400BD030008DFF82CD0002103E00A4B5B58B6
:100F94004350043109480A4B42189A42F6D3094A8D
:100FA40002E0002342F8043B074B9A42F9D3FFF7CF
:100FB400D7FF7047008001202C100008000000209B
:100FC400100000201000002068000020FEE702440A
:100FD4000346934200D1704703F8011BF9E7000070
:100FE40008000000090000000A0000000C000000D6
:100FF4000D0000000E0000001400000016000000A8
:10100400180000001A0000001C0000001E00000070
:101014000A0000000B0000000C0000000D0000009E
:081024000E0000000F000000A7
:10102C000200000044AC00000800000000020000B8
:0400000508000F8957
:00000001FF
