:020000040800F2
:10000000002000201910000861100008611000088D
:1000100000000000000000000000000000000000E0
:100020000000000000000000000000006110000857
:10003000000000000000000061100008110300082B
:100040006110000800000000611000086110000845
:1000500061100008611000086110000861100008BC
:100060000000000061100008611000086110000825
:100070006110000861100008611000080000000015
:100080002103000861100008000000006110000852
:10009000611000086110000861100008611000087C
:1000A000611000086110000861100008611000086C
:1000B00061100008000000000000000000000000C7
:1000C00010B504000A2802D10D20FFF7F9FF084BF4
:1000D0001A68002A05D0511C1960147010BC01BCAC
:1000E00000475B68002BF9D0200000F00FFAF5E71D
:1000F00010000020034A93681B1891688B42FCDCB7
:100100007047C0461000002010B50A00002100F022
:10011000A9FF10BC01BC0047F7B5050002260A4C38
:10012000A768042101A8FFF7EFFF3742F7D0257336
:100130000125A668042101A8FFF7E6FF2E42F8D0AA
:10014000207BFEBC02BC08470030014010B5FFF721
:10015000E3FF10BC01BC004710B5FF20FFF7DCFF38
:1001600010BC02BC084773B504008025064B1E680E
:10017000042101A8FFF7C8FF2E42F7D0034B1C70E3
:1001800073BC01BC0047C0461C44004028440040EA
:10019000F8B504000D0016009527002803D06A3733
:1001A000082800D1783FFF20FFF7D0FF2000403023
:1001B0000006000EFFF7CAFF280EFFF7C7FF280C46
:1001C0000006000EFFF7C2FF280A0006000EFFF728
:1001D000BDFF2806000EFFF7B9FF3800FFF7B6FF96
:1001E0000A24FFF7B9FF3070000602D5013C002C4D
:1001F000F7D1F8BC01BC004713B56B46DA1D0023EC
:10020000010040201370084B084C9862237B012B9F
:1002100000D149021220FFF7BBFF0023E3812382B4
:1002200013BC01BC0047C046000400481000002079
:1002300070B5104DEC89002C03D1FFF78DFFFE281F
:10024000FBD1FFF789FF8022013424040600240C2F
:100250009200944204D0EC81300070BC02BC08478C
:100260000023EB812B8A01332B82FFF775FFFFF709
:1002700073FFF1E71000002070B505000024013481
:100280002404FFF7D5FF240CA542F8D170BC01BCB3
:10029000004773B56B46DE1D00230425084C337000
:1002A0004033A362320000210C20013DFFF770FFB4
:1002B000002DF7D14023A361A36173BC01BC0047AB
:1002C00000040048F8B5114D07006869FFF794FF76
:1002D00000240026FFF7ACFF2B0018339855013699
:1002E000202EF7D1A74204D1FFF7D3FFF8BC01BC01
:1002F00000472B00383320341B782404240C002BB7
:10030000E7D16B8FA342E4D8EEE7C046100000208F
:10031000024A9368013393607047C0461000002082
:10032000F0B5714B83B01C68042101A8FFF7ECFE07
:10033000E30773D590238022DB0552006B499A6155
:100340000B780220102B00D17AE0694B9A6810429A
:10035000FCD0FF2201201A73654B9A681042FCD032
:100360004D68187B0B7A6A1E04004A60022B00D18C
:100370008AE000230022000202433C20240223439F
:100380005C4C205C1B0482401B0C8340FF205A4DB8
:10039000AC465A4F160A4D683E60594E02403260D4
:1003A000584A18401B0A136063461860002D35D167
:1003B00002204F4B9A681042FCD0FF2201201A7392
:1003C0004B4B9A681042FCD002201B7B484B9A682A
:1003D0001042FCD0FF2201201A73454B9A6810424C
:1003E000FCD01B7B80239B004B60FF25022101205A
:1003F000266C013E3E4B26649A681142FCD01D7368
:100400009A681042FCD01A7BFE2AF5D1002E05D145
:1004100080233D4A5B0213604423E65490238022EC
:10042000DB0552009A62304D042101A82C68FFF7C9
:100430006BFE01239C432C6003B0F0BC01BC004761
:100440002B4B9A681042FCD0FF2201201A73284BD4
:100450009A681042FCD002241A7B254B986804420B
:10046000FCD0FF2001241873214B98680442FCD073
:10047000187B80234D6858400B7AAC1E4C60022BD1
:1004800012D00400130076E70224194B9A68144234
:10049000FCD0FF2201241A73154B9A681442FCD039
:1004A000023D1C7B4D6064E70226114B9C6826428E
:1004B000FCD0FF2401261C730D4B9C682642FCD007
:1004C00002271B7B0A4CA6683742FCD0FF26012777
:1004D0002673074CA6683742FCD0043D247B4D6050
:1004E00080256C4047E7C046100400400000002013
:1004F00000300140100000203C040040380400405F
:10050000400400403404004080E100E01847C04649
:10051000012051E21EFF2F013600003A010050E198
:100520002200009A020011E12300000A0E0211E3EA
:100530008111A0010830A0030130A013010251E392
:10054000000051310112A0310332A031FAFFFF3A0D
:10055000020151E3000051318110A0318330A031FC
:10056000FAFFFF3A0020A0E3010050E10100402023
:1005700003208221A10050E1A1004020A32082217C
:10058000210150E12101402023218221A10150E1DC
:10059000A1014020A3218221000050E32332B011A9
:1005A0002112A011EFFFFF1A0200A0E11EFF2FE1B0
:1005B0000100A0030000A0131EFF2FE1010851E37A
:1005C0002118A0211020A0230020A033010C51E30A
:1005D0002114A02108208222100051E32112A02121
:1005E00004208222040051E303208282A120829011
:1005F0003002A0E11EFF2FE1000050E30000E013F5
:10060000070000EA000051E3FAFFFF0A03402DE96A
:10061000BEFFFFEB0640BDE8920003E0031041E09F
:100620001EFF2FE11EFF2FE1F0B5F24CF24B95B00B
:10063000F24A25680CAF5A6004213800FFF764FDC8
:10064000AB0700D5E8E2EE4D042138002E68FFF735
:100650005BFDEC4B1E402E608026B6042B68042107
:1006600038000193FFF750FD019B33400393019B3A
:100670003342F3D12368102138000293FFF744FD81
:100680003A00E14B43CB43C201211B681360039B3B
:1006900001930800019A9200BA589040019A0132E1
:1006A00001920343042AF4D1029E9E43266008214E
:1006B00038002668FFF728FDA0239B031E43266011
:1006C000380001992E68FFF71FFD80235B041E434D
:1006D0002E608026B6042B68042138000193FFF7B2
:1006E00013FD019B3342F6D0042138002568FFF743
:1006F0000BFD02232B4308252360266804213800C4
:10070000FFF702FD2E42F8D08026C04C2568B602C5
:100710003543902638000421FFF7F6FC25603800A9
:10072000F60504213568FFF7EFFC80235B021D43CB
:100730003560380004212568FFF7E6FC8023B44AC1
:1007400016001B031D432560380008211568FFF7BC
:10075000DBFCB04B1D40356080252668ED0238007B
:100760002E430421FFF7D0FCAB4A26603800042159
:100770001668FFF7C9FC8021A74A49010E4316609D
:100780002668380035430421FFF7BEFCA24A2560E5
:100790003800042116001568FFF7B6FC8023C0213D
:1007A0005B031D439D4A9E4B35601A609D4A13684A
:1007B0001B0209061B0A0B43136000229A4B1A60A6
:1007C0009A4B07321A609A4A380004211568FFF7DD
:1007D0009BFC80239B021E00954A1D4315602568E3
:1007E0003543902638000421FFF78EFC2560380041
:1007F000F60508213568FFF787FCA0231D43356007
:100800008C4D380008212E68FFF77EFC88235B01A1
:100810001E43D0232E60884D5B00EB6038000C2116
:100820002E68FFF771FC0D231E432E60834D3800A8
:1008300004212E68FFF768FC802149010E432E60D9
:10084000380004212568FFF75FFC802390269B0277
:100850001D4325603800F6050C213568FFF754FC70
:10086000A8231B021D433560754D182138002E68E2
:10087000FFF74AFC3A00644B103383CB83C283CB2F
:1008800083C200231A006549099108270AA891002C
:10089000C01941580120884001320343062AF4D18F
:1008A00033432B60674D08210CA82E68FFF72CFC02
:1008B000C02304275B011E432E60634D2E68042174
:1008C0000CA83E43FFF720FC2E6039000CA82E68D0
:1008D000FFF71AFC08231E432E6019000CA82E688F
:1008E000FFF712FCC0239B001E432E6039000CA8AA
:1008F0006E68FFF709FC80235B011E436E603900C0
:100900000CA82E68FFF700FC40231E432E60484BC6
:1009100039000CA81E68FFF7F7FB02231E43444B67
:100920001E604A4E336808210CA80193FFF7ECFBC8
:100930008123019A13433360454E336839000CA874
:100940000193FFF7E1FB01220021019B1343336078
:10095000404B414A19601368FF318B4313603900E3
:100960000CA82668FFF7D0FB8023DB021E4326601D
:10097000294B08210CA81E68FFF7C6FBA0231B010A
:100980001E43254B1E60354E336808210CA8019389
:10099000FFF7BAFB882301985B03034333603900F8
:1009A0000CA82668FFF7B0FB80231B031E432660BC
:1009B000174E08210CA83468FFF7A6FBA0230021DE
:1009C0001B031C4388232648346001602549DB0053
:1009D0000B60254A254B1360254A1360254B264E94
:1009E000036039000CA83468FFF78EFB0122144322
:1009F000346043E00410024010000020670100084A
:100A000000100240FFFFFFFE7C100008141002409F
:100A100000080048FFFFFFF3000400487FBB000010
:100A200014E000E020ED00E018E000E010E000E05D
:100A30001C100240200000480044004018100240F2
:100A4000080000480C00004800300140000400404D
:100A50000C0400402804004010E400E0200400489A
:100A6000200400402C040040180400406868000086
:100A70001C04004011110000140400400AABDC1DEE
:100A80000023237039000CA82E68FFF73DFB40239C
:100A90001E432E6008210CA82E68FFF735FB30237B
:100AA0001E432E6039000CA82E68FFF72DFB08238B
:100AB0009E432E604026C64A02209662FFF71AFB2C
:100AC000C34A9661363EFF20013EFFF73FFB002EF2
:100AD000F9D1642301932678002E00D1ADE04022A5
:100AE000D521BB4B08209A6249002200FFF750FB3A
:100AF00023783B4200D1BCE00122B64B1A73B44BC1
:100B00003F329A629A6104210CA82C68FFF7FCFA24
:100B100008210C432C600CA82C68FFF7F5FA302351
:100B20009C4300202C60FFF767FBE3204000FFF7A9
:100B3000A3FB0024FFF77CFB08220AAB9B18185587
:100B40000134042CF6D10C9CFFF7A3FB2000FFF727
:100B500053FB0024FFF76CFB08220AAB9B181855C7
:100B60000134202CF6D113229A4E31000AABD21850
:100B7000537810781B0203430831CB8733000AAA4D
:100B8000527D48331A700AABDB8A01930AAB1B7E95
:100B9000029319230AAA9B181A785D7833002D0254
:100BA0004A3315431D800AABDC8B139F002C00D108
:100BB0009FE0029B63431C00019BDF19E7196D0155
:100BC00077617587FFF765FB012301220693049384
:100BD0000023079203930293059301937D4A916842
:100BE000146C09319068814200DA9EE0002C00D13B
:100BF000A0E00298039DA84200DD91E080257448A2
:100C0000ED008562039801300006001603907D28F0
:100C1000E8D100200390E5E7082138002568FFF7B8
:100C200073FA03239D4325600C25266808213800AC
:100C3000FFF76AFA2E42F8D105E50220FFF75AFACB
:100C40004022634B02209A62FFF754FA22003100DF
:100C50003000FFF79DFA40225D4B9A61019B013BFA
:100C60000193002B00D036E7FA208000FFF742FA0C
:100C700004E70426FFF770FA013E2070002EF9D138
:100C80004022534B9A61AA282FD140228026504BF4
:100C90009A62F605220000213720FFF779FA310029
:100CA00022002920FFF774FA21780029F2D12200CE
:100CB0003A20FFF76DFAFFF74FFA0123454A800902
:100CC00083431373FFF748FA2070FFF745FA20704B
:100CD000FFF742FA80212200207089001020FFF7E0
:100CE00057FA40233A4A93610DE74022384B9A6104
:100CF000BAE73300012238331A70FFF799FAFFF789
:100D000097FAFFF795FAFFF793FAFFF791FA08229F
:100D10000AAB9B1818550134042CF6D10C9C48E7FB
:100D200080252B48ED0085616CE7002C02D0002B5C
:100D300000D1FBE08022274C274B52021A6023008F
:100D4000002244334C341A70FFF7A3FA2388002B97
:100D500001D0203323800F271E4D2E004C363488BF
:100D60002000FFF7AFFA2B7EE52B03D0002B04D138
:100D70003380F1E720343480EEE71A00423A122A39
:100D800016D9144B5A1CD07F57280BD19A1CD17FEF
:100D9000412907D1DA1CD27F562A03D11C1DE47FDA
:100DA000202C1BD00B4B4C331A8820321A80D3E7EF
:100DB0000435EA7F3A400F2AE3D1403B1B061B0E65
:100DC0005B01E3181804000C3080FFF77BFAD8E7CA
:100DD000000400481000002080E100E01D7E0CAC03
:100DE00025705D7E65709D7EA570DD7EE5701D7F42
:100DF00025715D7F65719D7FA571DB7FE3712E237A
:100E00002372002360720A20A172E2722373FFF73B
:100E100057F92078002800D0B5E0754B1A00383219
:100E200012780600002A07D01A002D332C321678CB
:100E30001B7836041B06F6186D4C230033331878E4
:100E4000230032331F78230035331D7823003633D7
:100E50001B782D021B04ED18230034331B78ED188A
:100E6000230037331B781B06ED1823000833D98F76
:100E7000230000024A33023FC71918884B1E400165
:100E80002565C018FFF744FB6369C0182300483389
:100E9000F6191F787E4380196065FFF7ADF9554B51
:100EA000ED1816206D0A2564FFF7E6F9FFF7C0F983
:100EB000514E3072FFF7BCF9FFF7BAF90890FFF70F
:100EC000B7F90500FFF7B4F90700FFF7B1F93F04E0
:100ED000089B2D02ED19ED1800062D180620F5606F
:100EE000FFF7CAF9FFF7A4F9002730700920FFF7D0
:100EF000C3F9424B29001F604148FFF709FB414AF3
:100F00003E4B1060404A1A60099BF26893427F4151
:100F1000230001373C331F70EA2380225B0073609B
:100F20003A4B52021A60012344342370069A9446C5
:100F3000029B63441B061B1602937D2B25DD049B3D
:100F40005B4206932A4A1300032144331B78049121
:100F5000002B01D00239049180202D4909688001BD
:100F600001400800441EA041079C844212D0002981
:100F700012D001990B390904090C762928D90023CC
:100F80000193002331E0013441E7029B002BD9D1CA
:100F9000049BD6E7002904D1019901310904091401
:100FA000019101997829ECDD002B0DD000230599E2
:100FB00099421AD18021174B49021960002344320B
:100FC00013700122059210E005990029F2D00CE07F
:100FD000002101918B4208D180240C4964020C60ED
:100FE000012144321170059301930790F6E5C04644
:100FF000100000200038FFFF000000202004004007
:10100000006CDC022C0400401111000000E100E043
:101010001008004880E100E00B4885460B480C4969
:101020000C4A002302E0D458C4500433C4188C4244
:10103000F9D3094A094C002301E013600432A242AB
:10104000FBD3FFF7F1FAFEE70020002000000020AC
:1010500010000020A41000081000002068000020EC
:10106000FEE700000030A0E1022080E0020053E132
:0C1070001EFF2F010110C3E4FBFFFFEA8C
:10107C001500000014000000130000001200000016
:10108C000A0000000B0000000C0000000D00000026
:08109C000E0000000F0000002F
:1010A40008000000000200000200000044AC000040
:0400000508001019C6
:00000001FF
