:020000040800F2
:10000000004001207D110008BD110008BD1100084D
:10001000BD110008BD110008BD110008000000005E
:10002000000000000000000000000000BD110008FA
:10003000BD11000800000000BD110008390E0008C5
:10004000BD110008BD110008BD110008BD11000858
:10005000BD110008BD110008BD110008BD11000848
:10006000BD110008BD110008BD110008BD11000838
:10007000BD110008BD110008BD110008BD11000828
:10008000BD110008BD110008BD110008BD11000818
:10009000BD110008BD110008BD110008BD11000808
:1000A000BD110008BD110008BD110008BD110008F8
:1000B000BD110008490E0008BD110008BD1100085F
:1000C000BD110008BD110008BD110008BD110008D8
:1000D000BD110008BD110008BD110008BD110008C8
:1000E000BD110008BD110008BD110008BD110008B8
:1000F000BD11000800000000BD110008BD1100087E
:10010000BD110008BD110008BD110008BD11000897
:10011000BD110008BD110008BD110008000000005D
:10012000BD110008000000000000000000000000F9
:0C01300000000000000000005FF808F173
:10013C0010B504000A2802D10D20FFF7F9FF084B77
:10014C001A68002A05D0511C1960147010BC01BC2F
:10015C0000475B68002BF9D0200000F065FFF5E745
:10016C0010000020034A93681B1891688B42FCDC3A
:10017C007047C04610000020014B024A5A6070477D
:10018C0010000020F301000810B50A00002101F056
:10019C0011F810BC01BC0047F7B5050002260A4C4B
:1001AC00A768042101A8FFF7EFFF3742F7D02573AA
:1001BC000125A668042101A8FFF7E6FF2E42F8D01E
:1001CC00207BFEBC02BC08470030014010B5FFF795
:1001DC00E3FF10BC01BC004710B5FF20FFF7DCFFAC
:1001EC0010BC02BC084773B504008025064B1E6882
:1001FC00042101A8FFF7C8FF2E42F7D0034B1C7057
:10020C0073BC01BC0047C04600440040044400409D
:10021C00F8B504000D0016009527002803D06A37A6
:10022C00082800D1783FFF20FFF7D0FF2000403096
:10023C000006000EFFF7CAFF280EFFF7C7FF280CB9
:10024C000006000EFFF7C2FF280A0006000EFFF79B
:10025C00BDFF2806000EFFF7B9FF3800FFF7B6FF09
:10026C000A24FFF7B9FF3070000602D5013C002CC0
:10027C00F7D1F8BC01BC004713B56B46DA1D00235F
:10028C00010040201370084B084C9862237B012B13
:10029C0000D149021220FFF7BBFF0023E381238228
:1002AC0013BC01BC0047C0460004024010000020F3
:1002BC0070B5104DEC89002C03D1FFF78DFFFE2893
:1002CC00FBD1FFF789FF8022013424040600240CA3
:1002DC009200944204D0EC81300070BC02BC084700
:1002EC000023EB812B8A01332B82FFF775FFFFF77D
:1002FC0073FFF1E71000002070B5050000240134F5
:10030C002404FFF7D5FF240CA542F8D170BC01BC26
:10031C00004773B56B46DE1D00230425084C337073
:10032C004033A362320000210C20013DFFF770FF27
:10033C00002DF7D14023A361A36173BC01BC00471E
:10034C0000040240F8B5114D07006869FFF794FFEF
:10035C0000240026FFF7ACFF2B001833985501360C
:10036C00202EF7D1A74204D1FFF7D3FFF8BC01BC74
:10037C0000472B00383320341B782404240C002B2A
:10038C00E7D16B8FA342E4D8EEE7C0461000002003
:10039C00F0B50425F64C93B026680AAF042138005A
:1003AC002E43FFF7F1FE2660266829003800FFF780
:1003BC00EBFE2E42F8D00126256804213800354387
:1003CC00FFF7E2FE2560256804213800FFF7DCFE0C
:1003DC003542F8D0042138002568FFF7D5FE0223FA
:1003EC001D432560E34D042138002C68FFF7CCFE3B
:1003FC0080235B051C432C60DF4C042138002568EE
:10040C00FFF7C2FE80231B011D4325600421380029
:10041C002568FFF7B9FED94B1D402560D84D2C68D7
:10042C00042138003443FFF7AFFE2C600421380060
:10043C002C68FFF7A9FE02231C42F7D0D14C0421F3
:10044C0038002668FFF7A0FE80235B011E43266060
:10045C00CD4C042138002668FFF796FE80231B0341
:10046C001E432660042138002668FFF78DFE80238A
:10047C001B041E432660042138002E68FFF784FEFF
:10048C0080235B041E432E608026B6042B68042157
:10049C0038000093FFF778FE009B3342F6D008211A
:1004AC0038002568FFF770FE03232B430C252360CF
:1004BC00266808213800FFF767FE2E42F8D0B34EAD
:1004CC00042138003468FFF75FFE01231C433460BD
:1004DC00AF4D042138002C68FFF756FE80235B02D9
:1004EC001C432C6004243568042125433800FFF795
:1004FC004BFE3560A74938000D680821FFF744FE14
:10050C00A54BA4491D400D60380021003568FFF74C
:10051C003BFE02210D4335608025A04B21001E6857
:10052C003800FFF731FE6D019C4B2E431E609C483A
:10053C00210006683800FFF727FE9948354305600F
:10054C00924E210038003568FFF71EFE02210D4344
:10055C00924A35602100380016001568FFF714FE2A
:10056C0080235B031D438F4A8F4B35601A60F0224A
:10057C0000268E4B1A708E4B1E608E4BE93A1A6019
:10058C007C4938000D682100FFF7FEFD8023794976
:10059C009B021D430D607D4B210038001D68FFF749
:1005AC00F3FD0122794B15431D60794D082138006C
:1005BC002D68FFF7E9FDA0231D43754B1D607E4B95
:1005CC00210038001D68FFF7DFFD40231D437A4BE7
:1005DC001D607A4B182138001D68FFF7D5FD3B00D4
:1005EC00774A13CA13C313CA13C333000AAC0121CD
:1005FC009A001259914001330E43062BF7D1162362
:10060C002E436E4F6F4DFF333E60AB600C212000CC
:10061C00EE68FFF7B9FD6C4B1E43EE606B4D042189
:10062C0020002E68FFF7B0FD80235B011E432E6077
:10063C00564E042120003568FFF7A6FD01231D430B
:10064C003560534E0C2120003568FFF79DFDA82323
:10065C001B021D432000356018213D68FFF794FDF7
:10066C002200574B183343CB43C243CB43C2002326
:10067C0001201A000600910061588E40013233436C
:10068C00062AF7D14D4A2B431360514D18212000F7
:10069C002E68FFF779FD2200494B303383CB83C2A0
:1006AC0083CB83C200231A0001209100615888403B
:1006BC0001320343062AF7D133432B603E4E082107
:1006CC0020003568FFF760FDC0235B011D433560DA
:1006DC000425404F3E68042120002E43FFF754FDB3
:1006EC003E60290020003E68FFF74EFD10231E439C
:1006FC003E60082120003E68FFF746FDC0239B00AA
:10070C001E433E60290020003E68FFF73DFD40235C
:10071C001E433E60174F290020003E68FFF734FD52
:10072C0002231E433E602C4E082120003768FFF741
:10073C002BFD81233B433360284E29002000376872
:10074C00FFF722FD01223A4332600022244B1A604B
:10075C00244B0E4F1A70290020003E68FFF714FD41
:10076C0002231E433E600D4920000F003CE0C046B2
:10077C00003C02402438024000700040FFEFFFFFB5
:10078C000038024004380240083802401C3802404D
:10079C000000024000080240FFFFFFF3000402408B
:1007AC000C040240FF7C000014E000E023ED00E0AC
:1007BC0018E000E010E000E00C00024020000240D5
:1007CC00D8110008004400400C20000020380240E2
:1007DC000800024000300140000400400C040040BE
:1007EC00280400401DE400E00E680821FFF7CCFC53
:1007FC00A0231B011E433E60D74E08212000376802
:10080C00FFF7C2FC88239B033B43D44F3360290082
:10081C0020003E68FFF7B8FCD14B1E403E6029001B
:10082C0020003E68FFF7B0FCCE4B1E40CE4B3E6026
:10083C001F001E68290020002E43FFF7A5FCCB4BA0
:10084C003E60082120001F001E68FFF79DFCA023BE
:10085C001B031E433E60C64E082120003768FFF77D
:10086C0093FC22231F433760BC4F290020003E68B5
:10087C00FFF78AFCBF4B1E403E60290020003E68FB
:10088C00FFF782FC0022BC4BBC491E403E60BC4BB7
:10089C000A60BC4A1360BC4BBC4A1360BC4A136070
:1008AC00BC4BBD4F0B60200029003E68FFF76CFC71
:1008BC0001231E433E6008ABDC1D0023B74F0AAD7D
:1008CC002370042128003E68FFF75EFC40231E4382
:1008DC003E60082128003E68FFF756FC282216438C
:1008EC00AF4A3E604026170096620220FFF73AFCA2
:1008FC00BE61363EFF20013EFFF768FC002EF9D1A9
:10090C0064362778002F00D18CE04022D5210426B4
:10091C00A34B08209A6249002200FFF779FC237848
:10092C00334200D198E001229E4B1A739C4B3F320C
:10093C009A629A61994E0C2128003468FFF724FCC6
:10094C0038239C4300203460FFF796FCE3204000E2
:10095C00FFF7D2FC0024FFF7ABFC28550134042C24
:10096C00F9D10A9CFFF7D5FC2000FFF785FC002489
:10097C00FFF79EFC28550134202CF9D1132208AB2B
:10098C00D21853781178874F1B020B43BB873B005F
:10099C006A7B3E331A70EB8900932B7C01931923ED
:1009AC0008AA9B185E781A783602BB1C1643DE87A1
:1009BC00EC8A119B0293002C00D18CE0019B6343C9
:1009CC00029A94461C00009B6344E41876017C61F7
:1009DC007E87FFF79EFC01230122059303930023DE
:1009EC00069202930193049300936E4A9168546C9F
:1009FC0009319068814200DA86E0002C00D188E051
:100A0C000198029DA8427ADC80256548ED0085623C
:100A1C00029801300006001602907D28E9D10020D2
:100A2C000290E6E70220FFF79DFB40225C4B022080
:100A3C009A62FFF797FB220039003800FFF7E8FBBA
:100A4C004022574B013E9A61002E00D059E7FA2004
:100A5C008000FFF787FB2EE7FFF7BEFB013E2070FF
:100A6C00002EF9D140224E4B9A61AA282FD1402258
:100A7C0080264B4B9A62F605220000213720FFF7A7
:100A8C00C7FB310022002920FFF7C2FB2178002987
:100A9C00F2D122003A20FFF7BBFBFFF79DFB0123AD
:100AAC00404A800983431373FFF796FB2070FFF7CE
:100ABC0093FB2070FFF790FB8021220020708900AF
:100ACC001020FFF7A5FB4023354A936132E7402203
:100ADC00334B9A61BBE73B00012238331A70FFF7A6
:100AEC00E7FBFFF7E5FBFFF7E3FBFFF7E1FBFFF7A6
:100AFC00DFFB28550134042CF9D10A9C5EE78025D4
:100B0C002748ED00856183E7002C02D0002B00D133
:100B1C0016E18022234C244B92051A6023000022FC
:100B2C0048334A341A70FFF7F4FB2388002B01D0AA
:100B3C00203323800F271B4D2E004A36348820008B
:100B4C00FFF700FC2B7EE52B03D0002B2ED133803E
:100B5C00F1E720343480EEE7200402400C0402401C
:100B6C00FFFEFFFFFFFBFFFF1C38024000080240A6
:100B7C0024080240FFFFFEFFFFFFFBFF20040040A4
:100B8C00D50200002C0400406868000018040040E6
:100B9C001C040040111100001404004000300140FE
:100BAC00000402401000002080E100E01A00423AEC
:100BBC00122A16D9934B5A1CD07F57280BD19A1C4A
:100BCC00D17F412907D1DA1CD27F562A03D11C1DB3
:100BDC00E47F202C15D08B4B4A331A8820321A8094
:100BEC00A9E70435EA7F3A400F2AE3D1403B1B06C4
:100BFC001B0E5B01E3181804000C3080FFF7A2FBFE
:100C0C00D8E71D7E0AAC25705D7E65709D7EA57053
:100C1C00DD7EE5701D7F25715D7F65719D7FA57102
:100C2C00DB7FE3712E232372002360720A20A172F2
:100C3C00E2722373FFF77CFA2078002800D0ACE036
:100C4C00704B1A00383212780600002A07D01A00AE
:100C5C002D332C3216781B7836041B06F618694C8B
:100C6C00230033331878230032331F7823003533B5
:100C7C001D78230036331B782D021B04ED1823003E
:100C8C0034331B78ED18230037331B781B06ED1813
:100C9C000002A31C023FA18FC719D88F4B1E400125
:100CAC00E564C01800F0C2F96369C01823003E3334
:100CBC00F6191F787E4380192065FFF7DDFA524B39
:100CCC00ED1816206D0A6564FFF716FBFFF7F0FAB6
:100CDC004E4F3870FFF7ECFAFFF7EAFA0790FFF780
:100CEC00E7FA0500FFF7E4FA0600FFF7E1FA36042D
:100CFC00079B2D02AD19ED1800062D1806207D60FE
:100D0C00FFF7FAFAFFF7D4FA38720920FFF7F4FA72
:100D1C0000233F4E290033603E4800F087F93E4BDC
:100D2C0018603E4B22003360012354321370EA22C8
:100D3C0080215200FA603A4A8905483411602370C8
:100D4C00059A9446019B63441B061B1601937D2B4D
:100D5C0025DD039B5B4205932A4A1300032148338C
:100D6C001B780391002B01D00239039180202D496F
:100D7C000968800101400800441EA041069C844281
:100D8C0012D0002912D000990B390904090C7629CC
:100D9C0028D900230093002331E001344AE7019B5A
:100DAC00002BD9D1039BD6E7002904D1009901313E
:100DBC0009040914009100997829ECDD002B0DD061
:100DCC000023049999421AD18021174B8905196087
:100DDC000023483213700122049210E00499002978
:100DEC00F2D00CE0002100918B4208D180240C49F8
:100DFC00A4050C60012148321170049300930690F5
:100E0C00F3E5C046100000200038FFFF0000002072
:100E1C00200400400048E8012C040040111100009F
:100E2C0000E100E01008024080E100E0024A936813
:100E3C00013393607047C04610000020F0B5704B32
:100E4C0083B01C68042101A8FFF79EF9E30772D553
:100E5C0080236C4A5B006C4993610B7A0220102B47
:100E6C0000D179E0694B9A681042FCD0FF22012036
:100E7C001A73664B9A681042FCD0CD68187B0B78BD
:100E8C006A1E0400CA60022B00D189E000230022F4
:100E9C00000202435420240223435D4C205C1B04BB
:100EAC0082401B0C8340FF205A4DAC465A4F160A09
:100EBC00CD683E60594E02403260594A18401B0AB8
:100ECC00136063461860002D35D102204F4B9A6891
:100EDC001042FCD0FF2201201A734C4B9A6810422E
:100EEC00FCD002201B7B494B9A681042FCD0FF229D
:100EFC0001201A73454B9A681042FCD01B7B80234F
:100F0C009B00CB60FF2502210120666C013E3F4B0C
:100F1C0066649A681142FCD01D739A681042FCD02A
:100F2C001A7BFE2AF5D1002E05D180233D4A9B0564
:100F3C0013604823E6548023324A5B009362304DA1
:100F4C00042101A82C68FFF71FF901239C432C6096
:100F5C0003B0F0BC01BC00472C4B9A681042FCD08B
:100F6C00FF2201201A73294B9A681042FCD00224EC
:100F7C001A7B264B98680442FCD0FF20012418737E
:100F8C00224B98680442FCD0187B8023CD685840D3
:100F9C000B78AC1ECC60022B12D00400130077E748
:100FAC0002241A4B9A681442FCD0FF2201241A73B3
:100FBC00164B9A681442FCD0023D1C7BCD6065E751
:100FCC000226124B9C682642FCD0FF2401261C737F
:100FDC000E4B9C682642FCD002271B7B0B4CA66850
:100FEC003742FCD0FF2601272673084CA6683742EF
:100FFC00FCD0043D247BCD6080256C4048E7C04686
:10100C0010040040000002400000002000300140AD
:10101C00100000203C040040380400404004004014
:10102C003404004080E100E01847C046012051E242
:10103C001EFF2F013600003A010050E12200009AF9
:10104C00020011E12300000A0E0211E38111A0013C
:10105C000830A0030130A013010251E3000051310C
:10106C000112A0310332A031FAFFFF3A020151E321
:10107C00000051318110A0318330A031FAFFFF3ACA
:10108C000020A0E3010050E1010040200320822158
:10109C00A10050E1A1004020A3208221210150E1B8
:1010AC002101402023218221A10150E1A1014020F6
:1010BC00A3218221000050E32332B0112112A01190
:1010CC00EFFFFF1A0200A0E11EFF2FE10100A003B9
:1010DC000000A0131EFF2FE1010851E32118A021ED
:1010EC001020A0230020A033010C51E32114A021D7
:1010FC0008208222100051E32112A0210420822218
:10110C00040051E303208282A12082903002A0E1EE
:10111C001EFF2FE1000050E30000E013070000EA7F
:10112C00000051E3FAFFFF0A03402DE9BEFFFFEB7D
:10113C000640BDE8920003E0031041E01EFF2FE1E2
:10114C001EFF2FE107B5074B0193019B00F00EF832
:10115C00054B0093009B00F009F8002003B002BC83
:10116C000847C046850100089D0300081847C04683
:10117C00002103E0094B5B58435004310848094BEC
:10118C0042189A42F6D3084A02E0002342F8043B84
:10119C00064B9A42F9D3FFF7D5FF7047201200088F
:1011AC00000000201000002010000020680000202B
:1011BC00FEE700000030A0E1022080E0020053E1D5
:0C11CC001EFF2F010110C3E4FBFFFFEA2F
:1011D80008000000090000000A0000000C000000E0
:1011E8000D0000000E0000001400000016000000B2
:1011F800180000001A0000001C0000001E0000007B
:101208000A0000000B0000000C0000000D000000A8
:081218000E0000000F000000B1
:101220000200000044AC00000800000000020000C2
:040000050800117D61
:00000001FF
