:020000040800F2
:10000000000002206D0F0008B50F0008B50F0008B2
:10001000B50F0008B50F0008B50F0008000000007C
:10002000000000000000000000000000B50F000804
:10003000B50F000800000000B50F0008B10300086C
:10004000B50F0008B50F0008B50F0008B50F000880
:10005000B50F0008B50F0008B50F0008B50F000870
:10006000B50F0008B50F0008B50F0008B50F000860
:10007000B50F0008B50F0008B50F0008B50F000850
:10008000B50F0008B50F0008B50F0008000000000C
:10009000000000000000000000000000B50F000894
:1000A000B50F0008B50F0008B50F0008B50F000820
:1000B000B50F0008C1030008B50F0008B50F000810
:1000C000B50F0008B50F0008B50F0008B50F000800
:1000D000B50F0008B50F0008B50F000800000000BC
:1000E000B50F0008B50F0008B50F000800000000AC
:1000F000000000000000000000000000B50F000834
:1001000000000000B50F0008B50F0008B50F00088B
:1001100000000000000000000000000000000000DF
:10012000B50F0008B50F0008B50F0008B50F00089F
:10013000B50F0008000000000000000000000000F3
:10014000000000000000000000000000B50F0008E3
:10015000B50F0008B50F0008B50F0008B50F00086F
:10016000B50F0008B50F00080000000000000000F7
:10017000000000000000000000000000000000007F
:1001800000000000B50F00080000000000000000A3
:08019000B50F0008B50F0008CF
:100198000A2810B5044602D10D20FFF7F9FF074BD6
:1001A8001A681AB1511C1960147010BD5B68002BD5
:1001B800FBD02046BDE81040184700BF10000020C3
:1001C800034A9368184493689842FCDC704700BF60
:1001D800100000200A46002100F0E9BE73B50B4D5F
:1001E8000446AE6804210DEB0100FFF7F3FFB207E8
:1001F800F7D52C73054CA56804210DEB0100FFF71A
:10020800E9FFEB07F7D5207B02B070BD0030014055
:10021800E4E7FF20E2E773B504464FF04026D6F83E
:10022800005404210DEB0100FFF7D4FF2B06F6D58F
:10023800014B1C7102B070BD00440040F8B50D467A
:100248001646044628B3082814BFFF278727FF202F
:10025800FFF7DEFF04F14000C0B2FFF7D9FF280E18
:10026800FFF7D6FFC5F30740FFF7D2FFC5F3072016
:10027800FFF7CEFFE8B2FFF7CBFF3846FFF7C8FF1E
:100288000A24FFF7C6FF0306307001D5013CF8D1F8
:10029800F8BD9527DBE713B500238DF807300A4B27
:1002A8000A4C4FF48002C3F81824237B012B014623
:1002B8000DF1070208BF41021220FFF7BFFF00231C
:1002C800E381238202B010BD00000240100000202C
:1002D80070B50E4DEC891CB9FFF79BFFFE28FBD1CA
:1002E800FFF797FF0134A4B2B4F5007F064602D0A9
:1002F800EC81304670BD0023EB812B8A01332B82C1
:10030800FFF787FFFFF785FFF3E700BF1000002026
:1003180038B5054600240134FFF7DAFFA542FAD1C3
:1003280038BD13B500238DF807300B4B4FF480020E
:10033800C3F8182404240DF1070200210C20FFF74C
:100348007DFF013CF7D1044B4022C3F81824C3F8C1
:10035800182402B010BD00BF000002402DE9F04192
:100368000F4D06466869FFF796FF0024DFF83480D2
:100378000027FFF7ADFF0137202F08F8010BF8D150
:10038800A64202D1BDE8F041CBE795F838302034D9
:10039800A4B2002BEAD16B8FA342E7D8F2E700BFE3
:1003A8001000002028000020024A9368013393605F
:1003B800704700BF1000002070B54FF0804382B036
:1003C800D3F8104404210DEB0100FFF703FFE00709
:1003D80069D5674B67484FF480729A610378664A1B
:1003E800102B73D093689907FCD5FF21624B1173CA
:1003F8009A68D207FCD545681A7B6B1E4360037A5E
:10040800022BD4B200F0858000232546194641EA24
:1004180004225A4C43EA052394F83C1045689BB2E1
:100428008A408B404FF08041160AD2B2C1F8386436
:10043800C1F840241A0ADBB2C1F83424C1F83C34AC
:10044800002D30D14C4B9A689507FCD5FF221A73C2
:10045800494B9A68D107FCD51B7B474B9A68920792
:10046800FCD5FF221A73444A9368DE07FCD5236C37
:100478004FF400714160581E137B3F4B2064FF21ED
:100488009A689507FCD519739A68D207FCD51A7B28
:10049800FE2AF5D138B94FF0E0234FF00052C3F8E7
:1004A800802184F84400324B4FF080454FF0807231
:1004B80004219A610DEB0100D5F81044FFF78AFE7C
:1004C80024F00104C5F8104402B070BD93689E077B
:1004D800FCD5FF21284B11739A68D507FCD5197BE9
:1004E800254BC9B29C68A407FCD5FF221A73224B7E
:1004F8009C68E207FCD51A7B4568037A82F0800481
:10050800022BA5F10202426013D089B20B462546A0
:100518007DE7194B9A689207FCD5FF221A73164B90
:100528009A68D607FCD51B7BAA1E4260DDB2002361
:100538006CE7114B9A689607FCD5FF221A730E4B8D
:100548009A68D207FCD51B7BDAB20B4B9E68B607BC
:10055800FCD5FF261E73084B9E68F607FCD51B7B4F
:10056800043D456089B283F0800593B24FE700BF30
:100578000000024000000020003001401000002070
:100588002DE9F04F4FF0E022C94FCA4B7B60D2F8FB
:10059800883DC94C43F46053C2F8883D0323C4F82E
:1005A800003CD4F808588FB0042106A8FFF712FEC3
:1005B800AD0700F1E882C04CD4F80058042106A821
:1005C80025F08075FFF706FEC4F80058D4F80058E7
:1005D80006A80421FFF7FEFDA801F7D4B74BC4F81D
:1005E8000438D4F80058042106A845F08075FFF7B0
:1005F800F1FDC4F80058B04CD4F80058042106A8FE
:10060800FFF7E8FDA901F7D54FF48053C4F808387F
:10061800D4F80858042145F0020506A8FFF7DAFDCA
:10062800C4F80858A44DD5F80848042106A8FFF7CF
:10063800D1FD2207F7D5D5F83048042106A844F0A3
:100648000104FFF7C7FDC5F830489D4C2668042112
:1006580006A846F48036FFF7BDFD2660D5F8306859
:10066800042106A846F00406FFF7B4FDC5F8306873
:10067800D4F80068082106A826F04066FFF7AAFD0E
:10068800C4F80068D5F83068042106A846F00206C8
:10069800FFF7A0FDC5F83068D4F80064042106A867
:1006A80046F48056FFF796FDC4F80064D4F80C644D
:1006B800042106A846F48056FFF78CFDC4F80C64A4
:1006C800D5F83068042106A846F00206FFF782FD37
:1006D800C5F83068D4F80064042106A8FFF77AFD4D
:1006E8004FF0E023774A46F48016C4F800645A6154
:1006F800754AF02182F82310002607229E611A61AC
:10070800D5F83088042106A8FFF764FD48F00103F6
:10071800C5F83038D5F84088042106A8FFF75AFDF7
:1007280048F40033C5F840382568082106A845F084
:10073800A005FFF74FFD2560E568042106A845F0F0
:100748004005FFF747FDE5601821604DD4F820808B
:100758000DEB0100FFF73EFD0FCD06AC0FC495E889
:100768000300334684E80300324606A8012450F803
:10077800041B013204FA01F1062A43EA0103F6D107
:100788004F4D4FF0402643EA08032B624FF4D073D5
:10079800C6F808344E4BDC6844F400540C2106A813
:1007A80044F00C04FFF716FDC6F80C44424CD4F88C
:1007B8004468042106A846F48056FFF70BFDC4F8E8
:1007C8004468D4F83068042106A846F00106FFF70B
:1007D80001FDC4F830682C680C2106A844F42844AC
:1007E800FFF7F8FC2C6018212E6A3A4D0DEB01003A
:1007F800FFF7F0FC0FCD06AC0FC495E8030000230B
:1008080084E803001A4606A8012450F8041B0132A4
:1008180004FA01F1062A43EA0103F6D1284A2E4DCB
:100828003343182113620DEB01009668FFF7D2FCE1
:100838000FCD06AC0FC495E80300002384E803003D
:100848001A4606A8012450F8041B013204FA01F1E3
:10085800062A43EA0103F6D1194CDFF85C803343DA
:10086800A360E568082106A845F4C055FFF7B2FC67
:10087800E5601A4D2E68042106A846F00406FFF725
:10088800A9FC2E602E68042106A846F01006FFF782
:10089800A1FC2E602E68082106A846F44076FFF7D2
:1008A80099FC2E602E68042106A846F0400617E041
:1008B800100000201F0200080030024010600100F4
:1008C80000000240FF76010000ED00E0C80F0008BC
:1008D80000440040E00F0008F80F00080030014015
:1008E800FFF778FC2E60D8F84068042106A846F087
:1008F8000206FFF76FFCC8F840684FF080460821F1
:10090800D6F8009406A8FFF765FC49F08103C6F8FD
:100918000034D6F80C94042106A8FFF75BFC49F0D4
:100928000103C6F80C34D24B4FF00009C6F82894DE
:1009380083F81D90D8F830A8042106A8FFF74AFCD0
:100948004AF00203C8F83038D4F800A4082106A8F1
:10095800FFF740FC4AF42063C4F80034D4F820A41C
:10096800082106A8FFF736FC4AF40813C4F8203417
:10097800D4F80CA4042106A8FFF72CFC2AF48073F1
:10098800C4F80C34D8F830A8042106A8FFF722FCD4
:100998004AF00403C8F83038D4F80088082106A8BB
:1009A800FFF718FC48F42023C4F80038D4F824884A
:1009B800082106A8FFF70EFC48F02203C4F82438E3
:1009C8004FF40863C6F82094C6F82C3446F668033A
:1009D800C6F81834C6F81C3441F21113C6F820348E
:1009E800D6F81484042106A8FFF7F4FB48F00103A5
:1009F800C6F8143400238DF817302E68042106A891
:100A080046F04006FFF7E6FB2E602E68042106A894
:100A180046F00806FFF7DEFB2E602E6806A80821C0
:100A2800FFF7D8FB46F030064FF480032E60022013
:100A3800C4F81834FFF7C4FB4023C4F818340A2656
:100A4800FF20FFF7E5FB013EFAD14FF064084FF4B1
:100A580080069DF81710002900F0A980C4F81864D2
:100A68000DF117024FF4D5710820FFF7E7FB9DF849
:100A780017305B0740F1B48001233B734023C4F86F
:100A88001864C4F818347B4C2568042106A825F09E
:100A98000805FFF79FFB25602568042106A845F097
:100AA8001005FFF797FB25602568042106A825F0A7
:100AB8002005FFF78FFB25600020FFF7ECFB4FF4C4
:100AC800E370FFF725FC0DF1180845460024FFF7F1
:100AD800FFFB0134042C05F8010BF8D106980090AF
:100AE800FFF71FFC0098FFF7D6FB06AD0024FFF7C1
:100AF800EFFB0134202C05F8010BF8D1BDF82330A9
:100B0800BDF82E40BDF82960A7F846309DF825307D
:100B1800BDF826509DF82890DDF834A087F84830B5
:100B2800A7F84A60002C00F0AB80554404FB095438
:100B380076017C617E87504C00260127FFF7F1FB88
:100B4800BA46B046B146334600973546A268216C8E
:100B580009324FF4806B4FF0806CD4F808E072458E
:100B6800C0F2A280002900F0A380B045434806F1F6
:100B7800010676B2D4BFC0F818C4C0F818B47D2EE8
:100B880008BF0026E9E7D4F80858082106A825F088
:100B98000305FFF71FFBC4F80858D4F808580821C4
:100BA80006A8FFF717FB15F00C0FF6D103E5022096
:100BB800FFF706FB0220C4F81864FFF701FB0DF1EC
:100BC80017020846FFF73AFB4023B8F10108C4F8BA
:100BD80018347FF43EAF4FF47A70FFF7F1FA09E763
:100BE8000426FFF716FB013E8DF81700F9D14023C4
:100BF800AA28C4F8183438D14FF48003C4F818343C
:100C08000DF1170200213720FFF718FB4FF0804144
:100C18000DF117022920FFF711FB9DF81710002985
:100C2800EED10DF117023A20FFF708FBFFF7F1FAB2
:100C380080F04000C0F380103873FFF7EAFA8DF8AF
:100C48001700FFF7E6FA8DF81700FFF7E2FA0DF143
:100C580017028DF817004FF400711020FFF7EEFA15
:100C6800064B4022C3F818240DE7C4F81834B2E73D
:100C780000E400E0003001401000002000000240C5
:100C8800012387F83830FFF723FBFFF721FBFFF735
:100C98001FFBFFF71DFBFFF71BFB0134042C08F8B3
:100CA800010BF8D1069C40E711B1002B00F001813F
:100CB8004FF0E0234FF00052C3F88021002384F85E
:100CC8004430FFF72EFBB4F84C3013B12033A4F8AE
:100CD8004C30B4F84CB05846FFF740FB237EE52B68
:100CE80018D0002BF3D0A3F14202122A17D994F896
:100CF800201057290BD194F82120412A07D194F8C4
:100D08002230562B03D194F82300202817D0B4F8AA
:100D18004C30DBE70BF12000A4F84C00D9E794F83D
:100D2800232002F00F020F2AE1D1403BDBB20BEB8C
:100D3800431080B2A4F84C00FFF710FBD7E7207EE1
:100D48008DF81800607E8DF81900A07E8DF81A00C5
:100D5800E07E8DF81B00207F8DF81C00607F8DF8E9
:100D68001D00A07F8DF81E00E07F8DF81F002E204B
:100D78008DF820008DF823300A2000238DF82110EB
:100D88008DF822208DF82430FFF702FA0DF1180BA8
:100D98001BF8010B002840F0AE8094F8382032B1DF
:100DA80094F82D2094F82C00120602EB004294F8D7
:100DB800363094F8351094F832C094F83300B4F80B
:100DC8004AE01B0403EB012394F83410ACF1020C45
:100DD8000CEB002C0B44B4F8460094F8371003EBE6
:100DE800016B411E01EB4E11B1FBF0F16069C4F8D3
:100DF80050B0084494F84810624401FB0200606552
:100E0800FFF749FAABF548435B0A16202364FFF75E
:100E18007FFAFFF75DFADFF848B18BF80800FFF7B3
:100E280057FAFFF755FA0190FFF752FA0390FFF7C8
:100E38004FFA0290FFF74CFA029B0399019A1B04A0
:100E480003EB0123134403EB00610620CBF80C10DD
:100E58000191FFF75DFAFFF73BFA8BF800000920D4
:100E6800FFF756FA4FF080430020C3F82004019999
:100E78003948B0FBF1F1C3F82C1441F21111C3F851
:100E88002014DBF80C304BF67F318B4294BF0B23D8
:100E98000A23083B84F83C304FF4EA73CBF804305B
:100EA8004FF0E0234FF00052C3F80021012384F8EB
:100EB8004430B8444FFA88F8B8F17D0F1EDDCAF106
:100EC80000077FB2254A94F84430D2F810280098D9
:100ED800002B02F40051C2F340320CBF4FF0030A5A
:100EE8004FF0010A90420ED071B10B3DADB2762D94
:100EF80023D9002510E0FFF74BF949E7B8F1000FB7
:100F080008BF5746DEE709B901352DB2782D03DD54
:100F180023B1B9F1000F04D000231AE0B9F1000F92
:100F280017D14FF0E0234FF00051C3F88011002390
:100F380084F844304FF001090BE04BB94FF0E02141
:100F48004FF00050C1F80001012184F8441099467F
:100F580000250092FAE500BF00D8B805000002405D
:100F680000000020DFF82CD0002103E00A4B5B587A
:100F78004350043109480A4B42189A42F6D3094AA9
:100F880002E0002342F8043B074B9A42F9D3FFF7EB
:100F9800F7FA704700000220101000080000002037
:100FA800100000201000002068000020FEE7024426
:100FB8000346934200D1704703F8011BF9E700008C
:100FC80008000000090000000A0000000C000000F2
:100FD8000D0000000E0000001400000016000000C4
:100FE800180000001A0000001C0000001E0000008D
:100FF8000A0000000B0000000C0000000D000000BB
:081008000E0000000F000000C3
:1010100008000000000200000200000044AC0000D4
:0400000508000F6D73
:00000001FF
