:020000040800F2
:10000000008001201D02000865020008650200084A
:100010006502000865020008650200080000000093
:100020000000000000000000000000006502000861
:10003000650200080000000065020008F9020008DF
:1000400065020008650200086502000865020008F4
:1000500065020008650200086502000865020008E4
:1000600065020008650200086502000865020008D4
:1000700065020008650200086502000865020008C4
:100080006502000865020008650200080000000023
:1000900000000000000000000000000065020008F1
:1000A0006502000865020008650200086502000894
:1000B00065020008150600086502000865020008D0
:1000C0006502000865020008650200086502000874
:1000D00065020008650200086502000800000000D3
:1000E00065020008650200086502000800000000C3
:1000F0000000000000000000000000006502000891
:1001000000000000650200086502000865020008A2
:1001100000000000000000000000000000000000DF
:100120006502000865020008650200086502000813
:100130006502000800000000000000000000000050
:100140000000000000000000000000006502000840
:1001500065020008650200086502000865020008E3
:1001600065020008650200080000000000000000B1
:10017000000000000000000000000000000000007F
:100180000000000065020008000000000000000000
:0401900065020008FC
:1001940010B5054C237833B9044B13B10448AFF3BD
:1001A40000800123237010BD3C04002000000000E7
:1001B4007812000808B5034B1BB103490348AFF399
:1001C400008008BD000000004004002078120008F0
:1001D4000A2810B5044602D10D20FFF7F9FF074A9B
:1001E40013681BB1591C11601C7010BD044B1B68B3
:1001F400002BFAD02046BDE81040184758040020D0
:100204005C04002010B5441E14F8010F00B910BDA1
:10021400FFF7DEFFF8E70000DFF82CD0002103E051
:100224000A4B5B584350043109480A4B42189A421E
:10023400F6D3094A02E0002342F8043B074B9A42F2
:10024400F9D300F04FFF704700800120E812000846
:10025400000000203C0400203C040020B4040020E2
:10026400FEE770474FF04022D2F800341B06FBD55E
:10027400014B1871704700BF00440040014B024A13
:100284001A6070475C040020690200084FF0804344
:10029400D3F8100400F0010070474FF08042D2F808
:1002A400103423F00103C2F810347047044B20B11A
:1002B4004FF48062C3F8182470474FF08062F9E766
:1002C40000000240024BD3F81008C0F340307047DE
:1002D40000000240024B4FF48002C3F81824704718
:1002E40000000240024B4022C3F81824704700BFAC
:1002F40000000240024A136801331360704700BFD4
:1003040060040020034A1368184413689842FCDC14
:10031400704700BF60040020014B1868704700BF9D
:1003240060040020044B9A689107FCD518739A68FE
:10033400D207FCD5187B704700300140FF20FFF73F
:10034400F1BFFFF7EFBFF8B50D461646044628B3D4
:10035400082814BFFF278727FF20FFF7F2FF04F1C7
:100364004000C0B2FFF7EDFF280EFFF7EAFFC5F328
:100374000740FFF7E6FFC5F30720FFF7E2FFE8B207
:10038400FFF7DFFF3846FFF7DCFF0A24FFF7D6FF4D
:100394000306307001D5013CF8D1F8BD9527DBE7A1
:1003A40013B500238DF807300B4B04461860FFF794
:1003B40091FF0A4B1B78012B08BF64020DF1070261
:1003C40021461220FFF7BFFF054A00231380054A88
:1003D400138002B010BD00BF6C040020660400202E
:1003E400640400206804002038B50F4C23881BB92E
:1003F400FFF7A4FFFE28FBD1FFF7A0FF23880133FA
:100404009BB2B3F5007F054602D02380284638BD51
:10041400064A00232380138801331380FFF78EFFDD
:10042400FFF78CFFF2E700BF64040020680400209B
:1004340038B505460024AC4203D0FFF7D5FF01349C
:10044400F9E738BD13B500238DF80730FFF742FFF5
:1004540004240DF1070200210C20FFF774FF013C76
:10046400F7D1FFF73FFF02B010BD08B5FFF7EAFF71
:10047400BDE80840FFF736BF2DE9F843114BDFF81C
:100484004C90DFF84C8005461868FFF789FF00247C
:100494000D4F0026FFF7A8FF0136202E07F8010BA9
:1004A400F8D1AC4203D1BDE8F843FFF7DEBF99F8B9
:1004B40000302034A4B2002BEAD1B8F80030A342B3
:1004C400E6D8F0E79C04002075040020A004002076
:1004D400A604002030B5454D2B8885B00BB12033E0
:1004E4002B80434C2888FFF7C7FF2378E52B12D0D5
:1004F4000BB92B80F6E7A3F14202122A0ED9217A16
:10050400572908D1627A412A05D1A37A562B02D100
:10051400E07A202811D02B882033EAE7E27A02F02F
:100524000F020F2AEBD12888403BDBB200EB4313C8
:1005340098B22880FFF7A0FFE1E720788DF800004B
:1005440060788DF80100A0788DF80200E0788DF8CD
:10055400030020798DF8040060798DF80500A079F6
:100564008DF80600E0798DF807002E208DF808003C
:100574008DF80B300A2000238DF80A208DF80C30FA
:100584008DF80910FFF724FE6846FFF73BFE194B70
:100594001A7822B1627D237D120602EB0342A07E0B
:1005A400E37EA17F023800EB0320637F090401EBA3
:1005B4000321237F1944E37F01EB03610E4B196090
:1005C4000E4B19880E4B1C884B1E03EB4413B3FBD4
:1005D400F1F30C4909680B440B490978024401FB07
:1005E40002330A4A136005B030BD00BFA8040020DE
:1005F40075040020A004002098040020A204002018
:10060400A40400209C040020740400207004002032
:1006140038B5FFF73BFE00286CD0644A644B4FF4B6
:10062400807191611B78102B6CD0A2F550429368B5
:100634009907FCD5FF215F4B11739A68D207FCD54B
:100644005D485E4C1A7B016823784C1E022B0460C3
:100654005FFA82FC7BD000236446194641EA0C22EF
:10066400574943EA042309789BB28A408B404FF0F0
:100674008041140AC1F83844D2B21C0ADBB2C1F872
:100684004024C1F83444C1F83C340368002B31D110
:10069400484A93689907FCD5FF21464B11739A6821
:1006A400D207FCD51B7B434A93689D07FCD5FF21E9
:1006B400404B11739A68D407FCD5424A1B7B1468DB
:1006C4003C4B4FF40071013C01601460FF219A68B7
:1006D4009007FCD519739A68D207FCD51A7BFE2AB9
:1006E400F5D13CB9384B4FF0E0224FF00051C2F83D
:1006F40080111C702D4B4FF080729A61BDE8384018
:10070400FFF7CBBD2B4A93689D07FCD5FF21294BEE
:1007140011739A68D407FCD5197B264AC9B2936829
:100724009807FCD5FF20234B10739A68D207FCD599
:1007340021481A7B0468A31E0360204B1B78022BFC
:1007440082F0800C13D089B20B46644686E7194BBD
:100754009A689507FCD5FF221A73164B9A68D4073A
:10076400FCD51C7B02390023E4B2016075E7114B10
:100774009A689507FCD5FF221A730E4B9A68D20724
:10078400FCD51B7BDAB20B4B9D68AD07FCD5FF256E
:100794001D73084B9D68ED07FCD51B7B043C04606E
:1007A40089B283F0800493B258E700BF000002408E
:1007B400010000200030014008000020000000205B
:1007C400AA040020AC040020AB0400200A46002147
:1007D40000F08EBC37B50B4CA56804210DEB01006D
:1007E400FFF7F4FFAA07F7D5FF232373054CA56889
:1007F40004210DEB0100FFF7E9FFEB07F7D5207BA0
:1008040003B030BD00300140FFF7E4BF4FF0E022F9
:100814002DE9F04FD2F8883DC84C43F46053C2F838
:10082400883D0223C4F8003CD4F808588FB0042152
:1008340006A8FFF7CBFFAD0712D5D4F80858082156
:1008440006A825F00305FFF7C1FFC4F80858D4F83B
:100854000858082106A8FFF7B9FF15F00C0FF6D1C8
:10086400B64CD4F80058042106A825F08075FFF78B
:10087400ADFFC4F80058D4F8005806A80421FFF7C7
:10088400A5FFA801F7D4AE4BC4F80438D4F8005837
:10089400042106A845F08075FFF798FFC4F80058B6
:1008A400A64CD4F80058042106A8FFF78FFFA9012D
:1008B400F7D54FF48053C4F80838D4F80858042105
:1008C40045F0020506A8FFF781FFC4F808589B4DC0
:1008D400D5F80848042106A8FFF778FF2207F7D5C2
:1008E400D5F83048042106A844F00104FFF76EFF50
:1008F400C5F83048934C2668042106A846F480368F
:10090400FFF764FF2660D5F83068042106A846F096
:100914000406FFF75BFFC5F83068D4F800680821C7
:1009240006A826F04066FFF751FFC4F80068D5F822
:100934003068042106A846F00206FFF747FFC5F811
:100944003068D4F80064042106A846F48056FFF702
:100954003DFFC4F80064D5F83068042106A846F0C9
:100964000206FFF733FFC5F83068D4F800640421A9
:1009740006A8FFF72BFF4FF0E023734A46F48016D6
:10098400C4F800645A61714AF02182F823100026E9
:1009940007229E611A61D5F83078042106A847F031
:1009A4000107FFF713FFC5F83078D5F84078042124
:1009B40006A847F40037FFF709FFC5F84078256813
:1009C400082106A845F0A005FFF700FF2560E568AB
:1009D400042106A845F04005FFF7F8FEE56018215C
:1009E4005B4D276A0DEB0100FFF7F0FE0FCD06AC5F
:1009F4000FC495E80300334684E80300324606A892
:100A0400012450F8041B013204FA01F1062A43EAD6
:100A14000103F6D14B4D4FF040263B432B624FF47C
:100A2400B673C6F808344B4BDC6844F400540C210C
:100A340006A844F00C04FFF7C9FEC6F80C443F4C6A
:100A4400D4F84468042106A846F48056FFF7BEFE95
:100A5400C4F84468D4F83068042106A846F00106B6
:100A6400FFF7B4FEC4F830682C680C2106A844F4DF
:100A74002844FFF7ABFE2C6018212E6A364D0DEB8F
:100A84000100FFF7A3FE0FCD06AC0FC495E80300E9
:100A9400002384E803001A4606A8012450F8041B26
:100AA400013204FA01F1062A43EA0103F6D1254A88
:100AB4002A4D3343182113620DEB01009668FFF7AA
:100AC40085FE0FCD06AC0FC495E80300002384E82F
:100AD40003001A4606A8012450F8041B013204FA44
:100AE40001F1062A43EA0103F6D1164D134F3343AD
:100AF400AB60EC68082106A844F4C054FFF766FE16
:100B0400EC60174C2668042106A846F00406FFF79B
:100B14005DFE26602668042106A846F01006FFF74D
:100B240055FE26602668082106A846F44076FFF79D
:100B34004DFE26602668042114E000BF0030024008
:100B440010540100000002401F48010000ED00E0C5
:100B54009012000800440040A8120008C0120008C7
:100B64000030014006A846F04006FFF72FFE26603D
:100B7400D7F84068042106A846F00206FFF726FECF
:100B8400C7F840684FF080460821D6F8008406A8CC
:100B9400FFF71CFE48F08103C6F80034D6F80C8435
:100BA400042106A8FFF712FE48F00103C6F80C342E
:100BB400D04B4FF00008C6F8288483F81D80D7F87E
:100BC4003098042106A8FFF701FE49F00203C7F894
:100BD4003038D5F80094082106A8FFF7F7FD49F44A
:100BE4002063C5F80034D5F82094082106A8FFF73F
:100BF400EDFD49F40813C5F82034D5F80C9404210C
:100C040006A8FFF7E3FD29F48073C5F80C34D7F880
:100C14003098042106A8FFF7D9FD49F00403C7F86A
:100C24003038D5F80078082106A847F42027FFF7C4
:100C3400CDFDC5F80078D5F82478082106A8FFF77B
:100C4400C5FD47F022074FF4EE63C5F82478C6F8D3
:100C54002084C6F82C3446F66803C6F81834C6F85F
:100C64001C3441F21113C6F82034D6F8145404216C
:100C740006A845F00105FFF7A9FDC6F81454FFF7CF
:100C8400F0FA8DF817802568042106A845F0400580
:100C9400FFF79CFD25602568042106A845F008059A
:100CA400FFF794FD25602568082106A845F0300566
:100CB400FFF78CFD2560FFF70DFB0220FFF722FBF9
:100CC400FFF710FB0A25FFF785FD013DFBD16425E5
:100CD4009DF81760002E00F0AB80FFF7FBFA0DF1D2
:100CE40017024FF4D5710820FFF72DFB9DF817303C
:100CF4005B0740F1B880804B01221A70FFF7EAFAD3
:100D04007E4CFFF7EFFA2568042106A825F00805B4
:100D1400FFF75CFD25602568042106A845F0100551
:100D2400FFF754FD25602568042106A825F0200559
:100D3400FFF74CFD25600020FFF732FB4FF4E37012
:100D4400FFF776FB06AF3D460024FFF74DFB013469
:100D5400042C05F8010BF8D106980090FFF785FBE9
:100D64000098FFF71DFB06AD0024FFF73DFB01349F
:100D7400202C05F8010BF8D1614BBDF823201A8013
:100D8400604B9DF82520604EBDF82E401A70BDF8CA
:100D94002930BDF826509DF82880DDF83490338042
:100DA40094B95A4B01221A70FFF71EFBFFF71CFB84
:100DB400FFF71AFBFFF718FBFFF716FB0134042CAF
:100DC40007F8010BF8D1069C514B524A4D4404FBE1
:100DD40008541C603388DFF8448100245B01012639
:100DE40013802746FFF741FBA146FFF73AFA254651
:100DF400009602940196FFF78FFADFF824B100F110
:100E0400090AFFF789FA504500F38C80DBF80030BB
:100E1400002B00F08780A74204F10104D4BF002016
:100E2400012064B2FFF742FA7D2C08BF0024E8E7F2
:100E34000220FFF767FAFFF74DFA0220FFF762FA84
:100E44000DF1170231463046FFF77DFAFFF74AFAF3
:100E5400013D7FF43DAF304B01221A704FF47A709C
:100E6400FFF750FA0DE70425FFF7CEFC013D8DF89E
:100E74001700F9D1FFF736FA9DF81730AA2B33D1B2
:100E8400FFF728FA0DF1170200213720FFF75BFA6C
:100E94004FF080410DF117022920FFF754FA9DF815
:100EA40017100029EED10DF117023A20FFF74BFA83
:100EB400FFF7AAFC104B80F04000C0F380101870BC
:100EC400FFF7A2FC8DF81700FFF79EFC8DF81700C2
:100ED400FFF79AFC0DF117028DF817004FF400711B
:100EE4001020FFF730FA0BE70B4B01221A70FFF7C3
:100EF400F9F9B3E700E400E06604002000300140A3
:100F0400A204002074040020A4040020A0040020F3
:100F14009C040020A604002067040020AB040020E9
:100F2400AC040020DBF8003013B1B9F1000F5DD040
:100F34004FF0E02B4FF00051CBF88011002288F8DD
:100F44000020FFF792FAFFF7C5FA514B1868FFF734
:100F540027FA504B50481B68A3F548435B0A0360CB
:100F64001620FFF765FAFFF73FFA4C4B1870FFF7AE
:100F74003BFAFFF739FA0390FFF736FA8246FFF798
:100F840033FA81464FEA0949FFF72EFA039B444A94
:100F940009EB0A2A534403EB006306201360FFF7AE
:100FA40047FAFFF721FA3F4B18700920FFF740FA80
:100FB4003B4A4FF0804310680022C3F820243A4A89
:100FC400B2FBF0F041F21112C3F82C04C3F8202450
:100FD400364B02221A70364B4FF4EA721A604FF005
:100FE40000510123CBF8001188F8003037447FB258
:100FF4007D2F009B2FDD5E4276B298F80030002BE7
:101004000CBF032301230093FFF75CF9019B984273
:1010140025D030B3A5F10B091FFA89F9B9F1760F80
:101024008CBF4FF000094FF001090025029B98F88E
:101034000020F2B9B9F1000F1BD04FF0E0234FF0BC
:101044000051C3F80011012388F80030914613467B
:10105400CDE90103CFE6002F08BF1E46CDE7019B73
:101064000BB901352DB2782D4FF00009DEDD0123D7
:10107400DDE7029A9A42EBD0002BE9D04FF0E02250
:101084004FF00051C2F88011002288F80020DFE7F9
:101094007004002098040020AC040020000000200C
:1010A400040000200100002000BD0105AA04002066
:1010B40008000020FFF7E2B8FFF7A8BB82B0024B9C
:1010C4000193019B02B01847B910000807B5FFF758
:1010D400F5FF034B0193019B03B05DF804EB184744
:1010E400BD10000808B5FFF7F1FF002008BD00009F
:1010F400830730B548D0541E002A3FD0CAB20346F5
:1011040001E0013C3AD303F8012B9D07F9D1032CEC
:101114002DD9CDB245EA05250F2C45EA054536D92A
:10112400A4F1100222F00F0C03F1200EE6444FEA62
:10113400121C03F1100242E9045542E9025510322F
:101144007245F8D10CF1010214F00C0F03EB0212FA
:1011540004F00F0C13D0ACF1040323F003030433A5
:10116400134442F8045B9342FBD10CF003042CB10A
:10117400CAB21C4403F8012B9C42FBD130BD644627
:101184001346002CF4D1F9E703461446BFE71A4688
:10119400A446E0E7024B13B1024800F005B87047DB
:1011A40000000000B9110008002301461A46184641
:1011B40000F01AB838B5084B084D5B1B9C1007D0DB
:1011C400043B1D44013C55F804399847002CF9D1DF
:1011D400BDE8384000F054B8E8120008E4120008F2
:1011E400704700BF704700BF2DE9F047DFF880A0CB
:1011F4000646DAF8000098460F469146FFF7F0FFDE
:101204001A4B1B68D3F8484124B365681F2D26DCAC
:101214005EB96B1C0235DAF80000636044F825708F
:10122400FFF7E0FF0020BDE8F08704EB8501012310
:10123400C1F88890D4F88821AB401A43022EC4F830
:101244008821C1F80881E4D1D4F88C211343C4F86F
:101254008C31DEE703F5A674C3F84841D5E7DAF824
:101264000000FFF7BFFF4FF0FF30DCE7D8120008A3
:1012740038040020F8B500BFF8BC08BC9E4670478F
:0C128400F8B500BFF8BC08BC9E467047DF
:1012900008000000090000000A0000000C00000027
:1012A0000D0000000E0000001400000016000000F9
:1012B000180000001A0000001C0000001E000000C2
:1012C0000A0000000B0000000C0000000D000000F0
:0C12D0000E0000000F00000010000020C5
:0812DC0099110008B901000896
:0412E4009501000868
:1012E8000208000044AC00000002000000000000FA
:1012F80000000000FC02002064030020CC03002052
:1013080000000000000000000000000000000000D5
:1013180000000000000000000000000000000000C5
:1013280000000000000000000000000000000000B5
:1013380000000000000000000000000000000000A5
:101348000000000000000000000000000000000095
:101358000000000000000000000000000000000085
:101368000000000000000000000000000000000075
:101378000000000000000000000000000000000065
:101388000000000000000000000000000000000055
:101398000000000000000000010000000000000044
:1013A8000E33CDAB34126DE6ECDE05000B00000009
:1013B8000000000000000000000000000000000025
:1013C8000000000000000000000000000000000015
:1013D8000000000000000000000000000000000005
:1013E80000000000000000000000000000000000F5
:0C1718000000000000000000B0040020F1
:040000050800021DD0
:00000001FF
