:020000040800F2
:1000000000400120591100089911000899110008B9
:1000100099110008991100089911000800000000CA
:10002000000000000000000000000000991100081E
:100030009911000800000000991100088D030008C4
:1000400099110008991100089911000899110008E8
:1000500099110008991100089911000899110008D8
:1000600099110008991100089911000899110008C8
:1000700099110008991100089911000899110008B8
:1000800099110008991100089911000899110008A8
:100090009911000899110008991100089911000898
:1000A0009911000899110008991100089911000888
:1000B000991100089D030008991100089911000882
:1000C0009911000899110008991100089911000868
:1000D0009911000899110008991100089911000858
:1000E0009911000899110008991100089911000848
:1000F00099110008000000009911000899110008EA
:100100009911000899110008991100089911000827
:1001100099110008991100089911000800000000C9
:10012000991100080000000000000000000000001D
:0C01300000000000000000005FF808F173
:10013C0010B504000A2802D10D20FFF7F9FF084B77
:10014C001A68002A05D0511C1960147010BC01BC2F
:10015C0000475B68002BF9D0200000F00FFAF5E7A0
:10016C0010000020034A93681B1891688B42FCDC3A
:10017C007047C0461000002010B50A00002101F0A5
:10018C0007F810BC01BC0047F7B5050002260A4C65
:10019C00A768042101A8FFF7EFFF3742F7D02573BA
:1001AC000125A668042101A8FFF7E6FF2E42F8D02E
:1001BC00207BFEBC02BC08470030014010B5FFF7A5
:1001CC00E3FF10BC01BC004710B5FF20FFF7DCFFBC
:1001DC0010BC02BC084773B504008025064B1E6892
:1001EC00042101A8FFF7C8FF2E42F7D0034B1C7067
:1001FC0073BC01BC0047C0460044004004440040AE
:10020C00F8B504000D0016009527002803D06A37B6
:10021C00082800D1783FFF20FFF7D0FF20004030A6
:10022C000006000EFFF7CAFF280EFFF7C7FF280CC9
:10023C000006000EFFF7C2FF280A0006000EFFF7AB
:10024C00BDFF2806000EFFF7B9FF3800FFF7B6FF19
:10025C000A24FFF7B9FF3070000602D5013C002CD0
:10026C00F7D1F8BC01BC004713B56B46DA1D00236F
:10027C00010040201370084B084C9862237B012B23
:10028C0000D149021220FFF7BBFF0023E381238238
:10029C0013BC01BC0047C046000402401000002003
:1002AC0070B5104DEC89002C03D1FFF78DFFFE28A3
:1002BC00FBD1FFF789FF8022013424040600240CB3
:1002CC009200944204D0EC81300070BC02BC084710
:1002DC000023EB812B8A01332B82FFF775FFFFF78D
:1002EC0073FFF1E71000002070B505000024013405
:1002FC002404FFF7D5FF240CA542F8D170BC01BC37
:10030C00004773B56B46DE1D00230425084C337083
:10031C004033A362320000210C20013DFFF770FF37
:10032C00002DF7D14023A361A36173BC01BC00472E
:10033C0000040240F8B5114D07006869FFF794FFFF
:10034C0000240026FFF7ACFF2B001833985501361C
:10035C00202EF7D1A74204D1FFF7D3FFF8BC01BC84
:10036C0000472B00383320341B782404240C002B3A
:10037C00E7D16B8FA342E4D8EEE7C0461000002013
:10038C00024A9368013393607047C0461000002006
:10039C00F0B5704B83B01C68042101A8FFF7ECFE8C
:1003AC00E30772D580236C4A5B006C4993610B7830
:1003BC000220102B00D179E0694B9A681042FCD0D6
:1003CC00FF2201201A73664B9A681042FCD04D68CC
:1003DC00187B0B7A6A1E04004A60022B00D189E05C
:1003EC0000230022000202433C20240223435D4CE4
:1003FC00205C1B0482401B0C8340FF205A4DAC46F2
:10040C005A4F160A4D683E60594E02403260594AA6
:10041C0018401B0A136063461860002D35D102206A
:10042C004F4B9A681042FCD0FF2201201A734C4BA0
:10043C009A681042FCD002201B7B494B9A681042F0
:10044C00FCD0FF2201201A73454B9A681042FCD055
:10045C001B7B80239B004B60FF2502210120266C17
:10046C00013E3F4B26649A681142FCD01D739A687A
:10047C001042FCD01A7BFE2AF5D1002E05D1802328
:10048C003D4A9B0513604423E6548023324A5B00AB
:10049C009362304D042101A82C68FFF76DFE0123F7
:1004AC009C432C6003B0F0BC01BC00472C4B9A68F9
:1004BC001042FCD0FF2201201A73294B9A6810427B
:1004CC00FCD002241A7B264B98680442FCD0FF20F7
:1004DC0001241873224B98680442FCD0187B8023AB
:1004EC004D6858400B7AAC1E4C60022B12D00400A5
:1004FC00130077E702241A4B9A681442FCD0FF22AF
:10050C0001241A73164B9A681442FCD0023D1C7BD2
:10051C004D6065E70226124B9C682642FCD0FF24F6
:10052C0001261C730E4B9C682642FCD002271B7BB9
:10053C000B4CA6683742FCD0FF2601272673084CCB
:10054C00A6683742FCD0043D247B4D6080256C406E
:10055C0048E7C046100400400000024000000020A4
:10056C0000300140100000203C04004038040040E2
:10057C00400400403404004080E100E01847C046CD
:10058C00012051E21EFF2F013600003A010050E11C
:10059C002200009A020011E12300000A0E0211E36E
:1005AC008111A0010830A0030130A013010251E316
:1005BC00000051310112A0310332A031FAFFFF3A91
:1005CC00020151E3000051318110A0318330A03180
:1005DC00FAFFFF3A0020A0E3010050E101004020A7
:1005EC0003208221A10050E1A1004020A320822100
:1005FC00210150E12101402023218221A10150E160
:10060C00A1014020A3218221000050E32332B0112C
:10061C002112A011EFFFFF1A0200A0E11EFF2FE133
:10062C000100A0030000A0131EFF2FE1010851E3FD
:10063C002118A0211020A0230020A033010C51E38D
:10064C002114A02108208222100051E32112A021A4
:10065C0004208222040051E303208282A120829094
:10066C003002A0E11EFF2FE1000050E30000E01378
:10067C00070000EA000051E3FAFFFF0A03402DE9EE
:10068C00BEFFFFEB0640BDE8920003E0031041E023
:10069C001EFF2FE11EFF2FE1F0B50425F54CF64BA4
:1006AC00F64A266893B00AAF042138005A602E43EC
:1006BC00FFF762FD2660266829003800FFF75CFD15
:1006CC002E42F8D001262568042138003543FFF767
:1006DC0053FD2560256804213800FFF74DFD354298
:1006EC00F8D0042138002568FFF746FD02231D438E
:1006FC002560E34D042138002C68FFF73DFD802375
:10070C005B051C432C60DF4C042138002568FFF787
:10071C0033FD80231B011D4325600421380025680F
:10072C00FFF72AFDD84B1D402560D84D2C680421BD
:10073C0038003443FFF720FD2C60042138002C686E
:10074C00FFF71AFD02231C42F7D0D14C04213800CC
:10075C002668FFF711FD80235B011E432660CD4CFC
:10076C00042138002668FFF707FD80231B031E4376
:10077C002660042138002668FFF7FEFC80231B044A
:10078C001E432660042138002E68FFF7F5FC8023F9
:10079C005B041E432E608026B6042B6804213800AF
:1007AC000093FFF7E9FC009B3342F6D00821380098
:1007BC002568FFF7E1FC03232B430C2523602668F7
:1007CC0008213800FFF7D8FC2E42F8D0B24E042195
:1007DC0038003468FFF7D0FC01231C433460AF4D64
:1007EC00042138002C68FFF7C7FC80235B021C43F4
:1007FC002C6004243568042125433800FFF7BCFC29
:10080C003560A74938000D680821FFF7B5FCA54BEA
:10081C00A3491D400D60380021003568FFF7ACFC82
:10082C0002210D43356080259F4B21001E68380046
:10083C00FFF7A2FC6D019C4B2E431E609B482100D0
:10084C0006683800FFF798FC984835430560924ECF
:10085C00210038003568FFF78FFC02210D43924AC6
:10086C0035602100380016001568FFF785FC8023E1
:10087C005B031D438E4A8F4B35601A60F0220026B5
:10088C008D4B1A708D4B1E608D4BE93A1A607C496A
:10089C0038000D682100FFF76FFC802378499B021C
:1008AC001D430D607C4B210038001D68FFF764FC74
:1008BC000122794B15431D60784D082138002D68B5
:1008CC00FFF75AFCA0231D43744B1D607D4B210088
:1008DC0038001D68FFF750FC40231D43794B1D6009
:1008EC00794B182138001D68FFF746FC3B00774A0E
:1008FC0013CA13C313CA13C333000AAC01219A00E1
:10090C001259914001330E43062BF7D116232E4377
:10091C006D4F6F4DFF333E60AB600C212000EE68D5
:10092C00FFF72AFC6B4B1E43EE606B4D042120003D
:10093C002E68FFF721FC80235B011E432E60564E70
:10094C00042120003568FFF717FC01231D43356097
:10095C00524E0C2120003568FFF70EFCA8231B0219
:10096C001D432000356018213D68FFF705FC22006F
:10097C00564B183343CB43C243CB43C20023012015
:10098C001A000600910061588E4001323343062A4A
:10099C00F7D14D4A2B431360504D182120002E687F
:1009AC00FFF7EAFB2200494B303383CB83C283CB66
:1009BC0083C200231A000120910061588840013243
:1009CC000343062AF7D133432B603E4E0821200007
:1009DC003568FFF7D1FBC0235B011D43356004254F
:1009EC003F4F3E68042120002E43FFF7C5FB3E60BD
:1009FC00290020003E68FFF7BFFB10231E433E601A
:100A0C00082120003E68FFF7B7FBC0239B001E4364
:100A1C003E60290020003E68FFF7AEFB40231E43DA
:100A2C003E60174F290020003E68FFF7A5FB02230C
:100A3C001E433E602B4E082120003768FFF79CFBBD
:100A4C0081233B433360284E290020003768FFF791
:100A5C0093FB01223A4332600022244B1A60244B50
:100A6C000D4F1A70290020003E68FFF785FB02230A
:100A7C0040E0C046003C024010000020E3010008AA
:100A8C002438024000700040FFEFFFFF00380240A6
:100A9C0004380240083802401C3802400000024072
:100AAC0000080240FFFFFFF3000402400C04024068
:100ABC00FF7C000014E000E023ED00E018E000E013
:100ACC0010E000E00C00024020000240B4110008CD
:100ADC00004400400C200000203802400800024076
:100AEC0000300140000400400C0400402804004089
:100AFC001DE400E01E433E60DE4920000F000E683E
:100B0C000821FFF739FBA0231B011E433E60DA4E80
:100B1C00082120003768FFF72FFB88239B033B43FA
:100B2C00D64F3360290020003E68FFF725FBD44BDD
:100B3C001E403E60290020003E68FFF71DFBD14B94
:100B4C001E40D14B3E601F001E68290020002E4322
:100B5C00FFF712FBCD4B3E60082120001F001E68E2
:100B6C00FFF70AFBA0231B031E433E60C84E08215F
:100B7C0020003768FFF700FB22231F433760BF4F6D
:100B8C00290020003E68FFF7F7FAC24B1E403E607A
:100B9C00290020003E68FFF7EFFA0022BE4BBF4948
:100BAC001E403E60BE4B0A60BE4A1360BE4BBF4A3D
:100BBC001360BF4A1360BF4BBF4F0B60200029006E
:100BCC003E68FFF7D9FA01231E433E6008ABDC1DDB
:100BDC000023BA4F0AAD2370042128003E68FFF7AA
:100BEC00CBFA40231E433E60082128003E68FFF7E5
:100BFC00C3FA282216439F4A3E604026170096628D
:100C0C000220FFF7AFFABE61363EFF20013EFFF730
:100C1C00D5FA002EF9D164362778002F00D18FE059
:100C2C004022D5210426934B08209A6249002200C9
:100C3C00FFF7E6FA2378334200D19BE00122A04B68
:100C4C001A738C4B3F329A629A619C4E0C2128008D
:100C5C003468FFF791FA38239C4300203460FFF787
:100C6C0003FBE3204000FFF73FFB0024FFF718FBDA
:100C7C0028550134042CF9D10A9CFFF742FB2000C3
:100C8C00FFF7F2FA0024FFF70BFB28550134202C58
:100C9C00F9D113228A4F390008ABD2185378107847
:100CAC001B0203430831CB873B006A7B48331A7025
:100CBC00EB8900932B7C0193192308AA9B181A78B3
:100CCC005E783B0036024A3316431E80EC8A119B39
:100CDC000293002C00D18CE0019B6343029A944652
:100CEC001C00009B6344E41876017C617E87FFF74F
:100CFC0008FB012301220593039300230692029320
:100D0C000193049300936E4A9168146C09319068B6
:100D1C00814200DA86E0002C00D188E00198029D27
:100D2C00A8427ADC80255348ED0085620298013098
:100D3C000006001602907D28E9D100200290E6E71B
:100D4C000220FFF70FFA40224A4B02209A62FFF76B
:100D5C0009FA220039003800FFF752FA4022454BBD
:100D6C00013E9A61002E00D056E7FA208000FFF772
:100D7C00F9F92BE7FFF728FA013E2070002EF9D184
:100D8C0040223C4B9A61AA282FD140228026394B15
:100D9C009A62F605220000213720FFF731FA310064
:100DAC0022002920FFF72CFA21780029F2D1220009
:100DBC003A20FFF725FAFFF707FA0123404A80098A
:100DCC0083431373FFF700FA2070FFF7FDF92070CF
:100DDC00FFF7FAF980212200207089001020FFF71C
:100DEC000FFA4023234A93612FE74022214B9A614B
:100DFC00BBE73B00012238331A70FFF751FAFFF7BB
:100E0C004FFAFFF74DFAFFF74BFAFFF749FA28555F
:100E1C000134042CF9D10A9C5EE780251548ED00BD
:100E2C00856183E7002C02D0002B00D119E18022D0
:100E3C00234C244B92051A602300002244334C347B
:100E4C001A70FFF75EFA2388002B01D02033238021
:100E5C000F271B4D2E004C3634882000FFF76AFA02
:100E6C002B7EE52B03D0002B2ED13380F1E72034E1
:100E7C003480EEE700040240200402400C040240DF
:100E8C00FFFEFFFFFFFBFFFF1C3802400008024083
:100E9C0024080240FFFFFEFFFFFFFBFF2004004081
:100EAC00D50200002C0400406868000018040040C3
:100EBC001C040040111100001404004000300140DB
:100ECC001000002080E100E01A00423A122A16D9E4
:100EDC00944B5A1CD07F57280BD19A1CD17F412997
:100EEC0007D1DA1CD27F562A03D11C1DE47F202C9B
:100EFC0015D08C4B4C331A8820321A80A9E7043554
:100F0C00EA7F3A400F2AE3D1403B1B061B0E5B01E4
:100F1C00E3181804000C3080FFF70CFAD8E71D7E9C
:100F2C000AAC25705D7E65709D7EA570DD7EE570DA
:100F3C001D7F25715D7F65719D7FA571DB7FE371E1
:100F4C002E232372002360720A20A172E272237393
:100F5C00FFF7EEF82078002800D0AFE0714B1A00B4
:100F6C00383212780600002A07D01A002D332C32A2
:100F7C0016781B7836041B06F6186A4C230033339C
:100F8C001878230032331F78230035331D78230063
:100F9C0036331B782D021B04ED18230034331B78D9
:100FAC00ED18230037331B781B06ED18230008338C
:100FBC00D98F230000024A33023FC71918884B1EF1
:100FCC0040012565C018FFF7DBFA6369C0182300E0
:100FDC004833F6191F787E4380196065FFF744F992
:100FEC00514BED1816206D0A2564FFF77DF9FFF7BC
:100FFC0057F94E4F3872FFF753F9FFF751F9079035
:10100C00FFF74EF90500FFF74BF90600FFF748F91B
:10101C003604079B2D02AD19ED1800062D1806207D
:10102C00FD60FFF761F9FFF73BF938700920FFF716
:10103C005BF900233E4E290033603E48FFF7A0FACF
:10104C003D4B18603D4B2200336001233C32137042
:10105C00EA22802152007A60394A890544341160B1
:10106C002370059A9446019B63441B061B1601933F
:10107C007D2B25DD039B5B4205932A4A130003213C
:10108C0044331B780391002B01D00239039180204B
:10109C002C490968800101400800441EA041069CAF
:1010AC00844212D0002912D000990B390904090C82
:1010BC00762928D900230093002331E0013447E737
:1010CC00019B002BD9D1039BD6E7002904D10099B1
:1010DC00013109040914009100997829ECDD002BE9
:1010EC000DD00023049999421AD18021164B890501
:1010FC0019600023443213700122049210E0049909
:10110C000029F2D00CE0002100918B4208D1802400
:10111C000B49A4050C600121443211700493009317
:10112C000690F0E5100000200038FFFF00000020C2
:10113C00200400400048E8012C040040111100007C
:10114C0000E100E01008024080E100E0002103E033
:10115C00094B5B58435004310848094B42189A42DA
:10116C00F6D3084A02E0002342F8043B064B9A42AD
:10117C00F9D3FFF791FA7047FC110008000000202A
:10118C00100000201000002068000020FEE7000086
:10119C000030A0E1022080E0020053E11EFF2F018D
:0811AC000110C3E4FBFFFFEAA0
:1011B40008000000090000000A0000000C00000004
:1011C4000D0000000E0000001400000016000000D6
:1011D400180000001A0000001C0000001E0000009F
:1011E4000A0000000B0000000C0000000D000000CD
:0811F4000E0000000F000000D6
:1011FC0008000000000200000200000044AC0000E7
:040000050800115985
:00000001FF
