:020000040800F2
:1000000000000220910F0008D90F0008D90F000846
:10001000D90F0008D90F0008D90F00080000000010
:10002000000000000000000000000000D90F0008E0
:10003000D90F000800000000D90F0008910D00083A
:10004000D90F0008D90F0008D90F0008D90F0008F0
:10005000D90F0008D90F0008D90F0008D90F0008E0
:10006000D90F0008D90F0008D90F0008D90F0008D0
:10007000D90F0008D90F0008D90F0008D90F0008C0
:10008000D90F0008D90F0008D90F000800000000A0
:10009000000000000000000000000000D90F000870
:1000A000D90F0008D90F0008D90F0008D90F000890
:1000B000D90F0008A10D0008D90F0008D90F0008BA
:1000C000D90F0008D90F0008D90F0008D90F000870
:1000D000D90F0008D90F0008D90F00080000000050
:1000E000D90F0008D90F0008D90F00080000000040
:1000F000000000000000000000000000D90F000810
:1001000000000000D90F0008D90F0008D90F00081F
:1001100000000000000000000000000000000000DF
:10012000D90F0008D90F0008D90F0008D90F00080F
:10013000D90F0008000000000000000000000000CF
:10014000000000000000000000000000D90F0008BF
:10015000D90F0008D90F0008D90F0008D90F0008DF
:10016000D90F0008D90F00080000000000000000AF
:10017000000000000000000000000000000000007F
:1001800000000000D90F000800000000000000007F
:08019000D90F0008D90F000887
:100198000A2810B5044602D10D20FFF7F9FF074BD6
:1001A8001A681AB1511C1960147010BD5B68002BD5
:1001B800FBD02046BDE81040184700BF10000020C3
:1001C800034A9368184493689842FCDC704700BF60
:1001D80010000020014B024A5A60704710000020AE
:1001E8002F0200080A46002100F0F3BE73B50B4D3C
:1001F8000446AE6804210DEB0100FFF7F3FFB207D8
:10020800F7D52C73054CA56804210DEB0100FFF709
:10021800E9FFEB07F7D5207B02B070BD0030014045
:10022800E4E7FF20E2E773B504464FF04026D6F82E
:10023800005404210DEB0100FFF7D4FF2B06F6D57F
:10024800014B1C7102B070BD00440040F8B50D466A
:100258001646044628B3082814BFFF278727FF201F
:10026800FFF7DEFF04F14000C0B2FFF7D9FF280E08
:10027800FFF7D6FFC5F30740FFF7D2FFC5F3072006
:10028800FFF7CEFFE8B2FFF7CBFF3846FFF7C8FF0E
:100298000A24FFF7C6FF0306307001D5013CF8D1E8
:1002A800F8BD9527DBE713B500238DF807300A4B17
:1002B8000A4C4FF48002C3F81824237B012B014613
:1002C8000DF1070208BF41021220FFF7BFFF00230C
:1002D800E381238202B010BD00000240100000201C
:1002E80070B50E4DEC891CB9FFF79BFFFE28FBD1BA
:1002F800FFF797FF0134A4B2B4F5007F064602D099
:10030800EC81304670BD0023EB812B8A01332B82B0
:10031800FFF787FFFFF785FFF3E700BF1000002016
:1003280038B5054600240134FFF7DAFFA542FAD1B3
:1003380038BD13B500238DF807300B4B4FF48002FE
:10034800C3F8182404240DF1070200210C20FFF73C
:100358007DFF013CF7D1044B4022C3F81824C3F8B1
:10036800182402B010BD00BF000002402DE9F04182
:100378000F4D06466869FFF796FF0024DFF83480C2
:100388000027FFF7ADFF0137202F08F8010BF8D140
:10039800A64202D1BDE8F041CBE795F838302034C9
:1003A800A4B2002BEAD16B8FA342E7D8F2E700BFD3
:1003B80010000020280000204FF0E0222DE9F04F27
:1003C800D2F8883DC94C43F46053C2F8883D0323F2
:1003D800C4F8003CD4F808588FB0042106A8FFF7E9
:1003E80001FFAD0700F1E282C04CD4F800580421A7
:1003F80006A825F08075FFF7F5FEC4F80058D4F874
:10040800005806A80421FFF7EDFEA801F7D4B84B61
:10041800C4F80438D4F80058042106A845F08075BB
:10042800FFF7E0FEC4F80058B04CD4F80058042197
:1004380006A8FFF7D7FEA901F7D54FF48053C4F8F3
:100448000838D4F80858042145F0020506A8FFF733
:10045800C9FEC4F80858A54DD5F80848042106A8CF
:10046800FFF7C0FE2207F7D5D5F83048042106A8C3
:1004780044F00104FFF7B6FEC5F830489D4C2668E5
:10048800042106A846F48036FFF7ACFE2660D5F8AE
:100498003068042106A846F00406FFF7A3FEC5F855
:1004A8003068D4F80068082106A826F04066FFF7EF
:1004B80099FEC4F80068D5F83068042106A846F00B
:1004C8000206FFF78FFEC5F83068D4F800640421EF
:1004D80006A846F48056FFF785FEC4F80064D4F8F1
:1004E8000C64042106A846F48056FFF77BFEC4F886
:1004F8000C64D5F83068042106A846F00206FFF718
:1005080071FEC5F83068D4F80064042106A8FFF726
:1005180069FE4FF0E023784A46F48016C4F8006478
:100528005A61764AF02182F82310002607229E613C
:100538001A61D5F83078042106A847F00107FFF7BB
:1005480051FEC5F83078D5F84078042106A847F45C
:100558000037FFF747FEC5F840782568082106A848
:1005680045F0A005FFF73EFE2560E568042106A8D2
:1005780045F04005FFF736FEE5601821604D276A13
:100588000DEB0100FFF72EFE0FCD06AC0FC495E86A
:100598000300334684E80300324606A8012450F8D5
:1005A800041B013204FA01F1062A43EA0103F6D1D9
:1005B800504D4FF040263B432B624FF4D073C6F8A2
:1005C8000834504BDC6844F400540C2106A844F06D
:1005D8000C04FFF707FEC6F80C44444CD4F84468F2
:1005E800042106A846F48056FFF7FCFDC4F84468C9
:1005F800D4F83068042106A846F00106FFF7F2FD9A
:10060800C4F830682C680C2106A844F42844FFF785
:10061800E9FD2C6018212E6A3B4D0DEB0100FFF718
:10062800E1FD0FCD06AC0FC495E80300002384E874
:1006380003001A4606A8012450F8041B013204FAE4
:1006480001F1062A43EA0103F6D12A4A2F4D334322
:10065800182113620DEB01009668FFF7C3FD0FCD5B
:1006680006AC0FC495E80300002384E803001A468B
:1006780006A8012450F8041B013204FA01F1062AE5
:1006880043EA0103F6D11B4C184F3343A360E568D6
:10069800082106A845F4C055FFF7A4FDE5601C4DE8
:1006A8002E68042106A846F00406FFF79BFD2E607D
:1006B8002E68042106A846F01006FFF793FD2E6069
:1006C8002E68082106A846F44076FFF78BFD2E60B9
:1006D8002E68042106A846F04006FFF783FD2E6029
:1006E800D7F84068042106A814E000BF0030024093
:1006F8001060010000000240FF76010000ED00E0FC
:10070800EC0F000800440040041000081C1000080A
:100718000030014046F00206FFF764FDC7F8406864
:100728004FF080460821D6F8008406A8FFF75AFD46
:1007380048F08103C6F80034D6F80C84042106A8D2
:10074800FFF750FD48F00103C6F80C34D24B4FF0C8
:100758000008C6F8288483F81D80D7F8309804214B
:1007680006A8FFF73FFD49F00203C7F83038D4F870
:100778000094082106A8FFF735FD49F42063C4F862
:100788000034D4F82094082106A8FFF72BFD49F47B
:100798000813C4F82034D4F80C94042106A8FFF7F1
:1007A80021FD29F48073C4F80C34D7F8309804215B
:1007B80006A8FFF717FD49F00403C7F83038D4F846
:1007C8000078082106A847F42027FFF70BFDC4F896
:1007D8000078D4F82478082106A8FFF703FD47F02D
:1007E80022074FF40863C4F82478C6F82084C6F8B2
:1007F8002C3446F66803C6F81834C6F81C3441F29F
:100808001113C6F82034D6F81474042106A847F04A
:100818000107FFF7E7FCC6F8147400238DF81730BA
:100828002E68042106A846F04006FFF7DBFC2E6080
:100838002E68042106A846F00806FFF7D3FC2E60B0
:100848002E6806A80821FFF7CDFC46F030064FF4C5
:1008580080032E600220C4F81834FFF7B1FC40234F
:10086800C4F818340A26FF20FFF7DAFC013EFAD153
:1008780064274FF480069DF81710002900F0AA801D
:10088800C4F818640DF117024FF4D5710820FFF76A
:10089800DDFC9DF817305B0740F1B4807F4B0122E7
:1008A8001A734023C4F81864C4F818347C4C2568BB
:1008B800042106A825F00805FFF794FC25602568A3
:1008C800042106A845F01005FFF78CFC2560256873
:1008D800042106A825F02005FFF784FC25600020E8
:1008E800FFF7E1FC4FF4E370FFF71AFD0DF118086C
:1008F80045460024FFF7F4FC0134042C05F8010BED
:10090800F8D106980090FFF714FD0098FFF7CBFC8C
:1009180006AD0024FFF7E4FC0134202C05F8010B98
:10092800F8D15E4DBDF82330BDF82E40BDF82970D2
:10093800AB879DF82530BDF826609DF82890DDF836
:1009480034A085F83E30A5F84070002C00F0AC804B
:10095800564404FB09647F0100266C616F874F4C85
:100968000127FFF7E6FCBA46B046B1463346009782
:100978003546A268616C09324FF4806B4FF0806C89
:10098800D4F808E07245C0F2A380002900F0A480E2
:10099800B045444806F1010676B2D4BFC0F818C481
:1009A800C0F818B47D2E08BF0026E9E7D4F8085827
:1009B800082106A825F00305FFF714FCC4F8085819
:1009C800D4F80858082106A8FFF70CFC15F00C0FFE
:1009D800F6D109E50220FFF7F3FB0220C4F81864FA
:1009E800FFF7EEFB0DF117020846FFF72FFC402337
:1009F800013FC4F818347FF43EAF4FF47A70FFF724
:100A0800DFFB0AE70426FFF70CFC013E8DF8170010
:100A1800F9D14023AA28C4F8183439D14FF48003F7
:100A2800C4F818340DF1170200213720FFF70EFC27
:100A38004FF080410DF117022920FFF707FC9DF8C0
:100A480017100029EED10DF117023A20FFF7FEFB2F
:100A5800FFF7E7FB114B80F04000C0F380101873DC
:100A6800FFF7DFFB8DF81700FFF7DBFB8DF81700AA
:100A7800FFF7D7FB0DF117028DF817004FF400713F
:100A88001020FFF7E3FB074B4022C3F818240DE7BB
:100A9800C4F81834B1E700BF00E400E010000020FB
:100AA8000030014000000240012385F83830FFF78C
:100AB80017FCFFF715FCFFF713FCFFF711FCFFF716
:100AC8000FFC0134042C08F8010BF8D1069C3FE711
:100AD80011B1002B00F000814FF0E0234FF00052DD
:100AE800C3F88021002384F84830FFF722FCB4F8CB
:100AF8004A3013B12033A4F84A30B4F84AB0584603
:100B0800FFF734FC237EE52B18D0002BF3D0A3F19C
:100B18004202122A17D994F8201057290BD194F8B9
:100B28002120412A07D194F82230562B03D194F87A
:100B38002300202817D0B4F84A30DBE70BF1200057
:100B4800A4F84A00D9E794F8232002F00F020F2AEC
:100B5800E1D1403BDBB20BEB431080B2A4F84A0072
:100B6800FFF704FCD7E7207E8DF81800607E8DF82B
:100B78001900A07E8DF81A00E07E8DF81B00207FFA
:100B88008DF81C00607F8DF81D00A07F8DF81E0079
:100B9800E07F8DF81F002E208DF820008DF823307F
:100BA8000A2000238DF821108DF822208DF824309A
:100BB800FFF7EEFA0DF1180B1BF8010B002840F0B7
:100BC800AD8094F8382032B194F82D2094F82C0098
:100BD800120602EB004294F8363094F8351094F877
:100BE80032C094F83300B4F840E01B0403EB01234F
:100BF80094F83410ACF1020C0CEB002C0B44A08FD1
:100C080094F8371003EB016B411E01EB4E11B1FB59
:100C1800F0F16069C4F84CB0084494F83E1062449E
:100C280001FB02002065FFF73EFBABF548435B0A7A
:100C380016206364FFF774FBFFF752FBDFF844B13B
:100C48008BF80000FFF74CFBFFF74AFB0190FFF71A
:100C580047FB0390FFF744FB0290FFF741FB029B21
:100C68000399019A1B0403EB0123134403EB00616E
:100C78000620CBF804100191FFF752FBFFF730FB79
:100C88008BF808000920FFF74BFB4FF0804300204A
:100C9800C3F8200401993948B0FBF1F1C3F82C14CA
:100CA80041F21111C3F82014DBF804304BF67F3100
:100CB8008B4294BF0B230A23083B84F854304FF42B
:100CC800EA73CBF80C304FF0E0234FF00052C3F832
:100CD8000021012384F84830B8444FFA88F8B8F165
:100CE8007D0F1EDDCAF100077FB2254A94F848300F
:100CF800D2F810280098002B02F40051C2F34032B9
:100D08000CBF4FF0030A4FF0010A90420ED071B1A8
:100D18000B3DADB2762D23D9002510E0FFF738FA48
:100D28004AE7B8F1000F08BF5746DEE709B90135B1
:100D38002DB2782D03DD23B1B9F1000F04D00023C3
:100D48001AE0B9F1000F17D14FF0E0234FF000512E
:100D5800C3F88011002384F848304FF001090BE0F4
:100D68004BB94FF0E0214FF00050C1F800010121CC
:100D780084F84810994600250092FAE500D8B8058D
:100D88000000024000000020024A9368013393608B
:100D9800704700BF1000002070B54FF0804382B04C
:100DA800D3F8104404210DEB0100FFF71BFAE0070C
:100DB8006AD56848684A037A4FF48071102B9161AC
:100DC80075D0A2F5504293689907FCD5FF21634B73
:100DD80011739A68D207FCD5C5681A7B6B1EC3606D
:100DE8000378022BD4B200F08680002325461946EA
:100DF80041EA04225A4C43EA052394F85410C56882
:100E08009BB28A408B404FF08041160AD2B2C1F89B
:100E18003864C1F840241A0ADBB2C1F83424C1F896
:100E28003C34002D30D14D4B9A689507FCD5FF22F4
:100E38001A734A4B9A68D107FCD51B7B474B9A68B3
:100E48009207FCD5FF221A73444A9368DE07FCD543
:100E5800636C4FF40071C160581E137B3F4B606494
:100E6800FF219A689507FCD519739A68D207FCD5B3
:100E78001A7BFE2AF5D138B94FF0E0234FF0005223
:100E8800C3F8802184F84800334B4FF080454FF079
:100E9800807204219A610DEB0100D5F81044FFF728
:100EA800A1F924F00104C5F8104402B070BD2B4A22
:100EB80093689E07FCD5FF21284B11739A68D507C4
:100EC800FCD5197B254BC9B29C68A407FCD5FF2229
:100ED8001A73224B9C68E207FCD51A7BC568037815
:100EE80082F08004022BA5F10202C26013D089B2FD
:100EF8000B4625467CE7194B9A689207FCD5FF22DA
:100F08001A73164B9A68D607FCD51B7BAA1EC260BB
:100F1800DDB200236BE7114B9A689607FCD5FF22D8
:100F28001A730E4B9A68D207FCD51B7BDAB20B4BAF
:100F38009E68B607FCD5FF261E73084B9E68F60709
:100F4800FCD51B7B043DC56089B283F0800593B254
:100F58004EE700BF000000200000024000300140C2
:100F68001000002007B5064B0193019B9847054BDD
:100F78000093009B9847002003B05DF804FB00BF76
:100F8800DD010008C1030008DFF82CD0002103E0D0
:100F98000A4B5B584350043109480A4B42189A429D
:100FA800F6D3094A02E0002342F8043B074B9A4271
:100FB800F9D3FFF7D7FF704700000220341000086C
:100FC8000000002010000020100000206800002011
:100FD800FEE702440346934200D1704703F8011B21
:040FE800F9E7000025
:100FEC0008000000090000000A0000000C000000CE
:100FFC000D0000000E0000001400000016000000A0
:10100C00180000001A0000001C0000001E00000068
:10101C000A0000000B0000000C0000000D00000096
:08102C000E0000000F0000009F
:101034000200000044AC00000800000000020000B0
:0400000508000F914F
:00000001FF
