:020000040800F2
:10000000004001201D0300085D0300085D03000897
:100010005D0300085D0300085D03000800000000A8
:100020000000000000000000000000005D03000868
:100030005D030008000000005D030008E9030008FC
:100040005D0300085D0300085D0300085D03000810
:100050005D0300085D0300085D0300085D03000800
:100060005D0300085D0300085D0300085D030008F0
:100070005D0300085D0300085D0300085D030008E0
:100080005D0300085D0300085D0300085D030008D0
:100090005D0300085D0300085D0300085D030008C0
:1000A0005D0300085D0300085D0300085D030008B0
:1000B0005D0300082D0700085D0300085D030008CC
:1000C0005D0300085D0300085D0300085D03000890
:1000D0005D0300085D0300085D0300085D03000880
:1000E0005D0300085D0300085D0300085D03000870
:1000F0005D030008000000005D0300085D030008C8
:100100005D0300085D0300085D0300085D0300084F
:100110005D0300085D0300085D03000800000000A7
:100120005D03000800000000000000000000000067
:0C01300000000000000000005FF808F173
:10013C0010402DE928409FE50030D4E5000053E342
:10014C000500001A1C309FE5000053E318009F15B2
:10015C0000F020130130A0E30030C4E51040BDE8EE
:10016C001EFF2FE13C040020000000009C1500083D
:10017C001C309FE5000053E31EFF2F0110402DE9BA
:10018C0010109FE510009FE500F020E31040BDE843
:10019C001EFF2FE100000000400400209C15000809
:1001AC00012051E21EFF2F013600003A010050E100
:1001BC002200009A020011E12300000A0E0211E352
:1001CC008111A0010830A0030130A013010251E3FA
:1001DC00000051310112A0310332A031FAFFFF3A75
:1001EC00020151E3000051318110A0318330A03164
:1001FC00FAFFFF3A0020A0E3010050E1010040208B
:10020C0003208221A10050E1A1004020A3208221E3
:10021C00210150E12101402023218221A10150E143
:10022C00A1014020A3218221000050E32332B01110
:10023C002112A011EFFFFF1A0200A0E11EFF2FE117
:10024C000100A0030000A0131EFF2FE1010851E3E1
:10025C002118A0211020A0230020A033010C51E371
:10026C002114A02108208222100051E32112A02188
:10027C0004208222040051E303208282A120829078
:10028C003002A0E11EFF2FE1000050E30000E0135C
:10029C00070000EA000051E3FAFFFF0A03402DE9D2
:1002AC00BEFFFFEB0640BDE8920003E0031041E007
:1002BC001EFF2FE11EFF2FE110B504000A2802D10A
:1002CC000D20FFF7F9FF094A1368002B05D0591CC4
:1002DC0011601C7010BC01BC0047054B1B68002B47
:1002EC00F8D0200000F006F8F4E7C04658040020CF
:1002FC005C0400201847C04610B504002078002884
:10030C0002D110BC01BC00470134FFF7D5FFF5E763
:10031C00002103E0094B5B58435004310848094B5A
:10032C0042189A42F6D3084A02E0002342F8043BF2
:10033C00064B9A42F9D300F0EDFF704724160008E3
:10034C00000000203C0400203C040020B4040020E9
:10035C00FEE77047802303490A681A42FCD0024B1F
:10036C00187070470044004004440040014B024A9E
:10037C001A6070475C04002061030008024B186887
:10038C00012318407047C046100400400121024A66
:10039C0013688B4313607047100400408022044B99
:1003AC00D200002801D09A6170479A62FCE7C046DF
:1003BC0000040240024B18688004C00F7047C0460E
:1003CC00100802404022014B9A6270470004024020
:1003DC004022014B9A61704700040240024A1368A4
:1003EC00013313607047C04660040020034A136851
:1003FC001B1811688B42FCDC7047C046600400205F
:10040C00014B18687047C046600400200222054B5F
:10041C0099681142FCD00122187399681142FCD0E2
:10042C00187B70470030014010B5FF20FFF7EEFF3E
:10043C0010BC02BC084710B5FFF7E8FF10BC01BCAC
:10044C000047F8B504000D0016009527002803D0CE
:10045C006A37082800D1783FFF20FFF7ECFF200017
:10046C0040300006000EFFF7E6FF280EFFF7E3FF13
:10047C00280C0006000EFFF7DEFF280A0006000E0F
:10048C00FFF7D9FF2806000EFFF7D5FF3800FFF75E
:10049C00D2FF0A24FFF7C8FF3070000602D5013CDA
:1004AC00002CF7D1F8BC01BC0047000037B56B46F7
:1004BC00DD1D00232B700B4B04001860FFF782FF2F
:1004CC00094B1B78012B00D164022A002100122059
:1004DC00FFF7B7FF0023054A1380054A138037BC8A
:1004EC0001BC00476C04002066040020640400205A
:1004FC006804002070B5114C2388002B03D1FFF742
:10050C0093FFFE28FBD1FFF78FFF80222388013356
:10051C001B0405001B0C9200934204D0238028007E
:10052C0070BC02BC08470023054A238013880133A2
:10053C001380FFF779FFFFF777FFF0E764040020E3
:10054C006804002070B505000024AC4205D00134CD
:10055C002404FFF7CFFF240CF7E770BC01BC004765
:10056C0037B56B46DD1D002304242B70FFF72AFFE3
:10057C002A0000210C20013CFFF763FF002CF7D16F
:10058C00FFF726FF37BC01BC004710B5FFF7E8FFAB
:10059C00FFF71EFF10BC01BC00470000104B70B5EC
:1005AC0006001868FFF782FF00240025FFF7A2FF62
:1005BC000C4B58550135202DF8D1B44204D1FFF71E
:1005CC00E4FF70BC01BC0047074B20341B782404AB
:1005DC00240C002BE9D1054B1B88A342E5D8EEE790
:1005EC009C04002075040020A0040020A604002018
:1005FC007FB5424D2B88002B01D020332B800F264A
:10060C002888FFF7CBFF3E4C2378E52B13D0002B2B
:10061C0001D12B80F4E71A00423A122A0ED9217A22
:10062C00572908D1627A412A05D1A37A562B02D1D7
:10063C00E07A202812D02B882033EAE7E27A324085
:10064C000F2AECD1403B1B061B0E58012B88C018FF
:10065C000004000C2880FFF7A1FFE0E76D4620782E
:10066C00287060786870A078A870E078E8702079BD
:10067C00287160796871A079A871E079E8712E20F1
:10068C00EB7228726972AA726846002505730A20FB
:10069C00FFF712FE6846FFF72FFE1A4B1B78AB4292
:1006AC0004D0257D637D2D041B06ED18A67EE37E0C
:1006BC00023E1B02A27FF618637F12041B029B18DA
:1006CC00227F9B18E27F12069B180F4A13600F4B78
:1006DC0019880F4B18884B1E4001C018FFF760FD9E
:1006EC000C4B1B68C0180C4B1B7876195E430B4BDC
:1006FC0086191E607FBC01BC0047C046A8040020C0
:10070C0075040020A004002098040020A2040020FE
:10071C00A40400209C040020740400207004002019
:10072C00F8B5FFF72BFE002872D0802267495200E3
:10073C008A61674B1B780221664A102B00D170E04E
:10074C0093681942FCD0FF200121624B10739A6808
:10075C001142FCD06049187B0B685A1E0A605F4A34
:10076C0012780400022A00D180E00023002200024B
:10077C0002435B4824020078234382401B041B0C79
:10078C008340FF20574C150A2560574C02402260CD
:10079C00564A18401B0A1360554B18600B68002B07
:1007AC0036D102204B4A93681842FCD0FF2401201A
:1007BC00484B14739A681042FCD002201B7B454BAB
:1007CC009A681042FCD0FF24012242481C738368B3
:1007DC001A42FCD080229200007BFF240A60012088
:1007EC000221444B1D68013D1D603A4B9A68114231
:1007FC00FCD01C739A681042FCD01A7BFE2AF5D1EF
:10080C00002D05D13C493D4B7E3A92050A601D7086
:10081C0080232E4A5B009362FFF7B8FDF8BC01BC45
:10082C00004793681942FCD0FF200121294B10731B
:10083C009A681142FCD002201A7B26498B68184218
:10084C00FCD0FF240120234B0C7399680842FCD088
:10085C0080201B7B20495840204B0D681B78AC1E18
:10086C000C60022B12D01300040080E70225194AF9
:10087C0094682542FCD0FF2401251473154A946812
:10088C002542FCD0023B147B0B606EE70226114B19
:10089C009C682642FCD0FF2401261C730D4B9C68DF
:1008AC002642FCD002271B7B0A4CA6683742FCD0A0
:1008BC00FF2601272673074CA6683742FCD0043D5F
:1008CC00247B0D6080256C4051E7C046000002403F
:1008DC000100002000300140080000200000002032
:1008EC00AA040020380400404004004034040040B6
:1008FC003C040040AC04002080E100E0AB0400208C
:10090C0010B50A00002100F00DFD10BC01BC004721
:10091C0073B502250A4CA668042101A8FFF7F0FF65
:10092C002E42F7D0FF2301252373A668042101A8CA
:10093C00FFF7E6FF2E42F8D0207B76BC02BC0847BE
:10094C000030014010B5FFF7E3FF10BC02BC0847B4
:10095C00F0B50425F64C91B0266808AF0421380098
:10096C002E43FFF7CDFF2660266829003800FFF7DD
:10097C00C7FF2E42F8D001262568042138003543E4
:10098C00FFF7BEFF2560256804213800FFF7B8FF8C
:10099C003542F8D0042138002568FFF7B1FF022357
:1009AC001D432560E34D042138002C68FFF7A8FF98
:1009BC0080235B051C432C60DF4C04213800256828
:1009CC00FFF79EFF80231B011D4325600421380087
:1009DC002568FFF795FFD94B1D402560D84D2C6835
:1009EC00042138003443FFF78BFF2C6004213800BE
:1009FC002C68FFF785FF02231C42F7D0D14C042151
:100A0C0038002668FFF77CFF80235B011E432660BD
:100A1C00CD4C042138002668FFF772FF80231B039E
:100A2C001E432660042138002668FFF769FF8023E7
:100A3C001B041E432660042138002E68FFF760FF5C
:100A4C0080235B041E432E608026B6042B68042191
:100A5C0038000093FFF754FF009B3342F6D0082177
:100A6C0038002568FFF74CFF03232B430C2523602C
:100A7C00266808213800FFF743FF2E42F8D0B34E0A
:100A8C00042138003468FFF73BFF01231C4334601A
:100A9C00AF4D042138002C68FFF732FF80235B0236
:100AAC001C432C6004243568042125433800FFF7CF
:100ABC0027FF3560A74938000D680821FFF720FF94
:100ACC00A54BA4491D400D60380021003568FFF787
:100ADC0017FF02210D4335608025A04B21001E68B5
:100AEC003800FFF70DFF6D019C4B2E431E609C4898
:100AFC00210006683800FFF703FF9948354305606D
:100B0C00924E210038003568FFF7FAFE02210D43A2
:100B1C00924A35602100380016001568FFF7F0FE88
:100B2C0080235B031D438F4A8F4B35601A60F02284
:100B3C0000268E4B1A708E4B1E608E4BE93A1A6053
:100B4C007C4938000D682100FFF7DAFE80237949D3
:100B5C009B021D430D607D4B210038001D68FFF783
:100B6C00CFFE0122794B15431D60794D08213800C9
:100B7C002D68FFF7C5FEA0231D43754B1D607E4BF2
:100B8C00210038001D68FFF7BBFE40231D437A4B44
:100B9C001D607A4B182138001D68FFF7B1FE3A0032
:100BAC00774B13CB13C213CB13C2330008AC012108
:100BBC009A001259914001330E43062BF7D116239C
:100BCC002E436E4F6F4DFF333E60AB600C21200007
:100BDC00EE68FFF795FE6C4B1E43EE606B4D0421E7
:100BEC0020002E68FFF78CFE80235B011E432E60D5
:100BFC00564E042120003568FFF782FE01231D4369
:100C0C003560534E0C2120003568FFF779FEA82380
:100C1C001B021D432000356018213D68FFF770FE54
:100C2C0022005B4B43CB43C243CB43C20023012086
:100C3C001A000600910061588E4001323343062A97
:100C4C00F7D14E4A2B431360524D182120002E68C9
:100C5C00FFF756FE2200504B83CB83C283CB83C25B
:100C6C0000231A000120910061588840013203438F
:100C7C00062AF7D133432B603F4E082120003568FC
:100C8C00FFF73EFEC0235B011D4335600425434F37
:100C9C003E68042120002E43FFF732FE3E602900FF
:100CAC0020003E68FFF72CFE10231E433E600821F7
:100CBC0020003E68FFF724FEC0239B001E433E60CD
:100CCC00290020003E68FFF71BFE40231E433E60B8
:100CDC00184F290020003E68FFF712FE02231E4326
:100CEC003E602F4E082120003768FFF709FE812354
:100CFC003B4333602B4E290020003768FFF700FE82
:100D0C0001223A4332600022274B1A60274B0F4FC7
:100D1C001A70290020003E68FFF7F2FD02231E43E3
:100D2C003E600E4920000F000E68082140E0C046CE
:100D3C00003C02402438024000700040FFEFFFFFEF
:100D4C000038024004380240083802401C38024087
:100D5C000000024000080240FFFFFFF300040240C5
:100D6C000C040240FF7C000014E000E023ED00E0E6
:100D7C0018E000E010E000E00C000240200002400F
:100D8C00CC150008004400400C2000002038024024
:100D9C00E415000808000240FC1500080030014072
:100DAC00000400400C040040280400401DE400E056
:100DBC00FFF7A6FDA0231B011E433E60BE4E08217B
:100DCC0020003768FFF79CFD88239B033B43BB4FF8
:100DDC003360290020003E68FFF792FDB84B1E409F
:100DEC003E60290020003E68FFF78AFDB54B1E408F
:100DFC00B54B3E601F001E68290020002E43FFF7F4
:100E0C007FFDB24B3E60082120001F001E68FFF7DB
:100E1C0077FDA0231B031E433E60AD4E082120002E
:100E2C003768FFF76DFD22231F433760A34F29005E
:100E3C0020003E68FFF764FDA64B1E403E60290073
:100E4C0020003E68FFF75CFD0022A34BA3491E4027
:100E5C003E60A34B0A60A34A1360A34BA34A1360E2
:100E6C00A34A1360A34BA44F0B60200029003E68DB
:100E7C00FFF746FD01231E433E60FFF76AFA06ABFF
:100E8C00DC1D00239D4F08AD2370042128003E6813
:100E9C00FFF736FD40231E43082128003E603E68C4
:100EAC00FFF72EFD28231E433E60FFF78BFA02202E
:100EBC00FFF79CFA0A26FFF78BFA013EFFF728FD95
:100ECC00002EFAD164362778002F00D19CE0FFF772
:100EDC0079FAD5210426220008204900FFF7B1FA3F
:100EEC002378334200D1AAE00122854B1A70FFF718
:100EFC0069FA824EFFF76CFA0C2128003468FFF770
:100F0C00FFFC38239C4300203460FFF7CFFAE3202A
:100F1C004000FFF717FB0024FFF7ECFA28550134CB
:100F2C00042CF9D1089CFFF730FB2000FFF7BEFA28
:100F3C000024FFF7DFFA28550134202CF9D11322B5
:100F4C0006ABD218537811781B026E4A0B431380F0
:100F5C006D4B6A7B1A701922EB8900932B7C0193E1
:100F6C0006ABD21853781178684E1B02EC8A0B43EF
:100F7C0033800F9F002C11D10122654B1A70FFF7A3
:100F8C00B9FAFFF7B7FAFFF7B5FAFFF7B3FAFFF7BD
:100F9C00B1FA28550134042CF9D1089C019B634308
:100FAC001C00009BDF19E41900275A4B1C60338886
:100FBC00594A5B011380FFF7E8FAFFF7CAF90123DE
:100FCC003C003D0002930193009704970393FFF7B5
:100FDC0017FA0600FFF714FA330009334F4A984208
:100FEC0000DD9FE01368002B00D1A0E0009B0020E7
:100FFC00BB4200DD01200137FFF7D0F93B061F167D
:10100C007D2FE7D10027E5E70220FFF7EFF9FFF787
:10101C00D9F90220FFF7EAF9013E22003900380025
:10102C00FFF70FFAFFF7D4F9002E00D04BE701229F
:10103C003B4B1A70FA208000FFF7D8F91FE7FFF737
:10104C0081FC013E2070002EF9D1FFF7C1F9237805
:10105C00AA2B2BD18026FFF7B5F9F605220000212B
:10106C003720FFF7EEF9310022002920FFF7E9F9CC
:10107C0021780029F2D122003A20FFF7E2F9FFF79C
:10108C0061FC01231E4A800983431370FFF75AFC4D
:10109C002070FFF757FC2070FFF754FC8021207064
:1010AC00220010208900FFF7CCF922E701221C4B0B
:1010BC001A70FFF78DF9BDE7200402400C040240C2
:1010CC00FFFEFFFFFFFBFFFF1C3802400008024041
:1010DC0024080240FFFFFEFFFFFFFBFF200400403F
:1010EC00D50200002C040040686800001804004081
:1010FC001C04004011110000140400400030014099
:10110C0066040020A204002074040020A404002023
:10111C00A00400209C040020A6040020AC040020A5
:10112C00670400201368002B01D0002C55D08022BE
:10113C00534B92051A60002352480370FFF725FAAF
:10114C00FFF756FA504B1868FFF7B0F94F4B504861
:10115C001B68504A1B185B0A16201360FFF7F2F944
:10116C00FFF7C8F94C4B1870FFF7C4F9FFF7C2F939
:10117C000600FFF7BFF90400FFF7BCF90590FFF775
:10118C00B9F9059A24021304E418A61900063618B6
:10119C00424806600620FFF7D5F9FFF7ABF9404B44
:1011AC0018700920FFF7CEF900233C483D4C01682C
:1011BC0023603D48FEF7F4FF3C4B18603C4B23602A
:1011CC000123EA213B4A13703B4A490011608021FC
:1011DC003A4A890511602B4A1370029A9446009B77
:1011EC0063441B061B1600937D2B1BDD019B5B428E
:1011FC0002930322234B1B780192002B01D0012375
:10120C000193FFF7D7F8039B984210D0002811D018
:10121C000B3D2B04002576212C001B0C99426C41B4
:10122C00049B0EE0009B002BE3D1019BE0E7039BAA
:10123C00002B02D101352D042D1400240123782D0F
:10124C00EEDD10490A78002A0CD1002C0AD080243B
:10125C001A4BA4051C60012314000B70130004939B
:10126C000390B4E6049A9A42F9D0002BF7D080216F
:10127C00034A890511600021024A1170EFE7C0464C
:10128C0080E100E0AB0400207004002098040020F2
:10129C000038FFFFAC0400200000002004000020F8
:1012AC0001000020200400400048E8012C0400400C
:1012BC0011110000AA0400200800002000E100E049
:1012CC0010B5FFF753F810BC01BC004710B5FFF781
:1012DC003FFB10BC01BC004707B5044B0193019BBD
:1012EC0000F006F803B001BC0047C046CD12000860
:1012FC001847C04607B5FFF7EFFF044B0193019B5E
:10130C0000F006F803B001BC0047C046D912000833
:10131C001847C04610B5FFF7EDFF002010BC02BC0B
:10132C0008470000030010E34000000A000052E3ED
:10133C00012042E21EFF2F010030A0E1FFC001E2BC
:10134C00020000EA012042E2010072E31EFF2F01BD
:10135C0001C0C3E4030013E3F9FFFF1A030052E3D7
:10136C002800009A30402DE9FFE001E20EE48EE106
:10137C000F0052E30EE88EE12E00009A10C042E2FC
:10138C000F40CCE3205083E2045085E02C42A0E1D6
:10139C0010C083E210E00CE50CE00CE508E00CE575
:1013AC0004E00CE510C08CE205005CE1F8FFFF1ACC
:1013BC0001C084E20C0012E30CC283E00F2002E2B5
:1013CC001800000A043042E20330C3E3043083E225
:1013DC0003308CE004E08CE40C0053E1FCFFFF1ABA
:1013EC00032002E2000052E30400000AFF1001E2B5
:1013FC00022083E00110C3E4030052E1FCFFFF1A5A
:10140C003040BDE81EFF2FE1000052E31EFF2F010C
:10141C00FF1001E2022083E00110C3E4030052E15B
:10142C00FCFFFF1A1EFF2FE10C30A0E1ECFFFFEADE
:10143C000030A0E1C8FFFFEA03C0A0E1E0FFFFEA33
:10144C0018309FE5000053E31EFF2F0110402DE9DB
:10145C000C009FE5030000EB1040BDE81EFF2FE1E0
:10146C0000000000941400080030A0E310402DE9A7
:10147C000010A0E10320A0E10300A0E1140000EBA8
:10148C001040BDE81EFF2FE170402DE930509FE564
:10149C0030409FE5044045E04441B0E10500000ABE
:1014AC00043035E5014044E20FE0A0E113FF2FE1E9
:1014BC00000054E3F9FFFF1A3A0000EB7040BDE85E
:1014CC001EFF2FE124160008201600081EFF2FE136
:1014DC001EFF2FE1F0412DE9A8809FE50040A0E11F
:1014EC00000098E50360A0E10150A0E10270A0E1CA
:1014FC00F5FFFFEB90309FE5003093E548C193E595
:10150C0000005CE353CF830204E09CE548C18305F3
:10151C001F005EE3170000CA000054E30800001A25
:10152C0001308EE202E08EE204308CE5000098E59A
:10153C000E518CE7E5FFFFEB0000A0E3F041BDE8A6
:10154C001EFF2FE10130A0E30E118CE0887081E5C5
:10155C0088219CE5133EA0E1032082E188218CE5E3
:10156C00086181E5020054E38C219C050330820163
:10157C008C318C05E9FFFFEA000098E5D3FFFFEB07
:10158C000000E0E3ECFFFFEA38040020141600082A
:10159C000DC0A0E1F8DF2DE904B04CE228D04BE2FD
:1015AC00F06F9DE81EFF2FE10DC0A0E1F8DF2DE9E3
:1015BC0004B04CE228D04BE2F06F9DE81EFF2FE107
:1015CC0008000000090000000A0000000C000000E8
:1015DC000D0000000E0000001400000016000000BA
:1015EC00180000001A0000001C0000001E00000083
:1015FC000A0000000B0000000C0000000D000000B1
:0C160C000E0000000F0000001000002085
:081618004C1400087C010008DD
:041620003C01000881
:101624000208000044AC00000002000000000000BA
:1016340000000000FC02002064030020CC03002012
:101644000000000000000000000000000000000096
:101654000000000000000000000000000000000086
:101664000000000000000000000000000000000076
:101674000000000000000000000000000000000066
:101684000000000000000000000000000000000056
:101694000000000000000000000000000000000046
:1016A4000000000000000000000000000000000036
:1016B4000000000000000000000000000000000026
:1016C4000000000000000000000000000000000016
:1016D4000000000000000000010000000000000005
:1016E4000E33CDAB34126DE6ECDE05000B000000CA
:1016F40000000000000000000000000000000000E6
:1017040000000000000000000000000000000000D5
:1017140000000000000000000000000000000000C5
:1017240000000000000000000000000000000000B5
:0C1A54000000000000000000B0040020B2
:040000050800031DCF
:00000001FF
