:020000040800F2
:1000000000000220210200086902000869020008BD
:100010006902000869020008690200080000000087
:10002000000000000000000000000000690200085D
:10003000690200080000000069020008FD020008D3
:1000400069020008690200086902000869020008E4
:1000500069020008690200086902000869020008D4
:1000600069020008690200086902000869020008C4
:1000700069020008690200086902000869020008B4
:100080006902000869020008690200080000000017
:1000900000000000000000000000000069020008ED
:1000A0006902000869020008690200086902000884
:1000B00069020008190600086902000869020008C0
:1000C0006902000869020008690200086902000864
:1000D00069020008690200086902000800000000C7
:1000E00069020008690200086902000800000000B7
:1000F000000000000000000000000000690200088D
:100100000000000069020008690200086902000896
:1001100000000000000000000000000000000000DF
:100120006902000869020008690200086902000803
:10013000690200080000000000000000000000004C
:10014000000000000000000000000000690200083C
:1001500069020008690200086902000869020008D3
:1001600069020008690200080000000000000000A9
:10017000000000000000000000000000000000007F
:1001800000000000690200080000000000000000FC
:08019000690200086902000881
:1001980010B5054C237833B9044B13B10448AFF3B9
:1001A80000800123237010BD3C04002000000000E3
:1001B800A012000808B5034B1BB103490348AFF36D
:1001C800008008BD0000000040040020A0120008C4
:1001D8000A2810B5044602D10D20FFF7F9FF074A97
:1001E80013681BB1591C11601C7010BD044B1B68AF
:1001F800002BFAD02046BDE81040184758040020CC
:100208005C04002010B5441E14F8010F00B910BD9D
:10021800FFF7DEFFF8E70000DFF82CD0002103E04D
:100228000A4B5B584350043109480A4B42189A421A
:10023800F6D3094A02E0002342F8043B074B9A42EE
:10024800F9D300F061FF7047000002201013000886
:10025800000000203C0400203C040020B4040020DE
:10026800FEE770474FF04022D2F800341B06FBD55A
:10027800014B1871704700BF00440040014B024A0F
:100288001A6070475C0400206D0200084FF080433C
:10029800D3F8100400F0010070474FF08042D2F804
:1002A800103423F00103C2F810347047044B20B116
:1002B8004FF48062C3F8182470474FF08062F9E762
:1002C80000000240024BD3F81008C0F340307047DA
:1002D80000000240024B4FF48002C3F81824704714
:1002E80000000240024B4022C3F81824704700BFA8
:1002F80000000240024A136801331360704700BFD0
:1003080060040020034A1368184413689842FCDC10
:10031800704700BF60040020014B1868704700BF99
:1003280060040020044B9A689107FCD518739A68FA
:10033800D207FCD5187B704700300140FF20FFF73B
:10034800F1BFFFF7EFBFF8B50D461646044628B3D0
:10035800082814BFFF278727FF20FFF7F2FF04F1C3
:100368004000C0B2FFF7EDFF280EFFF7EAFFC5F324
:100378000740FFF7E6FFC5F30720FFF7E2FFE8B203
:10038800FFF7DFFF3846FFF7DCFF0A24FFF7D6FF49
:100398000306307001D5013CF8D1F8BD9527DBE79D
:1003A80013B500238DF807300B4B04461860FFF790
:1003B80091FF0A4B1B78012B08BF64020DF107025D
:1003C80021461220FFF7BFFF054A00231380054A84
:1003D800138002B010BD00BF6C040020660400202A
:1003E800640400206804002038B50F4C23881BB92A
:1003F800FFF7A4FFFE28FBD1FFF7A0FF23880133F6
:100408009BB2B3F5007F054602D02380284638BD4D
:10041800064A00232380138801331380FFF78EFFD9
:10042800FFF78CFFF2E700BF640400206804002097
:1004380038B505460024AC4203D0FFF7D5FF013498
:10044800F9E738BD13B500238DF80730FFF742FFF1
:1004580004240DF1070200210C20FFF774FF013C72
:10046800F7D1FFF73FFF02B010BD08B5FFF7EAFF6D
:10047800BDE80840FFF736BF2DE9F843114BDFF818
:100488004C90DFF84C8005461868FFF789FF002478
:100498000D4F0026FFF7A8FF0136202E07F8010BA5
:1004A800F8D1AC4203D1BDE8F843FFF7DEBF99F8B5
:1004B80000302034A4B2002BEAD1B8F80030A342AF
:1004C800E6D8F0E79C04002075040020A004002072
:1004D800A604002030B5454D2B8885B00BB12033DC
:1004E8002B80434C2888FFF7C7FF2378E52B12D0D1
:1004F8000BB92B80F6E7A3F14202122A0ED9217A12
:10050800572908D1627A412A05D1A37A562B02D1FC
:10051800E07A202811D02B882033EAE7E27A02F02B
:100528000F020F2AEBD12888403BDBB200EB4313C4
:1005380098B22880FFF7A0FFE1E720788DF8000047
:1005480060788DF80100A0788DF80200E0788DF8C9
:10055800030020798DF8040060798DF80500A079F2
:100568008DF80600E0798DF807002E208DF8080038
:100578008DF80B300A2000238DF80A208DF80C30F6
:100588008DF80910FFF724FE6846FFF73BFE194B6C
:100598001A7822B1627D237D120602EB0342A07E07
:1005A800E37EA17F023800EB0320637F090401EB9F
:1005B8000321237F1944E37F01EB03610E4B19608C
:1005C8000E4B19880E4B1C884B1E03EB4413B3FBD0
:1005D800F1F30C4909680B440B490978024401FB03
:1005E80002330A4A136005B030BD00BFA8040020DA
:1005F80075040020A004002098040020A204002014
:10060800A40400209C04002074040020700400202E
:1006180038B5FFF73BFE00286CD0644A644B4FF4B2
:10062800807191611B78102B6CD0A2F550429368B1
:100638009907FCD5FF215F4B11739A68D207FCD547
:100648005D485E4C1A7B016823784C1E022B0460BF
:100658005FFA82FC7BD000236446194641EA0C22EB
:10066800574943EA042309789BB28A408B404FF0EC
:100678008041140AC1F83844D2B21C0ADBB2C1F86E
:100688004024C1F83444C1F83C340368002B31D10C
:10069800484A93689907FCD5FF21464B11739A681D
:1006A800D207FCD51B7B434A93689D07FCD5FF21E5
:1006B800404B11739A68D407FCD5424A1B7B1468D7
:1006C8003C4B4FF40071013C01601460FF219A68B3
:1006D8009007FCD519739A68D207FCD51A7BFE2AB5
:1006E800F5D13CB9384B4FF0E0224FF00051C2F839
:1006F80080111C702D4B4FF080729A61BDE8384014
:10070800FFF7CBBD2B4A93689D07FCD5FF21294BEA
:1007180011739A68D407FCD5197B264AC9B2936825
:100728009807FCD5FF20234B10739A68D207FCD595
:1007380021481A7B0468A31E0360204B1B78022BF8
:1007480082F0800C13D089B20B46644686E7194BB9
:100758009A689507FCD5FF221A73164B9A68D40736
:10076800FCD51C7B02390023E4B2016075E7114B0C
:100778009A689507FCD5FF221A730E4B9A68D20720
:10078800FCD51B7BDAB20B4B9D68AD07FCD5FF256A
:100798001D73084B9D68ED07FCD51B7B043C04606A
:1007A80089B283F0800493B258E700BF000002408A
:1007B8000100002000300140080000200000002057
:1007C800AA040020AC040020AB0400200A46002143
:1007D80000F0A0BC37B50B4CA56804210DEB010057
:1007E800FFF7F4FFAA07F7D5FF232373054CA56885
:1007F80004210DEB0100FFF7E9FFEB07F7D5207B9C
:1008080003B030BD00300140FFF7E4BF4FF0E022F5
:100818002DE9F04FD2F8883DC74C43F46053C2F835
:10082800883D0323C4F8003CD4F8085891B004214B
:1008380008A8FFF7CBFFAD0712D5D4F80858082150
:1008480008A825F00305FFF7C1FFC4F80858D4F835
:100858000858082108A8FFF7B9FF15F00C0FF6D1C2
:10086800B54CD4F80058042108A825F08075FFF786
:10087800ADFFC4F80058D4F8005808A80421FFF7C1
:10088800A5FFA801F7D4AD4BC4F80438D4F8005834
:10089800042108A845F08075FFF798FFC4F80058B0
:1008A800A54CD4F80058042108A8FFF78FFFA90128
:1008B800F7D54FF48053C4F80838D4F80858042101
:1008C80045F0020508A8FFF781FFC4F808589A4DBB
:1008D800D5F80848042108A8FFF778FF2207F7D5BC
:1008E800D5F83048042108A844F00104FFF76EFF4A
:1008F800C5F83048924C2668042108A846F480368A
:10090800FFF764FF2660D5F83068042108A846F090
:100918000406FFF75BFFC5F83068D4F800680821C3
:1009280008A826F04066FFF751FFC4F80068D5F81C
:100938003068042108A846F00206FFF747FFC5F80B
:100948003068D4F80064042108A846F48056FFF7FC
:100958003DFFC4F80064D4F80C64042108A846F4E8
:100968008056FFF733FFC4F80C64D5F830680421CB
:1009780008A846F00206FFF729FFC5F83068D4F842
:100988000064042108A8FFF721FF4FF0E0236D4A17
:1009980046F48016C4F800645A616B4AF02182F864
:1009A8002310002607229E611A61D5F830780421A9
:1009B80008A847F00107FFF709FFC5F83078D5F810
:1009C8004078042108A847F40037FFF7FFFEC5F870
:1009D80040782568082108A845F0A005FFF7F6FE2D
:1009E8002560E568042108A845F04005FFF7EEFEFC
:1009F800E560564D276A182108A8FFF7E7FE0FCDD6
:100A080008AC0FC495E80300334684E80300324677
:100A180008A8012450F8041B013204FA01F1062A3F
:100A280043EA0103F6D1464D4FF040263B432B6283
:100A38004FF4D073C6F80834454BDC6844F40054CE
:100A48000C2108A844F00C04FFF7C0FEC6F80C44BB
:100A5800394CD4F84468042108A846F48056FFF7B6
:100A6800B5FEC4F84468D4F83068042108A846F0F4
:100A78000106FFF7ABFEC4F830682C680C2108A803
:100A880044F42844FFF7A2FE2C602E6A314D182149
:100A980008A8FFF79BFE0FCD08AC0FC495E803002C
:100AA800002384E803001A4608A8012450F8041B10
:100AB800013204FA01F1062A43EA0103F6D1204A79
:100AC800254D33431362182108A89668FFF77EFE68
:100AD8000FCD08AC0FC495E80300002384E8030099
:100AE8001A4608A8012450F8041B013204FA01F13F
:100AF800062A43EA0103F6D1114D0F4F3343AB6089
:100B0800EC68082108A844F4C054FFF75FFEEC60C5
:100B1800124C2668042108A846F00406FFF756FE82
:100B280026602668042108A846F01006FFF74EFE46
:100B380026602668082113E000300240106001009A
:100B480000000240FF76010000ED00E0B812000846
:100B580000440040D0120008E812000800300140AC
:100B680008A846F44076FFF731FE2660266804217F
:100B780008A846F04006FFF729FE2660D7F8406827
:100B8800042108A846F00206FFF720FEC7F84068CF
:100B98004FF080460821D6F8008408A8FFF716FE13
:100BA80048F08103C6F80034D6F80C84042108A85C
:100BB800FFF70CFE48F00103C6F80C34D04B4FF099
:100BC8000008C6F8288483F81D80D7F830980421D7
:100BD80008A8FFF7FBFD49F00203C7F83038D5F83D
:100BE8000094082108A8FFF7F1FD49F42063C5F82F
:100BF8000034D5F82094082108A8FFF7E7FD49F448
:100C08000813C5F82034D5F80C94042108A8FFF778
:100C1800DDFD29F48073C5F80C34D7F83098042129
:100C280008A8FFF7D3FD49F00403C7F83038D5F812
:100C38000078082108A847F42027FFF7C7FDC5F862
:100C48000078D5F82478082108A8FFF7BFFD47F0F9
:100C580022074FF40863C5F82478C6F82084C6F83C
:100C68002C3446F66803C6F81834C6F81C3441F22A
:100C78001113C6F82034D6F81454042108A845F0F6
:100C88000105FFF7A3FDC6F81454FFF7EAFA8DF83B
:100C98001F802568042108A845F04005FFF796FD48
:100CA80025602568042108A845F00805FFF78EFD92
:100CB80025602568082108A845F03005FFF786FD5E
:100CC8002560FFF707FB0220FFF71CFBFFF70AFB75
:100CD8000A25FFF77FFD013DFBD164259DF81F60C4
:100CE800002E00F0AB80FFF7F5FA0DF11F024FF46C
:100CF800D5710820FFF727FB9DF81F305B0740F1EF
:100D0800B880804B01221A70FFF7E4FA7E4CFFF797
:100D1800E9FA2568042108A825F00805FFF756FD1B
:100D280025602568042108A845F01005FFF74EFD49
:100D380025602568042108A825F02005FFF746FD51
:100D480025600020FFF72CFB4FF4E370FFF770FBE2
:100D580008AF3D460024FFF747FB0134042C05F893
:100D6800010BF8D108980190FFF77FFB0198FFF776
:100D780017FB08AD0024FFF737FB0134202C05F8DA
:100D8800010BF8D1614BBDF82B201A80604B9DF800
:100D98002D20604EBDF836401A70BDF83130BDF8D0
:100DA8002E509DF83080DDF83C90338094B95A4B32
:100DB80001221A70FFF718FBFFF716FBFFF714FB69
:100DC800FFF712FBFFF710FB0134042C07F8010BA7
:100DD800F8D1089C514B524ADFF84CA14D4404FB12
:100DE80008541C603388DFF8448100245B01012625
:100DF80013802746FFF739FBA146FFF732FA25464D
:100E0800019603940296FFF787FA00F1090BFFF7A2
:100E180083FA584500F38C80DAF80030002B00F094
:100E28008780A74204F10104D4BF0020012064B2E6
:100E3800FFF73CFA7D2C08BF0024E8E70220FFF703
:100E480061FAFFF747FA0220FFF75CFA0DF11F027B
:100E580031463046FFF777FAFFF744FA013D7FF451
:100E68003DAF304B01221A704FF47A70FFF74AFAFF
:100E78000DE70425FFF7C8FC013D8DF81F00F9D1E7
:100E8800FFF730FA9DF81F30AA2B33D1FFF722FA6B
:100E98000DF11F0200213720FFF755FA4FF080416E
:100EA8000DF11F022920FFF74EFA9DF81F100029A7
:100EB800EED10DF11F023A20FFF745FAFFF7A4FC27
:100EC800104B80F04000C0F380101870FFF79CFCB6
:100ED8008DF81F00FFF798FC8DF81F00FFF794FCB2
:100EE8000DF11F028DF81F004FF400711020FFF75D
:100EF8002AFA0BE70B4B01221A70FFF7F3F9B3E755
:100F080000E400E06604002000300140A204002054
:100F180074040020A4040020A00400209C040020E5
:100F2800A604002067040020AC040020AB040020C5
:100F3800DAF8003013B1B9F1000F6AD04FF0E022AF
:100F48004FF000530021C2F8803188F80010FFF7F5
:100F58008CFAFFF7BFFA584BDFF878B11868FFF73B
:100F68001FFA564B1B68A3F548435B0A1620CAF8BC
:100F78000030FFF75DFAFFF737FA514B1870FFF7AB
:100F880033FAFFF731FA0590FFF72EFA0490FFF7CE
:100F98002BFA8146FFF728FA049B059A4FEA09497C
:100FA80009EB03231A4402EB00620620CBF8002069
:100FB800FFF73EFAFFF718FA424B18700920FFF7BF
:100FC80037FA4FF080430021DBF800003E4AC3F8AF
:100FD8002014B2FBF0F2C3F82C2441F21112C3F82A
:100FE8002024DBF800304BF67F32934294BF0B236A
:100FF8000A23364A083B1370354B4FF4EA721A60DD
:101008004FF0E0224FF00053C2F80031012388F876
:10101800003037447FB27D2F019B2FDD5E4276B2D0
:1010280098F80030002B0CBF032301230193FFF72E
:1010380049F9029B984225D030B3A5F10B091FFA54
:1010480089F9B9F1760F8CBF4FF000094FF001090B
:101058000025039B98F80020F2B9B9F1000F1BD0C6
:101068004FF0E0234FF00051C3F80011012388F836
:10107800003091461346CDE90203C4E6002F08BFAD
:101088001E46CDE7029B0BB901352DB2782D4FF0E6
:101098000009DEDD0123DDE7039A9A42EBD0002B3D
:1010A800E9D04FF0E0224FF00051C2F88011002241
:1010B80088F80020DFE700BF7004002098040020B3
:1010C800000000200100002000D8B805AA04002074
:1010D8000800002004000020FFF7D0B8FFF796BBF7
:1010E80082B0024B0193019B02B01847E11000083F
:1010F80007B5FFF7F5FF034B0193019B03B05DF8BC
:1011080004EB1847E510000808B5FFF7F1FF0020C9
:1011180008BD0000830730B548D0541E002A3FD0D0
:10112800CAB2034601E0013C3AD303F8012B9D07FC
:10113800F9D1032C2DD9CDB245EA05250F2C45EA66
:10114800054536D9A4F1100222F00F0C03F1200E48
:10115800E6444FEA121C03F1100242E9045542E941
:10116800025510327245F8D10CF1010214F00C0F3F
:1011780003EB021204F00F0C13D0ACF1040323F0BC
:1011880003030433134442F8045B9342FBD10CF08D
:1011980003042CB1CAB21C4403F8012B9C42FBD1B6
:1011A80030BD64461346002CF4D1F9E703461446D3
:1011B800BFE71A46A446E0E7024B13B1024800F025
:1011C80005B8704700000000E1110008002301463F
:1011D8001A46184600F01AB838B5084B084D5B1B7C
:1011E8009C1007D0043B1D44013C55F8043998472E
:1011F800002CF9D1BDE8384000F054B810130008AD
:101208000C130008704700BF704700BF2DE9F04776
:10121800DFF880A00646DAF8000098460F469146A7
:10122800FFF7F0FF1A4B1B68D3F8484124B36568F1
:101238001F2D26DC5EB96B1C0235DAF800006360EE
:1012480044F82570FFF7E0FF0020BDE8F08704EBC5
:1012580085010123C1F88890D4F88821AB401A434E
:10126800022EC4F88821C1F80881E4D1D4F88C2171
:101278001343C4F88C31DEE703F5A674C3F848417C
:10128800D5E7DAF80000FFF7BFFF4FF0FF30DCE7E3
:101298000013000838040020F8B500BFF8BC08BCEB
:1012A8009E467047F8B500BFF8BC08BC9E4670471C
:1012B80008000000090000000A0000000C000000FF
:1012C8000D0000000E0000001400000016000000D1
:1012D800180000001A0000001C0000001E0000009A
:1012E8000A0000000B0000000C0000000D000000C8
:0C12F8000E0000000F000000100000209D
:08130400C1110008BD01000841
:04130C00990100083B
:101310000208000044AC00000002000000000000D1
:1013200000000000FC02002064030020CC03002029
:1013300000000000000000000000000000000000AD
:10134000000000000000000000000000000000009D
:10135000000000000000000000000000000000008D
:10136000000000000000000000000000000000007D
:10137000000000000000000000000000000000006D
:10138000000000000000000000000000000000005D
:10139000000000000000000000000000000000004D
:1013A000000000000000000000000000000000003D
:1013B000000000000000000000000000000000002D
:1013C000000000000000000001000000000000001C
:1013D0000E33CDAB34126DE6ECDE05000B000000E1
:1013E00000000000000000000000000000000000FD
:1013F00000000000000000000000000000000000ED
:1014000000000000000000000000000000000000DC
:1014100000000000000000000000000000000000CC
:0C1740000000000000000000B0040020C9
:0400000508000221CC
:00000001FF
