:020000040800F2
:1000000000800120650F0008AD0F0008AD0F00084B
:10001000AD0F0008AD0F0008AD0F00080000000094
:10002000000000000000000000000000AD0F00080C
:10003000AD0F000800000000AD0F0008AD03000880
:10004000AD0F0008AD0F0008AD0F0008AD0F0008A0
:10005000AD0F0008AD0F0008AD0F0008AD0F000890
:10006000AD0F0008AD0F0008AD0F0008AD0F000880
:10007000AD0F0008AD0F0008AD0F0008AD0F000870
:10008000AD0F0008AD0F0008AD0F00080000000024
:10009000000000000000000000000000AD0F00089C
:1000A000AD0F0008AD0F0008AD0F0008AD0F000840
:1000B000AD0F0008BD030008AD0F0008AD0F00082C
:1000C000AD0F0008AD0F0008AD0F0008AD0F000820
:1000D000AD0F0008AD0F0008AD0F000800000000D4
:1000E000AD0F0008AD0F0008AD0F000800000000C4
:1000F000000000000000000000000000AD0F00083C
:1001000000000000AD0F0008AD0F0008AD0F0008A3
:1001100000000000000000000000000000000000DF
:10012000AD0F0008AD0F0008AD0F0008AD0F0008BF
:10013000AD0F0008000000000000000000000000FB
:10014000000000000000000000000000AD0F0008EB
:10015000AD0F0008AD0F0008AD0F0008AD0F00088F
:10016000AD0F0008AD0F0008000000000000000007
:10017000000000000000000000000000000000007F
:1001800000000000AD0F00080000000000000000AB
:04019000AD0F0008A7
:100194000A2810B5044602D10D20FFF7F9FF074BDA
:1001A4001A681AB1511C1960147010BD5B68002BD9
:1001B400FBD02046BDE81040184700BF10000020C7
:1001C400034A9368184493689842FCDC704700BF64
:1001D400100000200A46002100F0E7BE73B50B4D65
:1001E4000446AE6804210DEB0100FFF7F3FFB207EC
:1001F400F7D52C73054CA56804210DEB0100FFF71E
:10020400E9FFEB07F7D5207B02B070BD0030014059
:10021400E4E7FF20E2E773B504464FF04026D6F842
:10022400005404210DEB0100FFF7D4FF2B06F6D593
:10023400014B1C7102B070BD00440040F8B50D467E
:100244001646044628B3082814BFFF278727FF2033
:10025400FFF7DEFF04F14000C0B2FFF7D9FF280E1C
:10026400FFF7D6FFC5F30740FFF7D2FFC5F307201A
:10027400FFF7CEFFE8B2FFF7CBFF3846FFF7C8FF22
:100284000A24FFF7C6FF0306307001D5013CF8D1FC
:10029400F8BD9527DBE713B500238DF807300A4B2B
:1002A4000A4C4FF48002C3F81824237B012B014627
:1002B4000DF1070208BF41021220FFF7BFFF002320
:1002C400E381238202B010BD000002401000002030
:1002D40070B50E4DEC891CB9FFF79BFFFE28FBD1CE
:1002E400FFF797FF0134A4B2B4F5007F064602D0AD
:1002F400EC81304670BD0023EB812B8A01332B82C5
:10030400FFF787FFFFF785FFF3E700BF100000202A
:1003140038B5054600240134FFF7DAFFA542FAD1C7
:1003240038BD13B500238DF807300B4B4FF4800212
:10033400C3F8182404240DF1070200210C20FFF750
:100344007DFF013CF7D1044B4022C3F81824C3F8C5
:10035400182402B010BD00BF000002402DE9F04196
:100364000F4D06466869FFF796FF0024DFF83480D6
:100374000027FFF7ADFF0137202F08F8010BF8D154
:10038400A64202D1BDE8F041CBE795F838302034DD
:10039400A4B2002BEAD16B8FA342E7D8F2E700BFE7
:1003A4001000002028000020024A93680133936063
:1003B400704700BF1000002070B54FF0804382B03A
:1003C400D3F8104404210DEB0100FFF703FFE0070D
:1003D40069D5674B67484FF480729A610378664A1F
:1003E400102B73D093689907FCD5FF21624B1173CE
:1003F4009A68D207FCD545681A7B6B1E4360037A62
:10040400022BD4B200F0858000232546194641EA28
:1004140004225A4C43EA052394F83C1045689BB2E5
:100424008A408B404FF08041160AD2B2C1F838643A
:10043400C1F840241A0ADBB2C1F83424C1F83C34B0
:10044400002D30D14C4B9A689507FCD5FF221A73C6
:10045400494B9A68D107FCD51B7B474B9A68920796
:10046400FCD5FF221A73444A9368DE07FCD5236C3B
:100474004FF400714160581E137B3F4B2064FF21F1
:100484009A689507FCD519739A68D207FCD51A7B2C
:10049400FE2AF5D138B94FF0E0234FF00052C3F8EB
:1004A400802184F84400324B4FF080454FF0807235
:1004B40004219A610DEB0100D5F81044FFF78AFE80
:1004C40024F00104C5F8104402B070BD93689E077F
:1004D400FCD5FF21284B11739A68D507FCD5197BED
:1004E400254BC9B29C68A407FCD5FF221A73224B82
:1004F4009C68E207FCD51A7B4568037A82F0800485
:10050400022BA5F10202426013D089B20B462546A4
:100514007DE7194B9A689207FCD5FF221A73164B94
:100524009A68D607FCD51B7BAA1E4260DDB2002365
:100534006CE7114B9A689607FCD5FF221A730E4B91
:100544009A68D207FCD51B7BDAB20B4B9E68B607C0
:10055400FCD5FF261E73084B9E68F607FCD51B7B53
:10056400043D456089B283F0800593B24FE700BF34
:100574000000024000000020003001401000002074
:100584002DE9F04F4FF0E022C94FCA4B7B60D2F8FF
:10059400883DC94C43F46053C2F8883D0223C4F833
:1005A400003CD4F808588FB0042106A8FFF712FEC7
:1005B400AD0700F1E282C04CD4F80058042106A82B
:1005C40025F08075FFF706FEC4F80058D4F80058EB
:1005D40006A80421FFF7FEFDA801F7D4B74BC4F821
:1005E4000438D4F80058042106A845F08075FFF7B4
:1005F400F1FDC4F80058B04CD4F80058042106A802
:10060400FFF7E8FDA901F7D54FF48053C4F8083883
:10061400D4F80858042145F0020506A8FFF7DAFDCE
:10062400C4F80858A44DD5F80848042106A8FFF7D3
:10063400D1FD2207F7D5D5F83048042106A844F0A7
:100644000104FFF7C7FDC5F830489D4C2668042116
:1006540006A846F48036FFF7BDFD2660D5F830685D
:10066400042106A846F00406FFF7B4FDC5F8306877
:10067400D4F80068082106A826F04066FFF7AAFD12
:10068400C4F80068D5F83068042106A846F00206CC
:10069400FFF7A0FDC5F83068D4F80064042106A86B
:1006A40046F48056FFF796FDC4F80064D5F8306828
:1006B400042106A846F00206FFF78CFDC5F8306851
:1006C400D4F80064042106A8FFF784FD4FF0E0236A
:1006D4007C4A46F48016C4F800645A617A4AF021D0
:1006E40082F82310002607229E611A61D5F830880B
:1006F400042106A8FFF76EFD48F00103C5F8303861
:10070400D5F84088042106A8FFF764FD48F40033B7
:10071400C5F840382568082106A845F0A005FFF76C
:1007240059FD2560E568042106A845F04005FFF75A
:1007340051FDE5601821654DD4F820800DEB0100D2
:10074400FFF748FD0FCD06AC0FC495E80300334610
:1007540084E80300324606A8012450F8041B013241
:1007640004FA01F1062A43EA0103F6D1544D4FF08D
:10077400402643EA08032B624FF4B673C6F80834E4
:10078400534BDC6844F400540C2106A844F00C04D8
:10079400FFF720FDC6F80C44474CD4F84468042104
:1007A40006A846F48056FFF715FDC4F84468D4F84B
:1007B4003068042106A846F00106FFF70BFDC4F8D3
:1007C40030682C680C2106A844F42844FFF702FD85
:1007D4002C6018212E6A3F4D0DEB0100FFF7FAFC47
:1007E4000FCD06AC0FC495E80300002384E8030092
:1007F4001A4606A8012450F8041B013204FA01F138
:10080400062A43EA0103F6D12D4A334D3343182116
:1008140013620DEB01009668FFF7DCFC0FCD06AC0C
:100824000FC495E80300002384E803001A4606A8D1
:10083400012450F8041B013204FA01F1062A43EAA8
:100844000103F6D11E4CDFF870803343A360E568E2
:10085400082106A845F4C055FFF7BCFCE5601F4D10
:100864002E68042106A846F00406FFF7B3FC2E60A8
:100874002E68042106A846F01006FFF7ABFC2E6094
:100884002E68082106A846F44076FFF7A3FC2E60E4
:100894002E68042106A846F04006FFF79BFC2E6054
:1008A400D8F84068042106A846F0020618E000BF04
:1008B400100000201B020008003002401054010008
:1008C400000002401F48010000ED00E0C00F0008D6
:1008D40000440040D80F0008F00F00080030014029
:1008E400FFF778FCC8F840684FF080460821D6F836
:1008F400009406A8FFF76EFC49F08103C6F80034A3
:10090400D6F80C94042106A8FFF764FC49F001030F
:10091400C6F80C34D34B4FF00009C6F8289483F87A
:100924001D90D8F830A8042106A8FFF753FC4AF01C
:100934000203C8F83038D4F800A4082106A8FFF749
:1009440049FC4AF42063C4F80034D4F820A40821F4
:1009540006A8FFF73FFC4AF40813C4F82034D4F87F
:100964000CA4042106A8FFF735FC2AF48073C4F80C
:100974000C34D8F830A8042106A8FFF72BFC4AF061
:100984000403C8F83038D4F80088082106A8FFF713
:1009940021FC48F42023C4F80038D4F82488082122
:1009A40006A8FFF717FC48F02203C4F824384FF4D4
:1009B400EE63C6F82094C6F82C3446F66803C6F8ED
:1009C4001834C6F81C3441F21113C6F82034D6F892
:1009D4001484042106A8FFF7FDFB48F00103C6F8C0
:1009E400143400238DF817302E68042106A846F02D
:1009F4004006FFF7EFFB2E602E68042106A846F0A0
:100A04000806FFF7E7FB2E602E6806A80821FFF70B
:100A1400E1FB46F030064FF480032E600220C4F858
:100A24001834FFF7CDFB4023C4F818340A26FF20FE
:100A3400FFF7EEFB013EFAD14FF064084FF4800655
:100A44009DF81710002900F0AC80C4F818640DF16B
:100A540017024FF4D5710820FFF7F0FB9DF817300B
:100A64005B0740F1B78001233B734023C4F818644B
:100A7400C4F818347C4C2568042106A825F0080520
:100A8400FFF7A8FB25602568042106A845F010059A
:100A9400FFF7A0FB25602568042106A825F02005A2
:100AA400FFF798FB25600020FFF7F5FB4FF4E37098
:100AB400FFF72EFC0DF1180845460024FFF708FC4B
:100AC4000134042C05F8010BF8D106980090FFF7C7
:100AD40028FC0098FFF7DFFB06AD0024FFF7F8FBC6
:100AE4000134202C05F8010BF8D1BDF82330BDF8F2
:100AF4002E40BDF82960A7F846309DF82530BDF892
:100B040026509DF82890DDF834A087F84830A7F8DF
:100B14004A60002C00F0AE805544760104FB095471
:100B24007E8700250126DFF848B17C61B246FFF7D5
:100B3400F8FB2F46A8462A4600962C46DBF80810F8
:100B4400DBF8400009314FF4806C4FF0806EDBF825
:100B540008904945C0F2A280002800F0A380AF426B
:100B6400424B05F101056DB2D4BFC3F818E4C3F8D4
:100B740018C47D2D08BF0025E9E7D4F808580821DA
:100B840006A825F00305FFF725FBC4F80858D4F898
:100B94000858082106A8FFF71DFB15F00C0FF6D125
:100BA40009E50220FFF70CFB0220C4F81864FFF7E4
:100BB40007FB0DF117020846FFF740FB4023B8F18D
:100BC4000108C4F818347FF43BAF4FF47A70FFF790
:100BD400F7FA06E70426FFF71CFB013E8DF8170021
:100BE400F9D14023AA28C4F8183438D14FF480032B
:100BF400C4F818340DF1170200213720FFF71EFB4B
:100C04004FF080410DF117022920FFF717FB9DF8E3
:100C140017100029EED10DF117023A20FFF70EFB51
:100C2400FFF7F7FA80F04000C0F380103873FFF745
:100C3400F0FA8DF81700FFF7ECFA8DF81700FFF7BC
:100C4400E8FA0DF117028DF817004FF40071102027
:100C5400FFF7F4FA054B4022C3F818240AE7C4F856
:100C64001834B2E700E400E0003001400000024024
:100C740010000020012387F83830FFF729FBFFF725
:100C840027FBFFF725FBFFF723FBFFF721FB0134CD
:100C9400042C08F8010BF8D1069C3DE710B1002A9A
:100CA40000F009814FF0E0224FF00051C2F88011AA
:100CB40000228BF84420FFF734FBBBF84C2012B120
:100CC4002032ABF84C20BBF84C904846FFF746FB6B
:100CD4009BF81820E52A19D0002AF2D0A2F142018B
:100CE400122918D99BF8200057280CD19BF8211001
:100CF400412908D19BF82220562A04D19BF823C00D
:100D0400BCF1200F17D0BBF84C20D9E709F120091A
:100D1400ABF84C90D7E79BF8231001F00F010F2993
:100D2400E0D1403AD2B209EB421080B2ABF84C00A9
:100D3400FFF714FBD6E79BF818C08DF818C09BF892
:100D440019C08DF819C09BF81AC08DF81AC09BF809
:100D54001BC08DF81BC09BF81CC08DF81CC09BF8F1
:100D64001DC08DF81DC09BF81EC08DF81EC09BF8D9
:100D74001FC08DF81FC08DF821004FF02E0C8DF888
:100D840023200A2000228DF820C08DF822108DF82F
:100D94002420FFF7FDF90DF1180919F8010B0028BB
:100DA40040F0A9809BF8382032B19BF82D209BF8A5
:100DB4002C00120602EB00429BF836909BF835108B
:100DC4009BF832C09BF83300BBF84AE04FEA09496C
:100DD40009EB01299BF83410ACF1020C0CEB002C4C
:100DE4008944BBF846009BF8371009EB0169411EA2
:100DF40001EB4E11B1FBF0F1DBF81400CBF850908D
:100E040008449BF84810624401FB0200A9F54849D4
:100E1400CBF85400FFF73FFA4FEA59221620CBF8DB
:100E24004020FFF775FAFFF753FADFF8309189F89D
:100E34000800FFF74DFAFFF74BFA0190FFF748FA65
:100E44000390FFF745FA0290FFF742FA029A0399DA
:100E5400019B120402EB01221A4402EB00610620FA
:100E6400C9F80C100191FFF753FAFFF731FA89F82A
:100E740000000920FFF74CFA4FF080420020C2F82E
:100E8400200401993348B0FBF1F1C2F82C1441F26B
:100E94001111C2F8201402228BF83C204FF4EA729C
:100EA400C9F804204FF0E0224FF00051C2F80011BD
:100EB40001228BF8442037447FB27D2F1EDDCAF116
:100EC400000676B2244B9BF84420D3F81018009BFC
:100ED400002A01F40050C1F340310CBF4FF0030A63
:100EE4004FF0010A8B420DD068B10B3CA4B2762CB2
:100EF40022D900240FE0FFF74BF94EE7002F08BF7B
:100F04005646DFE708B9013424B2782C03DD22B158
:100F1400B8F1000F04D000221AE0B8F1000F17D185
:100F24004FF0E0224FF00050C2F8800100228BF80D
:100F340044204FF001080BE04AB94FF0E0204FF095
:100F44000054C0F8004101208BF84400904600246E
:100F54000091F3E500BD01050000024000000020FF
:100F6400DFF82CD0002103E00A4B5B5843500431D6
:100F740009480A4B42189A42F6D3094A02E0002370
:100F840042F8043B074B9A42F9D3FFF7F9FA70474A
:100F9400008001200810000800000020100000203C
:100FA4001000002068000020FEE70244034693423C
:0C0FB40000D1704703F8011BF9E70000B2
:100FC00008000000090000000A0000000C000000FA
:100FD0000D0000000E0000001400000016000000CC
:100FE000180000001A0000001C0000001E00000095
:100FF0000A0000000B0000000C0000000D000000C3
:081000000E0000000F000000CB
:1010080008000000000200000200000044AC0000DC
:0400000508000F657B
:00000001FF
