:020000040800F2
:1000000000200020A50F0008ED0F0008ED0F0008EC
:1000100000000000000000000000000000000000E0
:10002000000000000000000000000000ED0F0008CC
:100030000000000000000000ED0F000811030008A0
:10004000ED0F0008ED0F0008ED0F0008ED0F0008A0
:10005000ED0F0008ED0F0008ED0F0008ED0F000890
:10006000ED0F0008ED0F0008ED0F0008ED0F000880
:10007000ED0F0008ED0F0008ED0F0008ED0F000870
:1000800021030008ED0F000800000000ED0F00083C
:10009000ED0F0008ED0F0008ED0F0008ED0F000850
:1000A000ED0F0008ED0F0008ED0F0008ED0F000840
:1000B000ED0F000800000000ED0F00080000000038
:1000C00010B504000A2802D10D20FFF7F9FF084BF4
:1000D0001A68002A05D0511C1960147010BC01BCAC
:1000E00000475B68002BF9D0200000F00FFAF5E71D
:1000F00010000020034A93681B1891688B42FCDCB7
:100100007047C0461000002010B50A00002100F022
:100110006FFF10BC01BC0047F7B5050002260A4C72
:10012000A768042101A8FFF7EFFF3742F7D0257336
:100130000125A668042101A8FFF7E6FF2E42F8D0AA
:10014000207BFEBC02BC08470030014010B5FFF721
:10015000E3FF10BC01BC004710B5FF20FFF7DCFF38
:1001600010BC02BC084773B504008025064B1E680E
:10017000042101A8FFF7C8FF2E42F7D0034B1C70E3
:1001800073BC01BC0047C0461C44004028440040EA
:10019000F8B504000D0016009527002803D06A3733
:1001A000082800D1783FFF20FFF7D0FF2000403023
:1001B0000006000EFFF7CAFF280EFFF7C7FF280C46
:1001C0000006000EFFF7C2FF280A0006000EFFF728
:1001D000BDFF2806000EFFF7B9FF3800FFF7B6FF96
:1001E0000A24FFF7B9FF3070000602D5013C002C4D
:1001F000F7D1F8BC01BC004713B56B46DA1D0023EC
:10020000010040201370084B084C9862237B012B9F
:1002100000D149021220FFF7BBFF0023E3812382B4
:1002200013BC01BC0047C046000400481000002079
:1002300070B5104DEC89002C03D1FFF78DFFFE281F
:10024000FBD1FFF789FF8022013424040600240C2F
:100250009200944204D0EC81300070BC02BC08478C
:100260000023EB812B8A01332B82FFF775FFFFF709
:1002700073FFF1E71000002070B505000024013481
:100280002404FFF7D5FF240CA542F8D170BC01BCB3
:10029000004773B56B46DE1D00230425084C337000
:1002A0004033A362320000210C20013DFFF770FFB4
:1002B000002DF7D14023A361A36173BC01BC0047AB
:1002C00000040048F8B5114D07006869FFF794FF76
:1002D00000240026FFF7ACFF2B0018339855013699
:1002E000202EF7D1A74204D1FFF7D3FFF8BC01BC01
:1002F00000472B00383320341B782404240C002BB7
:10030000E7D16B8FA342E4D8EEE7C046100000208F
:10031000024A9368013393607047C0461000002082
:10032000F0B5714B83B01C68042101A8FFF7ECFE07
:10033000E30773D590238022DB0552006B499A6155
:100340000B780220102B00D17AE0694B9A6810429A
:10035000FCD0FF2201201A73654B9A681042FCD032
:100360004D68187B0B7A6A1E04004A60022B00D18C
:100370008AE000230022000202433C20240223439F
:100380005C4C205C1B0482401B0C8340FF205A4DB8
:10039000AC465A4F160A4D683E60594E02403260D4
:1003A000584A18401B0A136063461860002D35D167
:1003B00002204F4B9A681042FCD0FF2201201A7392
:1003C0004B4B9A681042FCD002201B7B484B9A682A
:1003D0001042FCD0FF2201201A73454B9A6810424C
:1003E000FCD01B7B80239B004B60FF25022101205A
:1003F000266C013E3E4B26649A681142FCD01D7368
:100400009A681042FCD01A7BFE2AF5D1002E05D145
:1004100080233D4A5B0213604423E65490238022EC
:10042000DB0552009A62304D042101A82C68FFF7C9
:100430006BFE01239C432C6003B0F0BC01BC004761
:100440002B4B9A681042FCD0FF2201201A73284BD4
:100450009A681042FCD002241A7B254B986804420B
:10046000FCD0FF2001241873214B98680442FCD073
:10047000187B80234D6858400B7AAC1E4C60022BD1
:1004800012D00400130076E70224194B9A68144234
:10049000FCD0FF2201241A73154B9A681442FCD039
:1004A000023D1C7B4D6064E70226114B9C6826428E
:1004B000FCD0FF2401261C730D4B9C682642FCD007
:1004C00002271B7B0A4CA6683742FCD0FF26012777
:1004D0002673074CA6683742FCD0043D247B4D6050
:1004E00080256C4047E7C046100400400000002013
:1004F00000300140100000203C040040380400405F
:10050000400400403404004080E100E01847C04649
:10051000012051E21EFF2F013600003A010050E198
:100520002200009A020011E12300000A0E0211E3EA
:100530008111A0010830A0030130A013010251E392
:10054000000051310112A0310332A031FAFFFF3A0D
:10055000020151E3000051318110A0318330A031FC
:10056000FAFFFF3A0020A0E3010050E10100402023
:1005700003208221A10050E1A1004020A32082217C
:10058000210150E12101402023218221A10150E1DC
:10059000A1014020A3218221000050E32332B011A9
:1005A0002112A011EFFFFF1A0200A0E11EFF2FE1B0
:1005B0000100A0030000A0131EFF2FE1010851E37A
:1005C0002118A0211020A0230020A033010C51E30A
:1005D0002114A02108208222100051E32112A02121
:1005E00004208222040051E303208282A120829011
:1005F0003002A0E11EFF2FE1000050E30000E013F5
:10060000070000EA000051E3FAFFFF0A03402DE96A
:10061000BEFFFFEB0640BDE8920003E0031041E09F
:100620001EFF2FE11EFF2FE1F0B50125F44CF54B25
:10063000F54A266895B00CAF042138005A602E4365
:10064000FFF762FD2660266804213800FFF75CFD95
:100650002E42F8D0ED4C2668042135433800FFF7D0
:1006600053FD25600225266804213800FFF74CFD64
:100670002E42F8D0E64D082138002E68FFF744FDE1
:10068000A0239B0333432B60042138002668FFF727
:100690003BFD80235B04334380262360B60423683C
:1006A000042138000193FFF72FFD019B3342F6D060
:1006B000042138002C68FFF727FD02232343082478
:1006C0002B602E6804213800FFF71EFD2642F8D06B
:1006D000D04E042138003468FFF716FD80239B02BA
:1006E0001C43346090240421E40538002568FFF79A
:1006F0000BFD80235B021D43256004213800356813
:10070000FFF702FD80239B021D433560082138005E
:100710002568FFF7F9FC03239D432560802504210C
:1007200038003668ED02FFF7EFFCBA4B2E431E602F
:10073000B94A042138001668FFF7E6FC8021B64A62
:1007400049010E43B34B16601E683543B14E042178
:100750003800FFF7D9FC3560AF4A0421380015682E
:10076000FFF7D2FC8023C021AB4A5B031D43156019
:10077000AA4BAB4A1A60AB4A13681B0209061B0A54
:100780000B4313600022A84B1A60A84B07321A6073
:10079000A74A042138001568FFF7B6FC8023A44A55
:1007A0009B021D431560042138003568FFF7ACFC3F
:1007B00080239B021D433560082138002568FFF720
:1007C000A3FCA0231D4325609A4D082138002E6804
:1007D000FFF79AFC88235B011E43D0232E60964DC1
:1007E0005B00EB600C2138002E68FFF78DFC0D23B9
:1007F0001E432E60914D042138002E68FFF784FCC3
:10080000802149010E432E60824E04213800356854
:10081000FFF77AFC80239B021D4335600C213800D2
:100820002568FFF771FCA8231B021D432560844C3B
:10083000182138002568FFF767FC3A00814B43CB4D
:1008400043C243CB43C200231A00754909910826CD
:100850000AA89100801941580120884001320343C1
:10086000062AF4D12B432360774C08210CA8256875
:10087000FFF74AFCC0235B011D432560734C042134
:100880000CA82568FFF740FC04231D4325601900D0
:100890000CA82568FFF738FC08231D4325601900C4
:1008A0000CA82568FFF730FCC0239B001D43256082
:1008B00004210CA86568FFF727FC80235B011D431A
:1008C000656004210CA82568FFF71EFC40231D432A
:1008D000574E256004210CA83568FFF715FC02234C
:1008E0001D4335605A4D08210CA82E68FFF70CFCFB
:1008F00081231E432E60574E04210CA83568FFF754
:1009000003FC01230022FF211D43534B35601A6075
:10091000524A13683F4F8B431360FB390CA83D6864
:10092000FFF7F2FB8023DB021D433B4E3D600821B5
:100930000CA83568FFF7E8FBA0231B011D433560B9
:10094000474D08210CA82E68FFF7DEFB88235B03C8
:100950001E432E6004210CA83D68FFF7D5FB8023C1
:100960001B031D433D603F4D08210CA82E68FFF777
:10097000CBFBA02300221B031E4388233A492E6091
:100980000A603A4ADB001360394B3A4A13603A4A2C
:1009900013603A4A3A4E0A600CA804213568FFF702
:1009A000B3FB01231D4335600AABDD1D0023402747
:1009B0002B70266804210CA83E43FFF7A5FB266098
:1009C00008210CA82668FFF79FFB30231E432660F2
:1009D00004210CA82668FFF797FB08239E430E4BC3
:1009E00026601E0002209F62FFF784FBB7610A2683
:1009F000FF20013EFFF7AAFB002EF9D1643641E04B
:100A00000020024010000020670100080010024092
:100A100004100240141002400004004814E000E0FA
:100A20007FBB000020ED00E018E000E010E000E0F7
:100A30001C100240200000480044004018100240F2
:100A400008000048081000080C0000480030014071
:100A5000000400400C0400402804004010E400E0C2
:100A60002004004800080048200400402C040040F6
:100A700068680000180400401C04004011110000C8
:100A8000140400402F78002F00D19CE04022D52193
:100A9000B04B08209A6249002A00FFF779FB042234
:100AA0002B78134200D1A8E00122AB4B1A73A94B5B
:100AB0003F329A629A6104210CA82568FFF724FB53
:100AC00008210D4325600CA82568FFF71DFB302386
:100AD0009D4300202560FFF78FFBE3204000FFF7D8
:100AE000CBFB0024FFF7A4FB08220AAB9B18185588
:100AF0000134042CF6D10C9CFFF7CBFB2000FFF750
:100B00007BFB0024FFF794FB08220AAB9B181855C7
:100B10000134202CF6D113228F4E31000AABD218AB
:100B2000537810781B0203430831CB8733000AAA9D
:100B3000527D48331A700AABDB8A01930AAB1B7EE5
:100B4000029319230AAA9B181A785D7833002D02A4
:100B50004A3315431D800AABDC8B139F002C00D158
:100B60008BE0029B63431C00019BDF19E7196D01B9
:100B700077617587FFF78DFB0123012206930493AC
:100B80000023079203930293059301938024724AF2
:100B90009168106C0931E4009568A94200DA86E09A
:100BA000002800D188E0029D039EB5427CDC694D9F
:100BB000AC62039D01352D062D1603957D2DEBD1DD
:100BC00000250395E8E70220FFF794FA4022614BE5
:100BD00002209A62FFF78EFA2A0039003800FFF7E8
:100BE000D7FA40225B4B013E9A61002E00D049E7C4
:100BF000FA208000FFF77EFAD6E60426FFF7ACFA6B
:100C0000013E2870002EF9D14022524B9A61AA2849
:100C10002FD1402280264F4B9A62F6052A000021F0
:100C20003720FFF7B5FA31002A002920FFF7B0FA84
:100C300029780029F2D12A003A20FFF7A9FAFFF714
:100C40008BFA0123444A800983431373FFF784FA24
:100C50002870FFF781FA2870FFF77EFA80212A00BA
:100C6000287089001020FFF793FA4023394A9361D6
:100C700021E74022374B9A61BAE73300012238332B
:100C80001A70FFF7D5FAFFF7D3FAFFF7D1FAFFF79B
:100C9000CFFAFFF7CDFA08220AAB9B18185501349A
:100CA000042CF6D10C9C5CE72A4DAC6181E700284E
:100CB00002D0002B00D1FBE08022274C274B5202B0
:100CC0001A602300002244334C341A70FFF7E1FA13
:100CD0002388002B01D0203323800F271E4D2E00A8
:100CE0004C3634882000FFF7EDFA2B7EE52B03D03D
:100CF000002B04D13380F1E720343480EEE71A0072
:100D0000423A122A16D9144B5A1CD07F57280BD1BD
:100D10009A1CD17F412907D1DA1CD27F562A03D1F0
:100D20001C1DE47F202C1BD00B4B4C331A88203227
:100D30001A80D3E70435EA7F3A400F2AE3D1403BDB
:100D40001B061B0E5B01E3181804000C3080FFF734
:100D5000B9FAD8E7000400481000002080E100E064
:100D60001D7E0CAC25705D7E65709D7EA570DD7E60
:100D7000E5701D7F25715D7F65719D7FA571DB7FAE
:100D8000E3712E232372002360720A20A172E272A3
:100D90002373FFF795F92078002800D0B8E0774B4F
:100DA0001A00383212780600002A07D01A002D33B4
:100DB0002C3216781B7836041B06F6186F4C23006D
:100DC00033331878230032331F78230035331D78EE
:100DD000230036331B782D021B04ED182300343317
:100DE0001B78ED18230037331B781B06ED18230002
:100DF0000833D98F230000024A33023FC7191888ED
:100E00004B1E40012565C018FFF782FB6369C018BF
:100E100023004833F6191F787E4380196065FFF779
:100E2000EBF9574BED1816206D0A2564FFF724FAED
:100E3000FFF7FEF9534E3072FFF7FAF9FFF7F8F9B2
:100E40000890FFF7F5F90500FFF7F2F90700FFF743
:100E5000EFF93F04089B2D02ED19ED1800062D183F
:100E60000620F560FFF708FAFFF7E2F90027307077
:100E70000920FFF701FA444B29001F604348FFF7A0
:100E800047FB434A404B1060424A1A60099BF26894
:100E900093427F41230001373C331F70EA238022B5
:100EA0005B0073603C4B52021A6001234434237090
:100EB000069A9446029B63441B061B1602937D2BE5
:100EC00028DD049B5B4206932C4A13000321443324
:100ED0001B780491002B01D00239049101202F4985
:100EE0000968884301000798884218D0002918D063
:100EF000002076240500019A0B3A1204120C944249
:100F000045412A00834233D01300019007913DE60A
:100F100001343EE7029B002BD6D1049BD3E7002986
:100F200004D1019801300004001401900198782840
:100F300021DD002B0FD00023059898420ED0E5E765
:100F40008020154A4002106001200C4A4432107083
:100F500005930193DAE705980028D7D18020104B3C
:100F60004002186000234432137001220592CDE73D
:100F7000002DE5D101930023C8E7C04610000020F2
:100F80000038FFFF0000002020040040006CDC025D
:100F90002C0400401111000000E100E010000048A6
:100FA00080E100E00B4885460B480C490C4A0023C1
:100FB00002E0D458C4500433C4188C42F9D3094A0F
:100FC000094C002301E013600432A242FBD3FFF777
:100FD0002BFBFEE700200020000000201000002076
:100FE000201000081000002068000020FEE700002C
:100FF0000030A0E1022080E0020053E11EFF2F013B
:081000000110C3E4FBFFFFEA4D
:101008000A0000000B0000000C0000000D000000AA
:081018000E0000000F000000B3
:1010200008000000000200000200000044AC0000C4
:0400000508000FA53B
:00000001FF
