:020000040800F2
:1000000000A00020090F0008510F0008510F000840
:10001000510F0008510F0008510F000800000000A8
:10002000000000000000000000000000510F000868
:10003000510F000800000000510F0008A503000840
:10004000510F0008510F0008510F0008510F000810
:10005000510F0008510F0008510F0008510F000800
:10006000510F0008510F0008510F0008510F0008F0
:10007000510F0008510F0008510F0008510F0008E0
:10008000510F0008510F0008510F0008510F0008D0
:10009000510F0008510F0008510F0008510F0008C0
:1000A000510F0008510F0008510F0008510F0008B0
:1000B000510F0008B5030008510F0008510F000848
:1000C000510F0008510F0008510F0008510F000890
:1000D000510F0008510F0008510F0008510F000880
:1000E000510F0008510F0008510F0008510F000870
:1000F000510F0008510F0008510F0008510F000860
:10010000000000000000000000000000510F000887
:10011000510F0008510F0008510F0008510F00083F
:10012000510F0008510F0008510F0008510F00082F
:10013000510F0008510F00080000000000000000EF
:10014000510F0008510F0008510F00080000000077
:10015000000000000000000000000000000000009F
:100160000000000000000000510F0008510F0008BF
:10017000510F000800000000000000000000000017
:0801800000000000510F00080F
:100188000A2810B5044602D10D20FFF7F9FF074BE6
:100198001A681AB1511C1960147010BD5B68002BE5
:1001A800FBD02046BDE81040184700BF10000020D3
:1001B800034A9368184493689842FCDC704700BF70
:1001C800100000200A46002100F0BFBE73B50B4D99
:1001D8000446AE6804210DEB0100FFF7F3FFB207F8
:1001E800F7D52C73054CA56804210DEB0100FFF72A
:1001F800E9FFEB07F7D5207B02B070BD0030014066
:10020800E4E7FF20E2E773B504464FF04026D6F84E
:100218001C5404210DEB0100FFF7D4FF2B06F6D583
:10022800024B83F8284002B070BD00BF0044004074
:10023800F8B50D461646044628B3082814BFFF270C
:100248008727FF20FFF7DCFF04F14000C0B2FFF76B
:10025800D7FF280EFFF7D4FFC5F30740FFF7D0FFFD
:10026800C5F30720FFF7CCFFE8B2FFF7C9FF384610
:10027800FFF7C6FF0A24FFF7C4FF0306307001D555
:10028800013CF8D1F8BD9527DBE713B500238DF8BD
:1002980007304FF090430A4C4FF08072C3F818248F
:1002A800237B012B01460DF1070208BF41021220F2
:1002B800FFF7BEFF0023E381238202B010BD00BF19
:1002C8001000002070B50E4DEC891CB9FFF799FF9E
:1002D800FE28FBD1FFF795FF0134A4B2B4F5007FE7
:1002E800064602D0EC81304670BD0023EB812B8A94
:1002F80001332B82FFF785FFFFF783FFF3E700BF8A
:100308001000002038B5054600240134FFF7DAFF55
:10031800A542FAD138BD13B500238DF807304FF048
:1003280090434FF08072C3F8182404240DF107029B
:1003380000210C20FFF77CFF013CF7D14FF09043E0
:100348004FF48072C3F81824C3F8182402B010BD03
:100358002DE9F0410F4D06466869FFF796FF002426
:10036800DFF834800027FFF7ADFF0137202F08F8AA
:10037800010BF8D1A64202D1BDE8F041CBE795F8D0
:1003880038302034A4B2002BEAD16B8FA342E7D8CF
:10039800F2E700BF1000002028000020024A9368FE
:1003A80001339360704700BF1000002070B54FF014
:1003B800804382B0D3F8104404210DEB0100FFF70D
:1003C80001FFE0076AD54FF090434FF4807266480A
:1003D8009A610378654A102B74D093689907FCD505
:1003E800FF21624B11739A68D207FCD545681A7BC6
:1003F8006B1E4360037A022BD4B200F08680002380
:100408002546194641EA0422594C43EA052394F843
:100418003C1045689BB28A408B404FF08041160AD9
:10042800D2B2C1F83864C1F840241A0ADBB2C1F864
:100438003424C1F83C34002D30D14C4B9A689507D0
:10044800FCD5FF221A73494B9A68D107FCD51B7B50
:10045800464B9A689207FCD5FF221A73434A936861
:10046800DE07FCD5236C4FF400714160581E137BE6
:100478003E4B2064FF219A689507FCD519739A684A
:10048800D207FCD51A7BFE2AF5D138B94FF0E02304
:100498004FF00052C3F8802184F844004FF0904395
:1004A8004FF080454FF0807204219A610DEB0100F6
:1004B800D5F81044FFF786FE24F00104C5F810446F
:1004C80002B070BD93689E07FCD5FF21274B1173BE
:1004D8009A68D507FCD5197B244BC9B29C68A40738
:1004E800FCD5FF221A73214B9C68E207FCD51A7BC6
:1004F8004568037A82F08004022BA5F1020242606B
:1005080013D089B20B4625467CE7184B9A689207A8
:10051800FCD5FF221A73154B9A68D607FCD51B7BAE
:10052800AA1E4260DDB200236BE7104B9A6896075B
:10053800FCD5FF221A730D4B9A68D207FCD51B7B9A
:10054800DAB20A4B9E68B607FCD5FF261E73074B26
:100558009E68F607FCD51B7B043D456089B283F095
:10056800800593B24EE700BF000000200030014034
:10057800100000202DE9F04F4FF0E022DFF814833F
:10058800BA4BC8F80430D2F8883DB94C43F46053EC
:10059800C2F8883D25688FB0042106A845F00205F9
:1005A800FFF710FE25602568042106A8FFF70AFE5C
:1005B800AD07F8D5AF4C2568042106A845F001051C
:1005C800FFF700FE2560256806A80421FFF7FAFD5D
:1005D800A807F8D56568042106A825F48025FFF743
:1005E800F1FD656065680C2106A845F46015FFF704
:1005F800E9FD65602568042106A845F08075FFF7C8
:10060800E1FD25602568042106A8FFF7DBFDA901A7
:10061800F8D56568042106A825F00105FFF7D2FD85
:1006280065606568042106A845F00205FFF7CAFD64
:1006380065606568042106A8FFF7C4FD2A07F8D598
:100648006569042106A845F40035FFF7BBFD65611F
:100658004FF0904504212E6806A846F48036FFF72F
:10066800B1FD2E606669042106A846F40016FFF75E
:10067800A9FD6661804E3768042106A847F48037D3
:10068800FFF7A0FD37606769042106A847F4003723
:10069800FFF798FD67612F68082106A827F0030770
:1006A800FFF790FD2F606769042106A847F48027AB
:1006B800FFF788FD6761D5F80074042106A847F4A0
:1006C8008037FFF77FFDC5F800746769042106A825
:1006D80047F40017FFF776FD67613768042106A81D
:1006E800FFF770FD4FF0E02347F480074FF6FF1245
:1006F80037605A61614AF02182F8231000270722E7
:100708009F611A61E669042106A846F40036FFF7DE
:1007180059FDE6616669042106A846F40036FFF72C
:1007280051FD66612E68082106A846F0A006FFF76D
:1007380049FD2E601821524ED5F820900DEB01008E
:10074800FFF740FD0FCE06AD0FC596E803003B4608
:1007580085E803003A4606A8012550F8041B013233
:1007680005FA01F1062A43EA0103F6D14FF0904554
:100778004FF0402743EA09032B6240F22B23C7F8C6
:100788000C34404B1E680C2106A846F00D06FFF7F6
:1007980019FDC7F80064A669042106A846F4805626
:1007A800FFF710FDA6616669042106A846F4003625
:1007B800FFF708FD66612E680C2106A846F4284656
:1007C800FFF700FD2E6018212F4E2F6A0DEB010058
:1007D800FFF7F8FC0FCE06AD0FC596E8030000231F
:1007E80085E803001A4606A8012550F8041B0132C3
:1007F80005FA01F1062A43EA0103F6D14FF09042C7
:100808003B431821214E13620DEB01009768FFF757
:10081800D9FC0FCE06AD0FC596E80300002385E886
:1008280003001A4606A8012550F8041B013205FAF0
:1008380001F1062A43EA0103F6D14FF090453B4304
:10084800AB60EE68082106A846F4C056FFF7BAFC6C
:10085800EE600F4E3768042106A847F00407FFF73B
:10086800B1FC37603768042106A815E00F020008BC
:1008780000200240001002400010004800ED00E097
:10088800640F0008004400407C0F0008940F000823
:10089800003001401000002047F00807FFF792FCE5
:1008A800376077680C2106A847F4E067FFF78AFCF1
:1008B80077603768082106A847F44077FFF782FC7D
:1008C80037607768042106A847F48057FFF77AFC59
:1008D80077603768042106A847F04007FFF772FCE5
:1008E8003760E769042106A847F00207FFF76AFCAA
:1008F800E7614FF080470821D7F8009406A8FFF772
:1009080061FC49F08103C7F80034D7F80C9404213E
:1009180006A8FFF757FC49F00103C7F80C34C84B89
:100928004FF00009C7F8289483F81D90D4F814A054
:10093800042106A8FFF746FC4AF480236361D5F832
:1009480000A4082106A8FFF73DFC4AF42063C5F877
:100958000034D5F820A4082106A8FFF733FC4AF490
:100968000813C5F82034D4F814A0042106A8FFF70A
:1009780029FC4AF400236361D5F80048082106A839
:1009880044F42024FFF71EFCC5F80048D5F8244895
:10099800082106A8FFF716FC44F0220440F2AB53E6
:1009A800C5F82448C7F82094C7F82C3446F66803DD
:1009B800C7F81834C7F81C3441F21113C7F82034AB
:1009C800D7F81444042106A844F00104FFF7FAFB01
:1009D800C7F8144400238DF817303468042106A89A
:1009E80044F04004FFF7EEFB3460346806A80421A5
:1009F800FFF7E8FB24F010044FF080733460022006
:100A0800C5F81834FFF7D4FB4FF48073C5F81834D1
:100A18000A24FF20FFF7F4FB013CFAD164274FF0CA
:100A280080749DF81710002900F09080C5F81844CC
:100A38000DF117024FF4D5710820FFF7F9FB9DF867
:100A480017305B0740F19B80012388F80C304FF486
:100A58008073C5F81844C5F818347A4C2568042101
:100A680006A845F00805FFF7ADFB256025680821B5
:100A780006A825F03005FFF7A5FB25600020FFF745
:100A880004FC4FF4E370FFF73DFC06AF3D4600243D
:100A9800FFF718FC0134042C05F8010BF8D106986F
:100AA8000090FFF738FC0098FFF7EFFB06AD002435
:100AB800FFF708FC0134202C05F8010BF8D1BDF82C
:100AC8002330BDF82E40BDF82960A8F846309DF8BF
:100AD8002530BDF826509DF82890DDF834A088F818
:100AE8004830A8F84A60002C00F09580554404FB73
:100AF80009547601C8F81440A8F83A60012700267E
:100B0800514CFFF708FCBB46B046B1463346009748
:100B18003546A268216C09324FF4006A4FF0006C28
:100B2800D4F808E07245C0F29380002900F0948060
:100B3800B045464806F1010676B2D4BFC0F818C0E1
:100B4800C0F818A07D2E08BF0026E9E70220FFF7AD
:100B58002FFB0220C5F81844FFF72AFB0DF11702F6
:100B68000846FFF765FB4FF48073013FC5F818345A
:100B78007FF457AF4FF47A70FFF71AFB2AE7042483
:100B8800FFF73FFB013C8DF81700F9D14FF4807354
:100B9800AA28C5F818343BD14FF08073C5F818342B
:100BA8000DF1170200213720FFF742FB4FF080417B
:100BB8000DF117022920FFF73BFB9DF817100029BC
:100BC800EED10DF117023A20FFF732FBFFF719FBC0
:100BD80080F04000C0F3801088F80C00FFF711FB8C
:100BE8008DF81700FFF70DFB8DF81700FFF709FBCD
:100BF8000DF117028DF817004FF400711020FFF760
:100C080017FB4FF090434FF48072C3F8182424E781
:100C1800C5F81834AEE7012388F83830FFF752FBDF
:100C2800FFF750FBFFF74EFBFFF74CFBFFF74AFBC4
:100C38000134042C07F8010BF8D1069C56E700BFD5
:100C480000E400E0003001401000002000100048DF
:100C580011B1002B00F0FA804FF0E0234FF0005262
:100C6800C3F88021002384F84430FFF754FBB4F81C
:100C78004C3013B12033A4F84C30B4F84CA0504693
:100C8800FFF766FB237EE52B18D0002BF3D0A3F1EA
:100C98004202122A17D994F8201057290BD194F838
:100CA8002120412A07D194F82230562B03D194F8F9
:100CB8002300202817D0B4F84C30DBE70AF1200ACB
:100CC800A4F84CA0D9E794F8232002F00F020F2AC9
:100CD800E1D1403BDBB20AEB431080B2A4F84C00F0
:100CE800FFF736FBD7E7207E8DF81800607E8DF879
:100CF8001900A07E8DF81A00E07E8DF81B00207F79
:100D08008DF81C00607F8DF81D00A07F8DF81E00F7
:100D1800E07F8DF81F002E208DF820008DF82330FD
:100D28000A2000238DF821108DF822208DF8243018
:100D3800FFF726FA0DF1180A1AF8010B002840F0FF
:100D4800AB8094F8383033B194F82D3094F82C00F7
:100D58001B0603EB004394F836A094F8352094F86A
:100D6800321094F83300B4F84AC04FEA0A4A0AEB42
:100D7800022A94F83420023901EB00219244B4F895
:100D8800460094F837200AEB026A421E02EB4C1226
:100D9800B2FBF0F26069C4F850A0104494F84820FF
:100DA8000B4402FB0300AAF5484A6065FFF76DFA99
:100DB8004FEA5A2316202364FFF7A4FAFFF782FAB2
:100DC800DFF838A18AF80800FFF77CFAFFF77AFA0B
:100DD8000390FFF777FA0290FFF774FA0190FFF794
:100DE80071FA019B0299039A1B0403EB0121114438
:100DF80001EB00620620CAF80C200192FFF782FA84
:100E0800FFF760FA8AF800000920FFF77BFA4FF035
:100E180080430021C3F82014019A3748B0FBF2F24E
:100E2800C3F82C2441F21112C3F82024022384F8B9
:100E38003C304FF4EA73CAF804304FF0E0234FF027
:100E48000052C3F80021012384F84430B8444FFA13
:100E580088F8B8F17D0F22DDCBF100077FB24FF0A3
:100E6800904294F8443012690099D243002B02F062
:100E780001020CBF4FF0030B4FF0010B914213D04E
:100E88009AB10B3DADB2762D8CBF002501252BB351
:100E98002B46002500923CE6FFF772F94CE7B8F1C3
:100EA800000F08BF5F46DAE70AB901352DB2782D81
:100EB80003DD23B1B9F1000F04D00023EAE7B9F14B
:100EC800000FE7D14FF0E0234FF00051C3F8801135
:100ED800002384F844304FF00109DBE7002DECD003
:100EE8004FF0E0214FF00050C1F80001012184F8D3
:100EF80044109946CDE700BF0090D00300000020C1
:100F0800DFF82CD0002103E00A4B5B584350043132
:100F180009480A4B42189A42F6D3094A02E00023CC
:100F280042F8043B074B9A42F9D3FFF723FBFEE74D
:100F380000A00020AC0F00080000002010000020D6
:100F48001000002068000020FEE702440346934298
:0C0F580000D1704703F8011BF9E700000E
:100F640008000000090000000A0000000C00000056
:100F74000D0000000E000000140000001600000028
:100F8400180000001A0000001C0000001E000000F1
:100F94000A0000000B0000000C0000000D0000001F
:080FA4000E0000000F00000028
:100FAC0008000000000200000200000044AC000039
:0400000508000F09D7
:00000001FF
