:020000040800F2
:1000000000000220310F0008790F0008790F000866
:10001000790F0008790F0008790F00080000000030
:10002000000000000000000000000000790F000840
:10003000790F000800000000790F0008A1030008F4
:10004000790F0008790F0008790F0008790F000870
:10005000790F0008790F0008790F0008790F000860
:10006000790F0008790F0008790F0008790F000850
:10007000790F0008790F0008790F0008790F000840
:10008000790F0008790F0008790F0008790F000830
:10009000790F0008790F0008790F0008790F000820
:1000A000790F0008790F0008790F0008790F000810
:1000B000790F0008B1030008790F0008790F0008D4
:1000C000790F0008790F0008790F0008790F0008F0
:1000D000790F0008790F0008790F0008790F0008E0
:1000E000790F0008790F0008790F0008790F0008D0
:1000F000790F0008790F0008790F0008790F0008C0
:10010000790F0008790F0008790F0008790F0008AF
:10011000790F0008790F0008790F0008790F00089F
:10012000790F0008790F0008790F0008790F00088F
:10013000790F0008790F0008790F0008790F00087F
:10014000790F0008790F0008790F0008790F00086F
:10015000790F0008790F0008790F0008790F00085F
:10016000790F0008790F0008790F0008790F00084F
:10017000790F0008790F0008790F000800000000CF
:08018000790F0008790F000857
:100188000A2810B5044602D10D20FFF7F9FF074BE6
:100198001A681AB1511C1960147010BD5B68002BE5
:1001A800FBD02046BDE81040184700BF10000020D3
:1001B800034A9368184493689842FCDC704700BF70
:1001C800100000200A46002100F0D3BE73B50B4D85
:1001D8000446AE6804210DEB0100FFF7F3FFB207F8
:1001E800F7D52C73054CA56804210DEB0100FFF72A
:1001F800E9FFEB07F7D5207B02B070BD0030014066
:10020800E4E7FF20E2E773B504464FF04026D6F84E
:10021800005404210DEB0100FFF7D4FF2B06F6D59F
:10022800014B1C7102B070BD00440040F8B50D468A
:100238001646044628B3082814BFFF278727FF203F
:10024800FFF7DEFF04F14000C0B2FFF7D9FF280E28
:10025800FFF7D6FFC5F30740FFF7D2FFC5F3072026
:10026800FFF7CEFFE8B2FFF7CBFF3846FFF7C8FF2E
:100278000A24FFF7C6FF0306307001D5013CF8D108
:10028800F8BD9527DBE713B500238DF807300A4B37
:100298000A4C4FF08072C3F81824237B012B0146C7
:1002A8000DF1070208BF41021220FFF7BFFF00232C
:1002B800E381238202B010BD00000240100000203C
:1002C80070B50E4DEC891CB9FFF79BFFFE28FBD1DA
:1002D800FFF797FF0134A4B2B4F5007F064602D0B9
:1002E800EC81304670BD0023EB812B8A01332B82D1
:1002F800FFF787FFFFF785FFF3E700BF1000002037
:1003080038B5054600240134FFF7DAFFA542FAD1D3
:1003180038BD13B500238DF807300B4B4FF08072B2
:10032800C3F8182404240DF1070200210C20FFF75C
:100338007DFF013CF7D1044B4FF48072C3F81824B9
:10034800C3F8182402B010BD000002402DE9F041A6
:100358000F4D06466869FFF796FF0024DFF83480E2
:100368000027FFF7ADFF0137202F08F8010BF8D160
:10037800A64202D1BDE8F041CBE795F838302034E9
:10038800A4B2002BEAD16B8FA342E7D8F2E700BFF3
:100398001000002028000020024A9368013393606F
:1003A800704700BF1000002070B54FF0804382B046
:1003B800D3F8104404210DEB0100FFF703FFE00719
:1003C80069D5674B67484FF480729A610378664A2B
:1003D800102B73D093689907FCD5FF21624B1173DA
:1003E8009A68D207FCD545681A7B6B1E4360037A6E
:1003F800022BD4B200F0858000232546194641EA35
:1004080004225A4C43EA052394F83C1045689BB2F1
:100418008A408B404FF08041160AD2B2C1F8386446
:10042800C1F840241A0ADBB2C1F83424C1F83C34BC
:10043800002D30D14C4B9A689507FCD5FF221A73D2
:10044800494B9A68D107FCD51B7B474B9A689207A2
:10045800FCD5FF221A73444A9368DE07FCD5236C47
:100468004FF400714160581E137B3F4B2064FF21FD
:100478009A689507FCD519739A68D207FCD51A7B38
:10048800FE2AF5D138B94FF0E0234FF00052C3F8F7
:10049800802184F84400324B4FF080454FF0807241
:1004A80004219A610DEB0100D5F81044FFF78AFE8C
:1004B80024F00104C5F8104402B070BD93689E078B
:1004C800FCD5FF21284B11739A68D507FCD5197BF9
:1004D800254BC9B29C68A407FCD5FF221A73224B8E
:1004E8009C68E207FCD51A7B4568037A82F0800491
:1004F800022BA5F10202426013D089B20B462546B1
:100508007DE7194B9A689207FCD5FF221A73164BA0
:100518009A68D607FCD51B7BAA1E4260DDB2002371
:100528006CE7114B9A689607FCD5FF221A730E4B9D
:100538009A68D207FCD51B7BDAB20B4B9E68B607CC
:10054800FCD5FF261E73084B9E68F607FCD51B7B5F
:10055800043D456089B283F0800593B24FE700BF40
:100568000000024000000020003001401000002080
:100578002DE9F04F4FF0E022C84FC94B7B60D2F80D
:10058800883DC84C43F46053C2F8883DD4F8005CF9
:100598008FB0082106A845F00505FFF713FEC4F83B
:1005A800005CD4F8005C082106A8FFF70BFE15F0E4
:1005B800050FF6D0D4F80058042106A845F0010527
:1005C800FFF700FEC4F80058B64CD4F8005806A847
:1005D8000421FFF7F7FDA807F7D545F21043C4F843
:1005E8000438D4F80058042106A845F08075FFF7B0
:1005F800E9FDC4F80058AB4CD4F80058042106A80B
:10060800FFF7E0FDA901F7D5D4F8083843F41443FF
:10061800C4F80838D4F80858042145F0020506A89B
:10062800FFF7D0FDC4F808589E4DD5F808480421B6
:1006380006A8FFF7C7FD2207F7D5D5F830480421EB
:1006480006A844F00104FFF7BDFDC5F83048964CF4
:100658002668042106A846F48036FFF7B3FD266015
:10066800D5F83068042106A846F00106FFF7AAFD70
:10067800C5F830682668082106A826F00306FFF7A3
:10068800A1FD2660D5F83068042106A846F00206C8
:10069800FFF798FDC5F83068D4F80064042106A86F
:1006A80046F48036FFF78EFDC4F80064D5F830684C
:1006B800042106A846F00806FFF784FDC5F830684F
:1006C800D4F8006C042106A8FFF77CFD4FF0E02366
:1006D800764A46F08076C4F8006C5A61744AF02174
:1006E80082F82310002607229E611A61D5F8308807
:1006F800042106A8FFF766FD48F00103C5F8303865
:10070800D5F84088042106A8FFF75CFD48F40033BB
:10071800C5F840382568082106A845F0A005FFF768
:1007280051FD2560E568042106A845F04005FFF75E
:1007380049FDE56018215F4DD4F820800DEB0100DC
:10074800FFF740FD0FCD06AC0FC495E80300334614
:1007580084E80300324606A8012450F8041B01323D
:1007680004FA01F1062A43EA0103F6D14E4D4FF08F
:10077800402643EA08032B624FF4B673C6F80834E0
:100788004D4BDC6844F400540C2106A844F00C04DA
:10079800FFF718FDC6F80C44424CD4F8446804210D
:1007A80006A846F48056FFF70DFDC4F84468D4F84F
:1007B8003068042106A846F00106FFF703FDC4F8D7
:1007C80030682C680C2106A844F42844FFF7FAFC8A
:1007D8002C6018212E6A394D0DEB0100FFF7F2FC51
:1007E8000FCD06AC0FC495E80300002384E803008E
:1007F8001A4606A8012450F8041B013204FA01F134
:10080800062A43EA0103F6D1274A2D4D334318211E
:1008180013620DEB01009668FFF7D4FC0FCD06AC10
:100828000FC495E80300002384E803001A4606A8CD
:10083800012450F8041B013204FA01F1062A43EAA4
:100848000103F6D1184CDFF85C803343A360E568F8
:10085800082106A845F4C055FFF7B4FCE560194D1A
:100868002E68042106A846F00406FFF7ABFC2E60AC
:100878002E68042106A846F01006FFF7A3FC2E6098
:100888002E68082106A846F44076FFF79BFC2E60E8
:100898002E68042106A846F0400615E01000002046
:1008A8000F02000800300240000002403F900200A2
:1008B80000ED00E08C0F000800440040A40F000881
:1008C800BC0F000800300140FFF77CFC2E60D8F810
:1008D8004068042106A846F00206FFF773FCC8F832
:1008E80040684FF080460821D6F8009406A8FFF724
:1008F80069FC49F08103C6F80034D6F80C94042149
:1009080006A8FFF75FFC49F00103C6F80C34D04B8A
:100918004FF00009C6F8289483F81D90D8F830A83D
:10092800042106A8FFF74EFC4AF00203C8F8303845
:10093800D4F800A4082106A8FFF744FC4AF4206371
:10094800C4F80034D4F820A4082106A8FFF73AFC1C
:100958004AF40813C4F82034D4F80CA4042106A8D7
:10096800FFF730FC2AF48073C4F80C34D8F830A8A8
:10097800042106A8FFF726FC4AF00403C8F830381B
:10098800D4F80088082106A8FFF71CFC48F42023A7
:10099800C4F80038D4F82488082106A8FFF712FC08
:1009A80048F02203C4F824384FF4EE63C6F82094C4
:1009B800C6F82C3446F66803C6F81834C6F81C3452
:1009C80041F21113C6F82034D6F81484042106A87D
:1009D800FFF7F8FB48F00103C6F814344FF08076AF
:1009E80000238DF81730D5F80080042106A8FFF7FA
:1009F800E9FB48F040032B60D5F8008006A80C21DD
:100A0800FFF7E0FB48F038032B600220C4F81864B5
:100A1800FFF7CEFB4FF48073C4F818344FF00A0880
:100A2800FF20FFF7EDFBB8F10108F9D14FF064089A
:100A38009DF81710002900F09180C4F818640DF192
:100A480017024FF4D5710820FFF7F0FB9DF8173017
:100A58005B0740F19D8001233B734FF48073C4F81A
:100A68001864C4F818347B4C2568042106A845F09E
:100A78001005FFF7A7FB25602568082106A825F0C3
:100A88002805FFF79FFB25600020FFF7FCFB4FF4CC
:100A9800E370FFF735FC0DF1180845460024FFF711
:100AA8000FFC0134042C05F8010BF8D106980090CE
:100AB800FFF72FFC0098FFF7E6FB06AD0024FFF7D1
:100AC800FFFB0134202C05F8010BF8D1BDF82330C9
:100AD800BDF82E40BDF82960A7F846309DF82530AE
:100AE800BDF826509DF82890DDF834A087F84830E6
:100AF800A7F84A60002C00F097805544760104FB63
:100B080009547E8700250126DFF850B17C61B24682
:100B1800FFF7FFFB2F46A8462A4600962C46DBF82F
:100B28000810DBF8400009314FF4805C4FF0805E1C
:100B3800DBF808904945C0F29380002800F09480C3
:100B4800AF42454B05F101056DB2D4BFC3F818ECAF
:100B5800C3F818CC7D2D08BF0025E9E70220FFF770
:100B680027FB0220C4F81864FFF722FB0DF11702D7
:100B78000846FFF75BFB4FF48073B8F10108C4F82F
:100B880018347FF455AF4FF47A70FFF711FB27E75D
:100B98004FF00408FFF735FBB8F101088DF817008E
:100BA800F8D14FF48073AA28C4F8183439D14FF01B
:100BB8008073C4F818340DF1170200213720FFF7AD
:100BC80035FB4FF080410DF117022920FFF72EFB6E
:100BD8009DF817100029EED10DF117023A20FFF702
:100BE80025FBFFF70EFB80F04000C0F38010387340
:100BF800FFF707FB8DF81700FFF703FB8DF81700C9
:100C0800FFF7FFFA0DF117028DF817004FF4007186
:100C18001020FFF70BFB104B4FF48072C3F8182419
:100C280021E7C4F81834AEE7012387F83830FFF716
:100C380047FBFFF745FBFFF743FBFFF741FBFFF7D8
:100C48003FFB0134042C08F8010BF8D1069C54E74B
:100C580000E400E0003001400000024010000020E5
:100C680010B1002A00F009814FF0E0224FF0005146
:100C7800C2F8801100228BF84420FFF74AFBBBF82A
:100C88004C2012B12032ABF84C20BBF84C904846AF
:100C9800FFF75CFB9BF81820E52A19D0002AF2D050
:100CA800A2F14201122918D99BF8200057280CD12B
:100CB8009BF82110412908D19BF82220562A04D1FB
:100CC8009BF823C0BCF1200F17D0BBF84C20D9E704
:100CD80009F12009ABF84C90D7E79BF8231001F0F5
:100CE8000F010F29E0D1403AD2B209EB421080B28D
:100CF800ABF84C00FFF72AFBD6E79BF818C08DF835
:100D080018C09BF819C08DF819C09BF81AC08DF847
:100D18001AC09BF81BC08DF81BC09BF81CC08DF82F
:100D28001CC09BF81DC08DF81DC09BF81EC08DF817
:100D38001EC09BF81FC08DF81FC08DF821004FF012
:100D48002E0C8DF823200A2000228DF820C08DF863
:100D580022108DF82420FFF713FA0DF1180919F85D
:100D6800010B002840F0AC809BF8382032B19BF88A
:100D78002D209BF82C00120602EB00429BF83690BF
:100D88009BF835109BF832C09BF83300BBF84AE05B
:100D98004FEA094909EB01299BF83410ACF1020C20
:100DA8000CEB002C8944BBF846009BF8371009EB84
:100DB8000169411E01EB4E11B1FBF0F1DBF81400A3
:100DC800CBF8509008449BF84810624401FB02009D
:100DD800A9F54849CBF85400FFF755FA4FEA5922CC
:100DE8001620CBF84020FFF78BFAFFF769FADFF8F7
:100DF800349189F80800FFF763FAFFF761FA019068
:100E0800FFF75EFA0390FFF75BFA0290FFF758FAD4
:100E1800029A0399019B120402EB01221A4402EB85
:100E280000610620C9F80C100191FFF769FAFFF775
:100E380047FA89F800000920FFF762FA4FF080426C
:100E48000020C2F8200401993448B0FBF1F1C2F83F
:100E58002C1441F21111C2F8201402228BF83C2004
:100E68004FF4EA72C9F804204FF0E0224FF0005125
:100E7800C2F8001101228BF8442037447FB27D2F3D
:100E880021DDCAF1000676B2254B9BF8442019698A
:100E9800009BC943002A01F001010CBF4FF0030A6F
:100EA8004FF0010A8B4212D091B10B3CA4B2762CC0
:100EB8008CBF0024012422B32246002400912EE690
:100EC800FFF75EF94BE7002F08BF5646DCE709B984
:100ED800013424B2782C03DD22B1B8F1000F04D01C
:100EE8000022EBE7B8F1000FE8D14FF0E0224FF015
:100EF8000050C2F8800100228BF844204FF001080E
:100F0800DCE7002CECD04FF0E0204FF00054C0F8A4
:100F1800004101208BF844009046CEE700BD010552
:100F28000000024000000020DFF82CD0002103E080
:100F38000A4B5B584350043109480A4B42189A42FD
:100F4800F6D3094A02E0002342F8043B074B9A42D1
:100F5800F9D3FFF70DFB704700000220D40F0008FB
:100F68000000002010000020100000206800002071
:100F7800FEE702440346934200D1704703F8011B81
:040F8800F9E7000085
:100F8C0008000000090000000A0000000C0000002E
:100F9C000D0000000E000000140000001600000000
:100FAC00180000001A0000001C0000001E000000C9
:100FBC000A0000000B0000000C0000000D000000F7
:080FCC000E0000000F00000000
:100FD40008000000000200000200000044AC000011
:0400000508000F31AF
:00000001FF
