:020000040800F2
:1000000000A000201102000859020008590200084F
:1000100059020008590200085902000800000000B7
:10002000000000000000000000000000590200086D
:10003000590200080000000059020008E902000807
:100040005902000859020008590200085902000824
:100050005902000859020008590200085902000814
:100060005902000859020008590200085902000804
:1000700059020008590200085902000859020008F4
:1000800059020008590200085902000859020008E4
:1000900059020008590200085902000859020008D4
:1000A00059020008590200085902000859020008C4
:1000B0005902000805060008590200085902000804
:1000C00059020008590200085902000859020008A4
:1000D0005902000859020008590200085902000894
:1000E0005902000859020008590200085902000884
:1000F0005902000859020008590200085902000874
:10010000000000000000000000000000590200088C
:100110005902000859020008590200085902000853
:100120005902000859020008590200085902000843
:1001300059020008590200080000000000000000F9
:100140005902000859020008590200080000000086
:10015000000000000000000000000000000000009F
:1001600000000000000000005902000859020008C9
:10017000590200080000000000000000000000001C
:08018000000000005902000814
:1001880010B5054C237833B9044B13B10448AFF3C9
:1001980000800123237010BD3C04002000000000F3
:1001A8001C12000808B5034B1BB103490348AFF301
:1001B800008008BD00000000400400201C12000858
:1001C8000A2810B5044602D10D20FFF7F9FF074AA7
:1001D80013681BB1591C11601C7010BD044B1B68BF
:1001E800002BFAD02046BDE81040184758040020DC
:1001F8005C04002010B5441E14F8010F00B910BDAE
:10020800FFF7DEFFF8E70000DFF82CD0002103E05D
:100218000A4B5B584350043109480A4B42189A422A
:10022800F6D3094A02E0002342F8043B074B9A42FE
:10023800F9D300F027FFFEE700A000208C12000889
:10024800000000203C0400203C040020B4040020EE
:10025800FEE770474FF04022D2F81C341B06FBD54E
:10026800014B83F82800704700440040014B024AC4
:100278001A6070475C0400205D0200084FF080435C
:10028800D3F8100400F0010070474FF08042D2F814
:10029800103423F00103C2F810347047044B18B12E
:1002A8004FF400629A6170474FF00062FAE700BFAE
:1002B800001000484FF090431869C04300F0010057
:1002C80070474FF090434FF08072C3F8182470477E
:1002D8004FF090434FF48072C3F818247047000021
:1002E800024A136801331360704700BF600400209E
:1002F800034A1368184413689842FCDC704700BF2F
:1003080060040020014B1868704700BF600400209B
:10031800044B9A689107FCD518739A68D207FCD5E4
:10032800187B704700300140FF20FFF7F1BFFFF74F
:10033800EFBFF8B50D461646044628B3082814BF83
:10034800FF278727FF20FFF7F2FF04F14000C0B224
:10035800FFF7EDFF280EFFF7EAFFC5F30740FFF7A9
:10036800E6FFC5F30720FFF7E2FFE8B2FFF7DFFF7C
:100378003846FFF7DCFF0A24FFF7D6FF0306307084
:1003880001D5013CF8D1F8BD9527DBE713B500236B
:100398008DF807300B4B04461860FFF792FF0A4BA5
:1003A8001B78012B08BF64020DF1070221461220B9
:1003B800FFF7BFFF054A00231380054A138002B0E8
:1003C80010BD00BF6C0400206604002064040020F7
:1003D8006804002038B50F4C23881BB9FFF7A4FF29
:1003E800FE28FBD1FFF7A0FF238801339BB2B3F5AA
:1003F800007F054602D02380284638BD064A0023E0
:100408002380138801331380FFF78EFFFFF78CFFDB
:10041800F2E700BF640400206804002038B50546F0
:100428000024AC4203D0FFF7D5FF0134F9E738BD0B
:1004380013B500238DF80730FFF743FF04240DF1AF
:10044800070200210C20FFF774FF013CF7D1FFF7EA
:100458003FFF02B010BD08B5FFF7EAFFBDE808404E
:10046800FFF736BF2DE9F843114BDFF84C90DFF862
:100478004C8005461868FFF789FF00240D4F0026B9
:10048800FFF7A8FF0136202E07F8010BF8D1AC4280
:1004980003D1BDE8F843FFF7DEBF99F800302034F8
:1004A800A4B2002BEAD1B8F80030A342E6D8F0E7AE
:1004B8009C04002075040020A0040020A60400204D
:1004C80030B5454D2B8885B00BB120332B80434C7C
:1004D8002888FFF7C7FF2378E52B12D00BB92B80AC
:1004E800F6E7A3F14202122A0ED9217A572908D138
:1004F800627A412A05D1A37A562B02D1E07A2028C4
:1005080011D02B882033EAE7E27A02F00F020F2A93
:10051800EBD12888403BDBB200EB431398B228802C
:10052800FFF7A0FFE1E720788DF8000060788DF8EC
:100538000100A0788DF80200E0788DF8030020799A
:100548008DF8040060798DF80500A0798DF8060013
:10055800E0798DF807002E208DF808008DF80B3013
:100568000A2000238DF80A208DF80C308DF8091028
:10057800FFF726FE6846FFF73DFE194B1A7822B1B1
:10058800627D237D120602EB0342A07EE37EA17FFB
:10059800023800EB0320637F090401EB0321237F6A
:1005A8001944E37F01EB03610E4B19600E4B198868
:1005B8000E4B1C884B1E03EB4413B3FBF1F30C49A1
:1005C80009680B440B490978024401FB02330A4AC3
:1005D800136005B030BD00BFA804002075040020DA
:1005E800A004002098040020A2040020A4040020F5
:1005F8009C040020740400207004002038B5FFF724
:100608003DFE00286CD04FF09042634B4FF4807150
:1006180091611B78614A102B6BD093689907FCD5C0
:10062800FF215E4B11739A68D207FCD55C485D4C7C
:100638001A7B016823784C1E022B04605FFA82FC47
:100648007BD000236446194641EA0C22564943EA06
:10065800042309789BB28A408B404FF08041140AEA
:10066800C1F83844D2B21C0ADBB2C1F84024C1F840
:100678003444C1F83C340368002B31D1474A9368AD
:100688009907FCD5FF21454B11739A68D207FCD511
:100698001B7B424A93689D07FCD5FF213F4B117392
:1006A8009A68D407FCD5414A1B7B14683B4B4FF42E
:1006B8000071013C01601460FF219A689007FCD525
:1006C80019739A68D207FCD51A7BFE2AF5D13CB972
:1006D800374B4FF0E0224FF00051C2F880111C70E8
:1006E8004FF090434FF080729A61BDE83840FFF7B1
:1006F800CCBD93689D07FCD5FF21284B11739A68E0
:10070800D407FCD5197B254AC9B293689807FCD54C
:10071800FF20224B10739A68D207FCD520481A7B19
:100728000468A31E03601F4B1B78022B82F0800C09
:1007380013D089B20B46644686E7184B9A6895072A
:10074800FCD5FF221A73154B9A68D407FCD51C7B7D
:1007580002390023E4B2016075E7104B9A689507E7
:10076800FCD5FF221A730D4B9A68D207FCD51B7B68
:10077800DAB20A4B9D68AD07FCD5FF251D73074B00
:100788009D68ED07FCD51B7B043C046089B283F0AF
:10079800800493B258E700BF0100002000300140F8
:1007A8000800002000000020AA040020AC0400205B
:1007B800AB0400200A46002100F06ABC37B50B4C98
:1007C800A56804210DEB0100FFF7F4FFAA07F7D590
:1007D800FF232373054CA56804210DEB0100FFF7E7
:1007E800E9FFEB07F7D5207B03B030BD00300140AF
:1007F800FFF7E4BF4FF0E0222DE9F04FD2F8883D33
:10080800BA4C43F46053C2F8883D25688FB0042180
:1008180006A845F00205FFF7CDFF256025680421ED
:1008280006A8FFF7C7FFAD07F8D5B14C2568042126
:1008380006A845F00105FFF7BDFF2560256806A855
:100848000421FFF7B7FFA807F8D56568042106A8B3
:1008580025F48025FFF7AEFF656065680C2106A8C2
:1008680045F46015FFF7A6FF65602568042106A812
:1008780045F08075FFF79EFF25602568042106A8CE
:10088800FFF798FFA901F8D56568042106A825F0A7
:100898000105FFF78FFF65606568042106A845F02C
:1008A8000205FFF787FF65606568042106A8FFF762
:1008B80081FF2A07F8D565694FF09046042106A8FC
:1008C80045F40035FFF776FF65613568042106A811
:1008D80045F48035FFF76EFF35606569042106A889
:1008E80045F40015FFF766FF6561824D2F68042106
:1008F80006A847F48037FFF75DFF2F60676904217A
:1009080006A847F40037FFF755FF676137680821E5
:1009180006A827F00307FFF74DFF37606769042132
:1009280006A847F48027FFF745FF6761D6F80074EB
:10093800042106A847F48037FFF73CFFC6F8007487
:100948006769042106A847F40017FFF733FF6761BA
:100958002F68042106A8FFF72DFF4FF0E02347F486
:1009680080074FF6FF122F605A61634AF02182F820
:100978002310002507229D611A61E769042106A852
:1009880047F40037FFF716FFE7616769042106A8F7
:1009980047F40037FFF70EFF67613768082106A89C
:1009A80047F0A007FFF706FF37601821534FD6F826
:1009B80020800DEB0100FFF7FDFE0FCF06AE0FC63E
:1009C80097E803002B4686E803002A4606A8012577
:1009D80050F8041B013205FA01F1062A43EA010323
:1009E800F6D14FF090454FF0402743EA08032B62B9
:1009F80040F22B23C7F80C34414B1E680C2106A883
:100A080046F00D06FFF7D6FEC7F80064A669042174
:100A180006A846F48056FFF7CDFEA6616669042154
:100A280006A846F40036FFF7C5FE66612E680C215D
:100A380006A846F42846FFF7BDFE2E601821314E61
:100A48002F6A0DEB0100FFF7B5FE0FCE06AD0FC5FF
:100A580096E80300002385E803001A4606A8012546
:100A680050F8041B013205FA01F1062A43EA010392
:100A7800F6D14FF090423B431821234E13620DEB01
:100A880001009768FFF796FE0FCE06AD0FC596E8F2
:100A98000300002385E803001A4606A8012550F83C
:100AA800041B013205FA01F1062A43EA0103F6D1D3
:100AB8003B434FF090470821BB60FD6806A845F40A
:100AC800C055FFF777FEFD60104D2E68042106A87B
:100AD80046F00406FFF76EFE2E602E68042106A875
:100AE80046F00806FFF766FE2E6011E0002002407F
:100AF800001002400010004800ED00E03412000829
:100B0800004400404C120008641200080030014004
:100B18006E680C2106A846F4E066FFF74BFE6E608F
:100B28002E68082106A846F44076FFF743FE2E609B
:100B38006E68042106A846F48056FFF73BFE6E60F7
:100B48002E68042106A846F04006FFF733FE2E6003
:100B5800E669042106A846F00206FFF72BFEE661C7
:100B68004FF080460821D6F8008406A8FFF722FE39
:100B780048F08103C6F80034D6F80C84042106A88E
:100B8800FFF718FE48F00103C6F80C34C24B4FF0CB
:100B98000008C6F8288483F81D80D4F8149004212E
:100BA80006A8FFF707FE49F480236361D7F800948D
:100BB800082106A8FFF7FEFD49F42063C7F80034B2
:100BC800D7F82094082106A8FFF7F4FD49F4081384
:100BD800C7F82034D4F81490042106A8FFF7EAFDDA
:100BE80049F400236361D7F80048082106A844F4B3
:100BF8002024FFF7DFFDC7F80048D7F8244808216C
:100C080006A8FFF7D7FD44F0220440F2AB53C7F81B
:100C18002448C6F82084C6F82C3446F66803C6F87B
:100C28001834C6F81C3441F21113C6F82034D6F82B
:100C38001444042106A844F00104FFF7BBFDC6F8DC
:100C48001444FFF706FB8DF817802C68042106A8CA
:100C580044F04004FFF7AEFD2C602C68042106A880
:100C680024F01004FFF7A6FD2C60FFF72AFB0220F2
:100C7800FFF73EFBFFF72CFB0A24FFF79FFD013C23
:100C8800FBD164249DF81760002E00F0A380FFF7C5
:100C980018FB0DF117024FF4D5710820FFF749FB37
:100CA8009DF817305B0740F1B0807C4B01221A7029
:100CB800FFF707FB7A4CFFF70BFB2568042106A812
:100CC80045F00805FFF776FD25602568082106A888
:100CD80025F03005FFF76EFD25600020FFF756FB75
:100CE8004FF4E370FFF79AFB06AF3D460024FFF789
:100CF80071FB0134042C05F8010BF8D1069800901B
:100D0800FFF7A9FB0098FFF741FB06AD0024FFF7AA
:100D180061FB0134202C05F8010BF8D1614BBDF8BB
:100D280023201A80604B9DF82520604EBDF82E4088
:100D38001A70BDF82930BDF826509DF82880DDF8D6
:100D48003490338094B95A4B01221A70FFF742FB52
:100D5800FFF740FBFFF73EFBFFF73CFBFFF73AFBD3
:100D68000134042C07F8010BF8D1069C514B524A68
:100D7800DFF84CA14D4404FB08541C603388DFF8AD
:100D8800448100245B01012613802746FFF763FB9B
:100D9800A146FFF75EFA2546009602940196FFF7F2
:100DA800B1FA00F1090BFFF7ADFA5845DAF800304F
:100DB80000F38A80002B00F08B80A74204F1010425
:100DC800D4BF0020012064B2FFF768FA7D2C08BF69
:100DD8000024E8E70220FFF78BFAFFF772FA0220F7
:100DE800FFF786FA0DF1170231463046FFF7A1FAF0
:100DF800FFF76EFA013C7FF445AF304B01221A70C1
:100E08004FF47A70FFF774FA1DE70424FFF7F0FC3B
:100E1800013C8DF81700F9D1FFF75AFA9DF8173001
:100E2800AA2B33D1FFF74DFA0DF117020021372015
:100E3800FFF77FFA4FF080410DF117022920FFF7E5
:100E480078FA9DF817100029EED10DF117023A2013
:100E5800FFF76FFAFFF7CCFC104B80F04000C0F3AF
:100E680080101870FFF7C4FC8DF81700FFF7C0FC5E
:100E78008DF81700FFF7BCFC0DF117028DF817006D
:100E88004FF400711020FFF754FA13E70B4B0122BF
:100E98001A70FFF71DFAB3E700E400E066040020CB
:100EA80000300140A204002074040020A4040020A3
:100EB800A00400209C040020A60400206704002051
:100EC800AC040020AB04002013B1B9F1000F5FD0CF
:100ED8004FF0E0224FF000530021C2F8803188F82B
:100EE8000010FFF7B8FAFFF7EBFA524B1868FFF754
:100EF8004DFA514B1B68A3F548435B0A1620CAF804
:100F08000030FFF78BFAFFF765FA4C4B1870FFF7C4
:100F180061FAFFF75FFA0390FFF75CFA8346FFF781
:100F280059FA81464FEA0949FFF754FA039A444BA4
:100F380009EB0B2B5A4402EB006206201A60FFF7FC
:100F48006DFAFFF747FA3F4A10700920FFF766FA73
:100F58003B4B3D4A1868B2FBF0F24FF0804300214A
:100F6800C3F82014C3F82C2441F21112C3F820242A
:100F7800364B02221A70364B4FF4EA721A604FF061
:100F8800E0224FF00053C2F80031012388F8003006
:100F980037447FB27D2F009B2FDD5E4276B298F8F2
:100FA8000030002B0CBF032301230093FFF782F9C5
:100FB800019B984225D030B3A5F10B091FFA89F996
:100FC800B9F1760F8CBF4FF000094FF001090025E9
:100FD800029B98F80020F2B9B9F1000F1BD04FF02E
:100FE800E0234FF00051C3F80011012388F80030C6
:100FF80091461346CDE90103D1E6002F08BF1E46EE
:10100800CDE7019B0BB901352DB2782D4FF00009C2
:10101800DEDD0123DDE7029A9A42EBD0002BE9D00E
:101028004FF0E0224FF00051C2F88011002288F8FA
:101038000020DFE770040020980400200000002052
:1010480004000020010000200090D003AA04002022
:1010580008000020FFF70AB9FFF7CCBB82B0024BAB
:101068000193019B02B018475D10000807B5FFF710
:10107800F5FF034B0193019B03B05DF804EB1847A0
:101088006110000808B5FFF7F1FF002008BD000057
:10109800830730B548D0541E002A3FD0CAB2034651
:1010A80001E0013C3AD303F8012B9D07F9D1032C49
:1010B8002DD9CDB245EA05250F2C45EA054536D987
:1010C800A4F1100222F00F0C03F1200EE6444FEABF
:1010D800121C03F1100242E9045542E9025510328C
:1010E8007245F8D10CF1010214F00C0F03EB021257
:1010F80004F00F0C13D0ACF1040323F00303043302
:10110800134442F8045B9342FBD10CF003042CB166
:10111800CAB21C4403F8012B9C42FBD130BD644683
:101128001346002CF4D1F9E703461446BFE71A46E4
:10113800A446E0E7024B13B1024800F005B8704737
:10114800000000005D110008002301461A461846F9
:1011580000F01AB838B5084B084D5B1B9C1007D037
:10116800043B1D44013C55F804399847002CF9D13B
:10117800BDE8384000F054B88C1200088812000806
:10118800704700BF704700BF2DE9F047DFF880A027
:101198000646DAF8000098460F469146FFF7F0FF3A
:1011A8001A4B1B68D3F8484124B365681F2D26DC09
:1011B8005EB96B1C0235DAF80000636044F82570EC
:1011C800FFF7E0FF0020BDE8F08704EB850101236D
:1011D800C1F88890D4F88821AB401A43022EC4F88D
:1011E8008821C1F80881E4D1D4F88C211343C4F8CC
:1011F8008C31DEE703F5A674C3F84841D5E7DAF881
:101208000000FFF7BFFF4FF0FF30DCE77C1200085B
:1012180038040020F8B500BFF8BC08BC9E467047EB
:0C122800F8B500BFF8BC08BC9E4670473B
:1012340008000000090000000A0000000C00000083
:101244000D0000000E000000140000001600000055
:10125400180000001A0000001C0000001E0000001E
:101264000A0000000B0000000C0000000D0000004C
:0C1274000E0000000F0000001000002021
:081280003D110008AD0100085A
:0412880089010008D0
:10128C000208000044AC0000000200000000000056
:10129C0000000000FC02002064030020CC030020AE
:1012AC000000000000000000000000000000000032
:1012BC000000000000000000000000000000000022
:1012CC000000000000000000000000000000000012
:1012DC000000000000000000000000000000000002
:1012EC0000000000000000000000000000000000F2
:1012FC0000000000000000000000000000000000E2
:10130C0000000000000000000000000000000000D1
:10131C0000000000000000000000000000000000C1
:10132C0000000000000000000000000000000000B1
:10133C0000000000000000000100000000000000A0
:10134C000E33CDAB34126DE6ECDE05000B00000065
:10135C000000000000000000000000000000000081
:10136C000000000000000000000000000000000071
:10137C000000000000000000000000000000000061
:10138C000000000000000000000000000000000051
:0C16BC000000000000000000B00400204E
:0400000508000211DC
:00000001FF
