:020000040800F2
:10000000000002204D0F0008950F0008950F000812
:10001000950F0008950F0008950F000800000000DC
:10002000000000000000000000000000950F000824
:10003000950F000800000000950F00084D0D000806
:10004000950F0008950F0008950F0008950F000800
:10005000950F0008950F0008950F0008950F0008F0
:10006000950F0008950F0008950F0008950F0008E0
:10007000950F0008950F0008950F0008950F0008D0
:10008000950F0008950F0008950F0008950F0008C0
:10009000950F0008950F0008950F0008950F0008B0
:1000A000950F0008950F0008950F0008950F0008A0
:1000B000950F00085D0D0008950F0008950F0008CA
:1000C000950F0008950F0008950F0008950F000880
:1000D000950F0008950F0008950F0008950F000870
:1000E000950F0008950F0008950F0008950F000860
:1000F000950F0008950F0008950F0008950F000850
:10010000950F0008950F0008950F0008950F00083F
:10011000950F0008950F0008950F0008950F00082F
:10012000950F0008950F0008950F0008950F00081F
:10013000950F0008950F0008950F0008950F00080F
:10014000950F0008950F0008950F0008950F0008FF
:10015000950F0008950F0008950F0008950F0008EF
:10016000950F0008950F0008950F0008950F0008DF
:10017000950F0008950F0008950F0008000000007B
:08018000950F0008950F00081F
:100188000A2810B5044602D10D20FFF7F9FF074BE6
:100198001A681AB1511C1960147010BD5B68002BE5
:1001A800FBD02046BDE81040184700BF10000020D3
:1001B800034A9368184493689842FCDC704700BF70
:1001C80010000020014B024A5A60704710000020BE
:1001D8001F0200080A46002100F0D9BE73B50B4D76
:1001E8000446AE6804210DEB0100FFF7F3FFB207E8
:1001F800F7D52C73054CA56804210DEB0100FFF71A
:10020800E9FFEB07F7D5207B02B070BD0030014055
:10021800E4E7FF20E2E773B504464FF04026D6F83E
:10022800005404210DEB0100FFF7D4FF2B06F6D58F
:10023800014B1C7102B070BD00440040F8B50D467A
:100248001646044628B3082814BFFF278727FF202F
:10025800FFF7DEFF04F14000C0B2FFF7D9FF280E18
:10026800FFF7D6FFC5F30740FFF7D2FFC5F3072016
:10027800FFF7CEFFE8B2FFF7CBFF3846FFF7C8FF1E
:100288000A24FFF7C6FF0306307001D5013CF8D1F8
:10029800F8BD9527DBE713B500238DF807300A4B27
:1002A8000A4C4FF08072C3F81824237B012B0146B7
:1002B8000DF1070208BF41021220FFF7BFFF00231C
:1002C800E381238202B010BD00000240100000202C
:1002D80070B50E4DEC891CB9FFF79BFFFE28FBD1CA
:1002E800FFF797FF0134A4B2B4F5007F064602D0A9
:1002F800EC81304670BD0023EB812B8A01332B82C1
:10030800FFF787FFFFF785FFF3E700BF1000002026
:1003180038B5054600240134FFF7DAFFA542FAD1C3
:1003280038BD13B500238DF807300B4B4FF08072A2
:10033800C3F8182404240DF1070200210C20FFF74C
:100348007DFF013CF7D1044B4FF48072C3F81824A9
:10035800C3F8182402B010BD000002402DE9F04196
:100368000F4D06466869FFF796FF0024DFF83480D2
:100378000027FFF7ADFF0137202F08F8010BF8D150
:10038800A64202D1BDE8F041CBE795F838302034D9
:10039800A4B2002BEAD16B8FA342E7D8F2E700BFE3
:1003A80010000020280000204FF0E0222DE9F04F37
:1003B800D2F8883DC84C43F46053C2F8883DD4F85D
:1003C800005C8FB0082106A845F00505FFF702FF7D
:1003D800C4F8005CD4F8005C082106A8FFF7FAFE10
:1003E80015F0050FF6D0D4F80058042106A845F0FA
:1003F8000105FFF7EFFEC4F80058B74CD4F80058D1
:1004080006A80421FFF7E6FEA807F7D545F2104332
:10041800C4F80438D4F80058042106A845F08075BB
:10042800FFF7D8FEC4F80058AB4CD4F800580421A4
:1004380006A8FFF7CFFEA901F7D5D4F8083843F48A
:100448001443C4F80838D4F80858042145F00205C4
:1004580006A8FFF7BFFEC4F808589F4DD5F808480E
:10046800042106A8FFF7B6FE2207F7D5D5F83048CD
:10047800042106A844F00104FFF7ACFEC5F8304893
:10048800964C2668042106A846F48036FFF7A2FE9B
:100498002660D5F83068042106A846F00106FFF763
:1004A80099FEC5F830682668082106A826F00306D4
:1004B800FFF790FE2660D5F83068042106A846F0BC
:1004C8000206FFF787FEC5F83068D4F800640421F7
:1004D80006A846F48036FFF77DFEC4F80064D5F818
:1004E8003068042106A846F00806FFF773FEC5F831
:1004F8003068D4F8006C042106A8FFF76BFE4FF0B3
:10050800E023774A46F08076C4F8006C5A61754A51
:10051800F02182F82310002607229E611A61D5F87F
:100528003078042106A847F00107FFF753FEC5F805
:100538003078D5F84078042106A847F40037FFF74B
:1005480049FEC5F840782568082106A845F0A005A9
:10055800FFF740FE2560E568042106A845F0400540
:10056800FFF738FEE56018215F4D276A0DEB0100A3
:10057800FFF730FE0FCD06AC0FC495E803003346F5
:1005880084E80300324606A8012450F8041B01320F
:1005980004FA01F1062A43EA0103F6D14F4D4FF060
:1005A80040263B432B624FF4B673C6F808344F4BD2
:1005B800DC6844F400540C2106A844F00C04FFF74E
:1005C80009FEC6F80C44444CD4F84468042106A833
:1005D80046F48056FFF7FEFDC4F84468D4F8306846
:1005E800042106A846F00106FFF7F4FDC4F83068B8
:1005F8002C680C2106A844F42844FFF7EBFD2C6076
:1006080018212E6A3A4D0DEB0100FFF7E3FD0FCDDF
:1006180006AC0FC495E80300002384E803001A46DB
:1006280006A8012450F8041B013204FA01F1062A35
:1006380043EA0103F6D1294A2E4D334318211362A8
:100648000DEB01009668FFF7C5FD0FCD06AC0FC492
:1006580095E80300002384E803001A4606A801244D
:1006680050F8041B013204FA01F1062A43EA010397
:10067800F6D11A4C184F3343A360E568082106A841
:1006880045F4C055FFF7A6FDE5601B4D2E68042113
:1006980006A846F00406FFF79DFD2E602E6804218B
:1006A80006A846F01006FFF795FD2E602E68082173
:1006B80006A846F44076FFF78DFD2E602E680421CB
:1006C80006A846F04006FFF785FD2E60D7F840687B
:1006D800042106A812E000BF0030024000000240DA
:1006E8003F90020000ED00E0A80F00080044004021
:1006F800C00F0008D80F00080030014046F002067D
:10070800FFF768FDC7F840684FF080460821D6F823
:10071800008406A8FFF75EFD48F08103C6F80034A0
:10072800D6F80C84042106A8FFF754FD48F001030D
:10073800C6F80C34CD4B4FF00008C6F8288483F86F
:100748001D80D7F83098042106A8FFF743FD49F02B
:100758000203C7F83038D4F80094082106A8FFF738
:1007680039FD49F42063C4F80034D4F820940821F2
:1007780006A8FFF72FFD49F40813C4F82034D4F86D
:100788000C94042106A8FFF725FD29F48073C4F80A
:100798000C34D7F83098042106A8FFF71BFD49F060
:1007A8000403C7F83038D4F80078082106A847F4BD
:1007B8002027FFF70FFDC4F80078D4F82478082123
:1007C80006A8FFF707FD47F022074FF4EE63C4F8C9
:1007D8002478C6F82084C6F82C3446F66803C6F890
:1007E8001834C6F81C3441F21113C6F82034D6F870
:1007F8001474042106A847F00107FFF7EBFCC6F8BC
:1008080014744FF0807600238DF817302F68042178
:1008180006A847F04007FFF7DDFC2F602F6806A801
:1008280047F038070C21FFF7D5FC2F600220C4F8E9
:100838001864FFF7BDFC4FF48073C4F818340A2716
:10084800FF20FFF7E5FC013FFAD164279DF8171058
:10085800002900F09280C4F818640DF117024FF4D3
:10086800D5710820FFF7EAFC9DF817305B0740F1C7
:100878009D807F4B01221A734FF48073C4F818646B
:10088800C4F818347B4C2568042106A845F01005E7
:10089800FFF7A0FC25602568082106A825F0280593
:1008A800FFF798FC25600020FFF7F5FC4FF4E37094
:1008B800FFF72EFD0DF1180845460024FFF708FD47
:1008C8000134042C05F8010BF8D106980090FFF7C5
:1008D80028FD0098FFF7DFFC06AD0024FFF7F8FCC1
:1008E8000134202C05F8010BF8D1614DBDF82330F7
:1008F800BDF82E40BDF82970AB879DF82530BDF8AE
:1009080026609DF82890DDF834A085F83E30A5F8DB
:100918004070002C00F09580564404FB09647F0168
:100928006C616F8701260025DFF844B1FFF7F9FCF9
:10093800B2462F46A8462A4600962C46DBF80810F1
:10094800DBF8440009314FF4805C4FF0805EDBF83F
:1009580008904945C0F29280002800F09380AF4289
:10096800454B05F101056DB2D4BFC3F818ECC3F8C7
:1009780018CC7D2D08BF0025E9E70220FFF718FCF9
:100988000220C4F81864FFF713FC0DF1170208469B
:10099800FFF754FC4FF48073013FC4F818347FF418
:1009A80055AF4FF47A70FFF703FC2CE70427FFF7E5
:1009B80030FC013F8DF81700F9D14FF48073AA2855
:1009C800C4F818343AD14FF08073C4F818340DF1D4
:1009D800170200213720FFF731FC4FF080410DF15D
:1009E80017022920FFF72AFC9DF817100029EED1DD
:1009F8000DF117023A20FFF721FCFFF70AFC1C4B08
:100A080080F04000C0F380101873FFF702FC8DF8E7
:100A18001700FFF7FEFB8DF81700FFF7FAFB0DF143
:100A280017028DF817004FF400711020FFF706FC2D
:100A3800114B4FF48072C3F8182423E7C4F8183414
:100A4800AFE7012385F83830FFF742FCFFF740FC99
:100A5800FFF73EFCFFF73CFCFFF73AFC0134042C9F
:100A680008F8010BF8D1069C56E700BF00E400E047
:100A780010000020003001400000024010B1002AA0
:100A880000F009814FF0E0224FF00051C2F88011C8
:100A980000228BF84820FFF744FCBBF84A2012B12B
:100AA8002032ABF84A20BBF84A904846FFF756FC7C
:100AB8009BF81820E52A19D0002AF2D0A2F14201A9
:100AC800122918D99BF8200057280CD19BF821101F
:100AD800412908D19BF82220562A04D19BF823C02B
:100AE800BCF1200F17D0BBF84A20D9E709F120093B
:100AF800ABF84A90D7E79BF8231001F00F010F29B4
:100B0800E0D1403AD2B209EB421080B2ABF84A00C9
:100B1800FFF724FCD6E79BF818C08DF818C09BF89F
:100B280019C08DF819C09BF81AC08DF81AC09BF827
:100B38001BC08DF81BC09BF81CC08DF81CC09BF80F
:100B48001DC08DF81DC09BF81EC08DF81EC09BF8F7
:100B58001FC08DF81FC08DF821004FF02E0C8DF8A6
:100B680023200A2000228DF820C08DF822108DF84D
:100B78002420FFF705FB0DF1180919F8010B0028CF
:100B880040F0AC809BF8382032B19BF82D209BF8C0
:100B98002C00120602EB00429BF836909BF83510A9
:100BA8009BF832C09BF83300BBF840E04FEA094994
:100BB80009EB01299BF83410ACF1020C0CEB002C6A
:100BC8008944BBF83C009BF8371009EB0169411ECA
:100BD80001EB4E11B1FBF0F1DBF81400CBF84C90AF
:100BE80008449BF83E10624401FB0200A9F54849FD
:100BF800CBF85000FFF74FFB4FEA59221620CBF8ED
:100C08004420FFF785FBFFF763FBDFF8349189F891
:100C18000000FFF75DFBFFF75BFB0190FFF758FB58
:100C28000390FFF755FB0290FFF752FB029A0399D6
:100C3800019B120402EB01221A4402EB0061062018
:100C4800C9F804100191FFF763FBFFF741FB89F82E
:100C580008000920FFF75CFB4FF080420020C2F833
:100C6800200401993448B0FBF1F1C2F82C1441F288
:100C78001111C2F8201402228BF854204FF4EA72A2
:100C8800C9F80C204FF0E0224FF00051C2F80011D3
:100C980001228BF8482037447FB27D2F21DDCAF12D
:100CA800000676B2254B9BF848201969009BC9437A
:100CB800002A01F001010CBF4FF0030A4FF0010AAE
:100CC8008B4212D091B10B3CA4B2762C8CBF00247D
:100CD800012422B32246002400912FE6FFF750FAA0
:100CE8004BE7002F08BF5646DCE709B9013424B2A8
:100CF800782C03DD22B1B8F1000F04D00022EBE715
:100D0800B8F1000FE8D14FF0E0224FF00050C2F8E0
:100D1800800100228BF848204FF00108DCE7002C06
:100D2800ECD04FF0E0204FF00054C0F80041012013
:100D38008BF848009046CEE700BD01050000024050
:100D480000000020024A936801339360704700BF97
:100D58001000002070B54FF0804382B0D3F81044E3
:100D680004210DEB0100FFF735FAE0076AD5684862
:100D7800684A037A4FF48071102B916175D0A2F5FF
:100D8800504293689907FCD5FF21634B11739A6809
:100D9800D207FCD5C5681A7B6B1EC3600378022B8B
:100DA800D4B200F0868000232546194641EA042281
:100DB8005A4C43EA052394F85410C5689BB28A40FC
:100DC8008B404FF08041160AD2B2C1F83864C1F89E
:100DD80040241A0ADBB2C1F83424C1F83C34002D8F
:100DE80030D14D4B9A689507FCD5FF221A734A4BB0
:100DF8009A68D107FCD51B7B474B9A689207FCD5AC
:100E0800FF221A73444A9368DE07FCD5636C4FF4DB
:100E18000071C160581E137B3F4B6064FF219A68C4
:100E28009507FCD519739A68D207FCD51A7BFE2A58
:100E3800F5D138B94FF0E0234FF00052C3F88021C4
:100E480084F84800334B4FF080454FF080720421FE
:100E58009A610DEB0100D5F81044FFF7BBF924F0B7
:100E68000104C5F8104402B070BD2B4A93689E0770
:100E7800FCD5FF21284B11739A68D507FCD5197B3F
:100E8800254BC9B29C68A407FCD5FF221A73224BD4
:100E98009C68E207FCD51A7BC568037882F0800459
:100EA800022BA5F10202C26013D089B20B46254677
:100EB8007CE7194B9A689207FCD5FF221A73164BE8
:100EC8009A68D607FCD51B7BAA1EC260DDB2002338
:100ED8006BE7114B9A689607FCD5FF221A730E4BE5
:100EE8009A68D207FCD51B7BDAB20B4B9E68B60713
:100EF800FCD5FF261E73084B9E68F607FCD51B7BA6
:100F0800043DC56089B283F0800593B24EE700BF07
:100F180000000020000002400030014010000020C6
:100F280007B5064B0193019B9847054B0093009B1F
:100F38009847002003B05DF804FB00BFCD0100080E
:100F4800B1030008DFF82CD0002103E00A4B5B58FE
:100F58004350043109480A4B42189A42F6D3094AC9
:100F680002E0002342F8043B074B9A42F9D3FFF70B
:100F7800D7FF704700000220F00F00080000002093
:100F8800100000201000002068000020FEE7024446
:100F98000346934200D1704703F8011BF9E70000AC
:100FA80008000000090000000A0000000C00000012
:100FB8000D0000000E0000001400000016000000E4
:100FC800180000001A0000001C0000001E000000AD
:100FD8000A0000000B0000000C0000000D000000DB
:080FE8000E0000000F000000E4
:100FF0000200000044AC00000800000000020000F5
:0400000508000F4D93
:00000001FF
