:020000040800F2
:1000000000200020A1020008E9020008E90200081F
:1000100000000000000000000000000000000000E0
:10002000000000000000000000000000E9020008DD
:100030000000000000000000E9020008750300084D
:10004000E9020008E9020008E9020008E9020008E4
:10005000E9020008E9020008E9020008E9020008D4
:10006000E9020008E9020008E9020008E9020008C4
:10007000E9020008E9020008E9020008E9020008B4
:10008000B9060008E902000800000000E9020008C3
:10009000E9020008E9020008E9020008E902000894
:1000A000E9020008E9020008E9020008E902000884
:1000B000E902000800000000E9020008000000005A
:1000C00010402DE928409FE50030D4E5000053E3BF
:1000D0000500001A1C309FE5000053E318009F152F
:1000E00000F020130130A0E30030C4E51040BDE86B
:1000F0001EFF2FE13C04002000000000E013000878
:100100001C309FE5000053E31EFF2F0110402DE936
:1001100010109FE510009FE500F020E31040BDE8BF
:100120001EFF2FE10000000040040020E013000843
:10013000012051E21EFF2F013600003A010050E17C
:100140002200009A020011E12300000A0E0211E3CE
:100150008111A0010830A0030130A013010251E376
:10016000000051310112A0310332A031FAFFFF3AF1
:10017000020151E3000051318110A0318330A031E0
:10018000FAFFFF3A0020A0E3010050E10100402007
:1001900003208221A10050E1A1004020A320822160
:1001A000210150E12101402023218221A10150E1C0
:1001B000A1014020A3218221000050E32332B0118D
:1001C0002112A011EFFFFF1A0200A0E11EFF2FE194
:1001D0000100A0030000A0131EFF2FE1010851E35E
:1001E0002118A0211020A0230020A033010C51E3EE
:1001F0002114A02108208222100051E32112A02105
:1002000004208222040051E303208282A1208290F4
:100210003002A0E11EFF2FE1000050E30000E013D8
:10022000070000EA000051E3FAFFFF0A03402DE94E
:10023000BEFFFFEB0640BDE8920003E0031041E083
:100240001EFF2FE11EFF2FE110B504000A2802D186
:100250000D20FFF7F9FF094A1368002B05D0591C40
:1002600011601C7010BC01BC0047054B1B68002BC3
:10027000F8D0200000F006F8F4E7C046580400204B
:100280005C0400201847C04610B504002078002800
:1002900002D110BC01BC00470134FFF7D5FFF5E7E0
:1002A0000B4885460B480C490C4A002302E0D45801
:1002B000C4500433C4188C42F9D3094A094C0023B2
:1002C00001E013600432A242FBD300F04BFFFEE7D3
:1002D00000200020000000203C040020381400080A
:1002E0003C040020B4040020FEE77047802303494B
:1002F0000A681A42FCD0024B187070471C44004038
:1003000028440040014B024A1A6070475C040020F8
:10031000ED020008024B1868012318407047C046E0
:10032000100400400121024A13688B431360704798
:10033000100400408022044BD200002801D09A61B2
:1003400070479A62FCE7C046000400480120024B57
:100350001B6898437047C046100000484022014B7C
:100360009A627047000400484022014B9A6170472E
:1003700000040048024A1368013313607047C04606
:1003800060040020034A13681B1811688B42FCDCD0
:100390007047C04660040020014B18687047C04693
:1003A000600400200222054B99681142FCD0012212
:1003B000187399681142FCD0187B704700300140D7
:1003C00010B5FF20FFF7EEFF10BC02BC084710B5C8
:1003D000FFF7E8FF10BC01BC0047F8B504000D00B2
:1003E00016009527002803D06A37082800D1783FE7
:1003F000FF20FFF7ECFF200040300006000EFFF763
:10040000E6FF280EFFF7E3FF280C0006000EFFF7BB
:10041000DEFF280A0006000EFFF7D9FF2806000EAF
:10042000FFF7D5FF3800FFF7D2FF0A24FFF7C8FF18
:100430003070000602D5013C002CF7D1F8BC01BC9D
:100440000047000037B56B46DD1D00232B700B4BBA
:1004500004001860FFF782FF094B1B78012B00D1C5
:1004600064022A0021001220FFF7B7FF0023054A8B
:100470001380054A138037BC01BC00476C04002080
:1004800066040020640400206804002070B5114C4C
:100490002388002B03D1FFF793FFFE28FBD1FFF742
:1004A0008FFF8022238801331B0405001B0C920060
:1004B000934204D02380280070BC02BC084700236C
:1004C000054A2380138801331380FFF779FFFFF774
:1004D00077FFF0E7640400206804002070B5050091
:1004E0000024AC4205D001342404FFF7CFFF240CD4
:1004F000F7E770BC01BC004737B56B46DD1D002334
:1005000004242B70FFF72AFF2A0000210C20013C55
:10051000FFF763FF002CF7D1FFF726FF37BC01BCC4
:10052000004710B5FFF7E8FFFFF71EFF10BC01BC46
:1005300000470000104B70B506001868FFF782FFF7
:1005400000240025FFF7A2FF0C4B58550135202D44
:10055000F8D1B44204D1FFF7E4FF70BC01BC0047FE
:10056000074B20341B782404240C002BE9D1054BC5
:100570001B88A342E5D8EEE79C0400207504002008
:10058000A0040020A60400207FB5424D2B88002B3C
:1005900001D020332B800F262888FFF7CBFF3E4C5D
:1005A0002378E52B13D0002B01D12B80F4E71A0020
:1005B000423A122A0ED9217A572908D1627A412A61
:1005C00005D1A37A562B02D1E07A202812D02B88AD
:1005D0002033EAE7E27A32400F2AECD1403B1B0697
:1005E0001B0E58012B88C0180004000C2880FFF750
:1005F000A1FFE0E76D462078287060786870A078E9
:10060000A870E078E8702079287160796871A07925
:10061000A871E079E8712E20EB7228726972AA72D3
:100620006846002505730A20FFF70EFE6846FFF7AF
:100630002BFE1A4B1B78AB4204D0257D637D2D0425
:100640001B06ED18A67EE37E023E1B02A27FF61873
:10065000637F12041B029B18227F9B18E27F120605
:100660009B180F4A13600F4B19880F4B18884B1EAD
:100670004001C018FFF75CFD0C4B1B68C0180C4B09
:100680001B7876195E430B4B86191E607FBC01BC3C
:100690000047C046A804002075040020A0040020E4
:1006A00098040020A2040020A40400209C04002040
:1006B0007404002070040020F8B5FFF72BFE00281A
:1006C00073D090228021D20549009161664B1B783E
:1006D0000221664A102B00D171E093681942FCD0C8
:1006E000FF200121614B10739A681142FCD06049D0
:1006F000187B0B685A1E0A605E4A12780400022AB0
:1007000000D181E000230022000202435A48240263
:100710000078234382401B041B0C8340FF20574C6E
:10072000150A2560564C02402260564A18401B0AA2
:100730001360554B18600B68002B36D102204B4AD2
:1007400093681842FCD0FF240120484B14739A6828
:100750001042FCD002201B7B444B9A681042FCD014
:10076000FF24012241481C7383681A42FCD0802276
:100770009200007BFF240A6001200221434B1D6888
:10078000013D1D60394B9A681142FCD01C739A6878
:100790001042FCD01A7BFE2AF5D1002D05D13C4930
:1007A0003C4B7E3A52020A601D7090238022DB058A
:1007B00052009A62FFF7B6FDF8BC01BC004793688F
:1007C0001942FCD0FF200121284B10739A68114276
:1007D000FCD002201A7B25498B681842FCD0FF24EC
:1007E0000120224B0C7399680842FCD080201B7BAF
:1007F0001F4958401F4B0D681B78AC1E0C60022B24
:1008000012D0130004007FE70225184A946825429D
:10081000FCD0FF2401251473144A94682542FCD0AF
:10082000023B147B0B606DE70226104B9C6826424E
:10083000FCD0FF2401261C730C4B9C682642FCD084
:1008400002271B7B094CA6683742FCD0FF260127F4
:100850002673064CA6683742FCD0043D247B0D600D
:1008600080256C4050E7C046010000200030014068
:100870000800002000000020AA04002038040040E6
:1008800040040040340400403C040040AC0400201C
:1008900080E100E0AB04002010B50A00002100F068
:1008A00069FC10BC01BC004773B502250A4CA66860
:1008B000042101A8FFF7F0FF2E42F7D0FF23012506
:1008C0002373A668042101A8FFF7E6FF2E42F8D0A3
:1008D000207B76BC02BC08470030014010B5FFF712
:1008E000E3FF10BC02BC0847F0B50125F34C93B000
:1008F00026680AAF042138002E43FFF7CDFF26609B
:10090000266804213800FFF7C7FF2E42F8D0EC4CD0
:100910002668042135433800FFF7BEFF2560022515
:10092000266804213800FFF7B7FF2E42F8D0E54DC6
:10093000082138002E68FFF7AFFFA0239B03334345
:100940002B60042138002668FFF7A6FF80235B0494
:10095000334380262360B6042368042138000093C3
:10096000FFF79AFF009B3342F6D0042138002C6831
:10097000FFF792FF0223234308242B602E680421F3
:100980003800FFF789FF2642F8D0CF4E0421380007
:100990003468FFF781FF80239B021C43346090245E
:1009A0000421E40538002568FFF776FF80235B0209
:1009B0001D432560042138003568FFF76DFF802353
:1009C0009B021D433560082138002568FFF764FF4E
:1009D00003239D4325608025042138003668ED02FD
:1009E000FFF75AFFB84B2E431E60B84A0421380067
:1009F0001668FFF751FF8021B44A49010E43B24BFC
:100A000016601E683543B04E04213800FFF744FFDE
:100A10003560AE4A042138001568FFF73DFF80239A
:100A2000C021AA4A5B031D431560A94BA94A1A605D
:100A3000A94A13681B0209061B0A0B431360002214
:100A4000A64B1A60A64B07321A60A64A042138004A
:100A50001568FFF721FF8023A24A9B021D43156002
:100A6000042138003568FFF717FF80239B021D43E0
:100A70003560082138002568FFF70EFFA0231D43CD
:100A80002560994D082138002E68FFF705FF88235F
:100A90005B011E43D0232E60944D5B00EB600C2164
:100AA00038002E68FFF7F8FE0D231E432E60904D90
:100AB000042138002E68FFF7EFFE802149010E4324
:100AC0002E60814E042138003568FFF7E5FE802353
:100AD0009B021D4335600C2138002568FFF7DCFEC2
:100AE000A8231B021D432560824C1821380025686D
:100AF000FFF7D2FE3A00804B43CB43C243CB43C205
:100B000000231A0073490791082608A8910080194C
:100B100041580120884001320343062AF4D12B4377
:100B20002360764C08210AA82568FFF7B5FEC0238C
:100B30005B011D432560724C04210AA82568FFF75C
:100B4000ABFE04231D43256019000AA82568FFF7A2
:100B5000A3FE08231D43256019000AA82568FFF796
:100B60009BFEC0239B001D43256004210AA86568E5
:100B7000FFF792FE80235B011D43656004210AA8F4
:100B80002568FFF789FE40231D43564E256004214A
:100B90000AA83568FFF780FE02231D433560594DD2
:100BA00008210AA82E68FFF777FE81231E432E60D6
:100BB000554E04210AA83568FFF76EFE0123002276
:100BC000FF211D43514B35601A60514A13683E4F57
:100BD0008B431360FB390AA83D68FFF75DFE802355
:100BE000DB021D43394E3D6008210AA83568FFF736
:100BF00053FEA0231B011D433560464D08210AA862
:100C00002E68FFF749FE88235B031E432E600421F4
:100C10000AA83D68FFF740FE80231B031D433D608B
:100C20003D4D08210AA82E68FFF736FEA0230022BA
:100C30001B031E43882339492E600A60384ADB00B3
:100C40001360384B384A1360384A1360384A394EBB
:100C50000A600AA804213568FFF71EFE01231D4320
:100C60003560FFF742FB08ABDD1D00232B7004212C
:100C70000AA82668FFF710FE40231E4326600821BD
:100C80000AA82668FFF708FE30231E4326600421C9
:100C90000AA82668FFF700FE08239E432660FFF798
:100CA0005DFB0220FFF76EFB0A26FFF75DFB013EAE
:100CB000FFF7FAFD002EFAD164363DE00020024035
:100CC00000100240041002401410024000040048CA
:100CD00014E000E07FBB000020ED00E018E000E041
:100CE00010E000E01C1002402000004800440040DA
:100CF0001810024008000048101400080C000048BA
:100D000000300140000400400C0400402804004072
:100D100010E400E0200400480008004820040040DF
:100D20002C04004068680000180400401C040040C7
:100D300011110000140400402F78002F00D1A8E00A
:100D4000FFF70CFBD5212A0008204900FFF745FBDF
:100D500004222B78134200D1B6E00122D44B1A7042
:100D6000FFF7FCFAFFF700FB04210AA82568FFF74C
:100D700093FD08210D4325600AA82568FFF78CFD27
:100D800030239D4300202560FFF75CFBE3204000FB
:100D9000FFF7A4FB0024FFF779FB082208AB9B18A0
:100DA00018550134042CF6D10A9CFFF7BAFB200039
:100DB000FFF748FB0024FFF769FB082208AB9B18EC
:100DC00018550134202CF6D1132208ABD2185378D1
:100DD00011781B02B74A0B43138008AB5A7DB64B00
:100DE0001A70192208ABD2181F7EDD8A5378117849
:100DF000B24E1B020B43338008ABDC8B119B00937C
:100E0000002C14D10122AE4B1A70FFF73FFBFFF705
:100E10003DFBFFF73BFBFFF739FBFFF737FB0822F2
:100E200008AB9B1818550134042CF6D10A9C7C435E
:100E3000009BED18A34B65191D6000253388A24A5D
:100E40005B011380FFF76DFBFFF74FFA01232C00C6
:100E50002E0002930193009504950393FFF79CFAEB
:100E60000700FFF799FA3B000933984A984269DC7A
:100E70001368002B6BD0009B0020AB4200DD0120EB
:100E80000135FFF757FA2B061D167D2DE9D10025F8
:100E9000E7E70220FFF776FAFFF760FA0220FFF794
:100EA00071FA013E2A0039003800FFF796FAFFF781
:100EB0005BFA002E00D03FE70122854B1A70FA2022
:100EC0008000FFF75FFACEE60426FFF707FD013E3C
:100ED0002870002EF9D1FFF747FA2B78AA2B2BD1D7
:100EE0008026FFF73BFAF6052A0000213720FFF79E
:100EF00074FA31002A002920FFF76FFA29780029B7
:100F0000F2D12A003A20FFF768FAFFF7E7FC012345
:100F1000674A800983431370FFF7E0FC2870FFF7EE
:100F2000DDFC2870FFF7DAFC802128702A001020F1
:100F30008900FFF752FA15E70122654B1A70FFF797
:100F400013FABCE71368002B01D0002C5DD080227F
:100F50000027604B52021A605F4B1F70FFF7E1FAE7
:100F6000FFF712FB5D4B1868FFF76CFA5C4B5D49AD
:100F70001B68564A5B185B0A16201360FFF7AEFA2F
:100F8000FFF784FA584B1870FFF780FAFFF77EFAE4
:100F90000700FFF77BFA0590FFF778FA0690FFF756
:100FA00075FA059B1A02069B1B04D3184F4CDF19D8
:100FB00000063F1806202760FFF790FAFFF766FA51
:100FC00000274B4B18700920FFF788FA494B21681E
:100FD00049481F60FFF7ACF84849464B086048494C
:100FE0001960390023680798984279410B00454AF7
:100FF00001331370EA22444B52001A608022434BA3
:1010000052021A600123344A1370029A9446009BDC
:1010100063441B061B1600937D2B1BDD019B5B426B
:10102000029303222C4B1B780192002B01D0012349
:101030000193FFF78BF9039B984210D0002811D041
:101040000B3E33040026762134001B0C9942744178
:10105000049B0EE0009B002BE3D1019BE0E7039B88
:10106000002B02D101363604361400240123782ED9
:10107000EEDD19490A78002A0CD1002C0AD0802410
:10108000224B64021C60012314000B7013000493B4
:101090000390E3E6049A9A42F9D0002BF7D080211E
:1010A0000C4A4902116000210B4A1170EFE7C0465B
:1010B00066040020A204002074040020A404002080
:1010C000A00400209C040020A6040020AC04002002
:1010D0006704002080E100E0AB04002070040020E1
:1010E000980400200038FFFF0000002004000020CA
:1010F0000100002020040040006CDC022C040040B1
:1011000011110000AA0400200800002000E100E006
:1011100010B5FFF7F7F810BC01BC004710B5FFF79A
:10112000E3FB10BC01BC004707B5044B0193019BD6
:1011300000F006F803B001BC0047C04611110008DA
:101140001847C04607B5FFF7EFFF044B0193019B1B
:1011500000F006F803B001BC0047C0461D110008AE
:101160001847C04610B5FFF7EDFF002010BC02BCC9
:1011700008470000030010E34000000A000052E3AB
:10118000012042E21EFF2F010030A0E1FFC001E27A
:10119000020000EA012042E2010072E31EFF2F017B
:1011A00001C0C3E4030013E3F9FFFF1A030052E395
:1011B0002800009A30402DE9FFE001E20EE48EE1C4
:1011C0000F0052E30EE88EE12E00009A10C042E2BA
:1011D0000F40CCE3205083E2045085E02C42A0E194
:1011E00010C083E210E00CE50CE00CE508E00CE533
:1011F00004E00CE510C08CE205005CE1F8FFFF1A8A
:1012000001C084E20C0012E30CC283E00F2002E272
:101210001800000A043042E20330C3E3043083E2E2
:1012200003308CE004E08CE40C0053E1FCFFFF1A77
:10123000032002E2000052E30400000AFF1001E272
:10124000022083E00110C3E4030052E1FCFFFF1A17
:101250003040BDE81EFF2FE1000052E31EFF2F01CA
:10126000FF1001E2022083E00110C3E4030052E119
:10127000FCFFFF1A1EFF2FE10C30A0E1ECFFFFEA9C
:101280000030A0E1C8FFFFEA03C0A0E1E0FFFFEAF1
:1012900018309FE5000053E31EFF2F0110402DE999
:1012A0000C009FE5030000EB1040BDE81EFF2FE19E
:1012B00000000000D81200080030A0E310402DE923
:1012C0000010A0E10320A0E10300A0E1140000EB66
:1012D0001040BDE81EFF2FE170402DE930509FE522
:1012E00030409FE5044045E04441B0E10500000A7C
:1012F000043035E5014044E20FE0A0E113FF2FE1A7
:10130000000054E3F9FFFF1A3A0000EB7040BDE81B
:101310001EFF2FE138140008341400081EFF2FE1CF
:101320001EFF2FE1F0412DE9A8809FE50040A0E1DC
:10133000000098E50360A0E10150A0E10270A0E187
:10134000F5FFFFEB90309FE5003093E548C193E552
:1013500000005CE353CF830204E09CE548C18305B1
:101360001F005EE3170000CA000054E30800001AE3
:1013700001308EE202E08EE204308CE5000098E558
:101380000E518CE7E5FFFFEB0000A0E3F041BDE864
:101390001EFF2FE10130A0E30E118CE0887081E583
:1013A00088219CE5133EA0E1032082E188218CE5A1
:1013B000086181E5020054E38C219C050330820121
:1013C0008C318C05E9FFFFEA000098E5D3FFFFEBC5
:1013D0000000E0E3ECFFFFEA3804002028140008D6
:1013E0000DC0A0E1F8DF2DE904B04CE228D04BE2BB
:1013F000F06F9DE81EFF2FE10DC0A0E1F8DF2DE9A1
:1014000004B04CE228D04BE2F06F9DE81EFF2FE1C4
:101410000A0000000B0000000C0000000D0000009E
:0C1420000E0000000F0000001000002073
:08142C00901200080001000805
:04143400C0000008EC
:101438000208000044AC00000002000000000000A8
:1014480000000000FC02002064030020CC03002000
:101458000000000000000000000000000000000084
:101468000000000000000000000000000000000074
:101478000000000000000000000000000000000064
:101488000000000000000000000000000000000054
:101498000000000000000000000000000000000044
:1014A8000000000000000000000000000000000034
:1014B8000000000000000000000000000000000024
:1014C8000000000000000000000000000000000014
:1014D8000000000000000000000000000000000004
:1014E80000000000000000000100000000000000F3
:1014F8000E33CDAB34126DE6ECDE05000B000000B8
:1015080000000000000000000000000000000000D3
:1015180000000000000000000000000000000000C3
:1015280000000000000000000000000000000000B3
:1015380000000000000000000000000000000000A3
:0C1868000000000000000000B0040020A0
:04000005080002A14C
:00000001FF
