:020000040800F2
:1000000000A00020250F00086D0F00086D0F0008EC
:100010006D0F00086D0F00086D0F00080000000054
:100020000000000000000000000000006D0F00084C
:100030006D0F0008000000006D0F0008290D00087A
:100040006D0F00086D0F00086D0F00086D0F0008A0
:100050006D0F00086D0F00086D0F00086D0F000890
:100060006D0F00086D0F00086D0F00086D0F000880
:100070006D0F00086D0F00086D0F00086D0F000870
:100080006D0F00086D0F00086D0F00086D0F000860
:100090006D0F00086D0F00086D0F00086D0F000850
:1000A0006D0F00086D0F00086D0F00086D0F000840
:1000B0006D0F0008390D00086D0F00086D0F000866
:1000C0006D0F00086D0F00086D0F00086D0F000820
:1000D0006D0F00086D0F00086D0F00086D0F000810
:1000E0006D0F00086D0F00086D0F00086D0F000800
:1000F0006D0F00086D0F00086D0F00086D0F0008F0
:100100000000000000000000000000006D0F00086B
:100110006D0F00086D0F00086D0F00086D0F0008CF
:100120006D0F00086D0F00086D0F00086D0F0008BF
:100130006D0F00086D0F00080000000000000000B7
:100140006D0F00086D0F00086D0F00080000000023
:10015000000000000000000000000000000000009F
:1001600000000000000000006D0F00086D0F000887
:100170006D0F0008000000000000000000000000FB
:08018000000000006D0F0008F3
:100188000A2810B5044602D10D20FFF7F9FF074BE6
:100198001A681AB1511C1960147010BD5B68002BE5
:1001A800FBD02046BDE81040184700BF10000020D3
:1001B800034A9368184493689842FCDC704700BF70
:1001C80010000020014B024A5A60704710000020BE
:1001D8001F0200080A46002100F0C5BE73B50B4D8A
:1001E8000446AE6804210DEB0100FFF7F3FFB207E8
:1001F800F7D52C73054CA56804210DEB0100FFF71A
:10020800E9FFEB07F7D5207B02B070BD0030014055
:10021800E4E7FF20E2E773B504464FF04026D6F83E
:100228001C5404210DEB0100FFF7D4FF2B06F6D573
:10023800024B83F8284002B070BD00BF0044004064
:10024800F8B50D461646044628B3082814BFFF27FC
:100258008727FF20FFF7DCFF04F14000C0B2FFF75B
:10026800D7FF280EFFF7D4FFC5F30740FFF7D0FFED
:10027800C5F30720FFF7CCFFE8B2FFF7C9FF384600
:10028800FFF7C6FF0A24FFF7C4FF0306307001D545
:10029800013CF8D1F8BD9527DBE713B500238DF8AD
:1002A80007304FF090430A4C4FF08072C3F818247F
:1002B800237B012B01460DF1070208BF41021220E2
:1002C800FFF7BEFF0023E381238202B010BD00BF09
:1002D8001000002070B50E4DEC891CB9FFF799FF8E
:1002E800FE28FBD1FFF795FF0134A4B2B4F5007FD7
:1002F800064602D0EC81304670BD0023EB812B8A84
:1003080001332B82FFF785FFFFF783FFF3E700BF79
:100318001000002038B5054600240134FFF7DAFF45
:10032800A542FAD138BD13B500238DF807304FF038
:1003380090434FF08072C3F8182404240DF107028B
:1003480000210C20FFF77CFF013CF7D14FF09043D0
:100358004FF48072C3F81824C3F8182402B010BDF3
:100368002DE9F0410F4D06466869FFF796FF002416
:10037800DFF834800027FFF7ADFF0137202F08F89A
:10038800010BF8D1A64202D1BDE8F041CBE795F8C0
:1003980038302034A4B2002BEAD16B8FA342E7D8BF
:1003A800F2E700BF10000020280000204FF0E022F4
:1003B8002DE9F04FD2F8883DBA4C43F46053C2F8A7
:1003C800883D25688FB0042106A845F00205FFF78F
:1003D80001FF25602568042106A8FFF7FBFEAD078D
:1003E800F8D5B14C2568042106A845F00105FFF7AA
:1003F800F1FE2560256806A80421FFF7EBFEA80793
:10040800F8D56568042106A825F48025FFF7E2FEE3
:10041800656065680C2106A845F46015FFF7DAFEEB
:1004280065602568042106A845F08075FFF7D2FEAF
:1004380025602568042106A8FFF7CCFEA901F8D598
:100448006568042106A825F00105FFF7C3FE65606D
:100458006568042106A845F00205FFF7BBFE656044
:100468006568042106A8FFF7B5FE2A07F8D565696F
:10047800042106A845F40035FFF7ACFE65614FF08E
:10048800904504212E6806A846F48036FFF7A2FEA0
:100498002E606669042106A846F40016FFF79AFE46
:1004A8006661824E3768042106A847F48037FFF753
:1004B80091FE37606769042106A847F40037FFF703
:1004C80089FE67612F68082106A827F00307FFF750
:1004D80081FE2F606769042106A847F48027FFF78B
:1004E80079FE6761D5F80074042106A847F48037BF
:1004F800FFF770FEC5F800746769042106A847F481
:100508000017FFF767FE67613768042106A8FFF741
:1005180061FE4FF0E02347F480074FF6FF12376083
:100528005A61634AF02182F82310002707229F614D
:100538001A61E669042106A846F40036FFF74AFE68
:10054800E6616669042106A846F40036FFF742FE14
:1005580066612E68082106A846F0A006FFF73AFE55
:100568002E601821534ED5F820800DEB0100FFF7BF
:1005780031FE0FCE06AD0FC596E803003B4685E871
:1005880003003A4606A8012550F8041B013205FA73
:1005980001F1062A43EA0103F6D14FF090454FF0E6
:1005A800402743EA08032B6240F22B23C7F80C3498
:1005B800414B1E680C2106A846F00D06FFF70AFEFF
:1005C800C7F80064A669042106A846F48056FFF718
:1005D80001FEA6616669042106A846F40036FFF705
:1005E800F9FD66612E680C2106A846F42846FFF737
:1005F800F1FD2E601821314E2F6A0DEB0100FFF737
:10060800E9FD0FCE06AD0FC596E80300002385E887
:1006180003001A4606A8012550F8041B013205FA02
:1006280001F1062A43EA0103F6D14FF090423B4319
:100638001821234E13620DEB01009768FFF7CAFDDE
:100648000FCE06AD0FC596E80300002385E803002A
:100658001A4606A8012550F8041B013205FA01F1D3
:10066800062A43EA0103F6D14FF090453B43AB60BD
:10067800EE68082106A846F4C056FFF7ABFDEE6009
:10068800104E3768042106A847F00407FFF7A2FDBB
:1006980037603768042106A847F00807FFF79AFD76
:1006A800376011E0002002400010024000100048AE
:1006B80000ED00E0800F000800440040980F00089B
:1006C800B00F00080030014077680C2106A847F4F5
:1006D800E067FFF77FFD77603768082106A847F4D1
:1006E8004077FFF777FD37607768042106A847F45D
:1006F8008057FFF76FFD77603768042106A847F039
:100708004007FFF767FD3760E769042106A847F04F
:100718000207FFF75FFDE7614FF080470821D7F830
:10072800008406A8FFF756FD48F08103C7F8003497
:10073800D7F80C84042106A8FFF74CFD48F0010304
:10074800C7F80C34C74B4FF00008C7F8288483F863
:100758001D80D4F81490042106A8FFF73BFD49F446
:1007680080236361D5F80094082106A8FFF732FDBD
:1007780049F42063C5F80034D5F82094082106A868
:10078800FFF728FD49F40813C5F82034D4F814906D
:10079800042106A8FFF71EFD49F400236361D5F87C
:1007A8000048082106A844F42024FFF713FDC5F8E3
:1007B8000048D5F82448082106A8FFF70BFD44F0A7
:1007C800220440F2AB53C5F82448C7F82084C7F880
:1007D8002C3446F66803C7F81834C7F81C3441F2BD
:1007E8001113C7F82034D7F81444042106A844F09C
:1007F8000104FFF7EFFCC7F8144400238DF8173005
:100808003468042106A844F04004FFF7E3FC346090
:10081800346806A80421FFF7DDFC24F010044FF02B
:10082800807334600220C5F81834FFF7C1FC4FF418
:100838008073C5F818340A24FF20FFF7E9FC013C4F
:10084800FAD164274FF080749DF81710002900F042
:100858008F80C5F818440DF117024FF4D5710820A0
:10086800FFF7EEFC9DF817305B0740F19A807E4B4E
:1008780001221A734FF48073C5F81844C5F8183468
:100888007A4C2568042106A845F00805FFF7A2FC64
:1008980025602568082106A825F03005FFF79AFC91
:1008A80025600020FFF7F9FC4FF4E370FFF732FDF5
:1008B8000DF1180845460024FFF70CFD0134042CFF
:1008C80005F8010BF8D106980090FFF72CFD009869
:1008D800FFF7E3FC06AD0024FFF7FCFC0134202CF5
:1008E80005F8010BF8D1604DBDF82330BDF82E4056
:1008F800BDF82970AB879DF82530BDF826609DF8B6
:100908002890DDF834A085F83E30A5F84070002C1A
:1009180000F09380564404FB09647F0100266C6153
:100928006F87514C0127FFF7FEFCBB46B046B14626
:10093800334600973546A268616C09324FF4006A65
:100948004FF0006CD4F808E07245C0F2938000299B
:1009580000F09480B045464806F1010676B2D4BF4F
:10096800C0F818C0C0F818A07D2E08BF0026E9E717
:100978000220FFF71DFC0220C5F81844FFF718FCF9
:100988000DF117020846FFF75BFC4FF48073013F37
:10099800C5F818347FF458AF4FF47A70FFF708FCA5
:1009A8002BE70424FFF735FC013C8DF81700F9D13B
:1009B8004FF48073AA28C5F818343BD14FF08073E0
:1009C800C5F818340DF1170200213720FFF738FC5D
:1009D8004FF080410DF117022920FFF731FC9DF8F7
:1009E80017100029EED10DF117023A20FFF728FC65
:1009F800FFF70FFC1C4B80F04000C0F38010187309
:100A0800FFF707FC8DF81700FFF703FC8DF81700B8
:100A1800FFF7FFFB0DF117028DF817004FF4007177
:100A28001020FFF70DFC4FF090434FF48072C3F88D
:100A3800182425E7C5F81834AEE7012385F83830BF
:100A4800FFF748FCFFF746FCFFF744FCFFF742FCC2
:100A5800FFF740FC0134042C08F8010BF8D1069C80
:100A680058E700BF00E400E010000020003001401B
:100A78000010004811B1002B00F0F9804FF0E0237E
:100A88004FF00052C3F88021002384F84830FFF764
:100A98004AFCB4F84A3013B12033A4F84A30B4F809
:100AA8004AA05046FFF75CFC237EE52B18D0002BAC
:100AB800F3D0A3F14202122A17D994F8201057292B
:100AC8000BD194F82120412A07D194F82230562BD3
:100AD80003D194F82300202817D0B4F84A30DBE774
:100AE8000AF1200AA4F84AA0D9E794F8232002F0D2
:100AF8000F020F2AE1D1403BDBB20AEB431080B270
:100B0800A4F84A00FFF72CFCD7E7207E8DF81800E0
:100B1800607E8DF81900A07E8DF81A00E07E8DF8B1
:100B28001B00207F8DF81C00607F8DF81D00A07FC2
:100B38008DF81E00E07F8DF81F002E208DF8200014
:100B48008DF823300A2000238DF821108DF82220FB
:100B58008DF82430FFF714FB0DF1180A1AF8010B71
:100B6800002840F0AA8094F8383033B194F82D303A
:100B780094F82C001B0603EB004394F836A094F875
:100B8800352094F8321094F83300B4F840C04FEA96
:100B98000A4A0AEB022A94F83420023901EB0021B0
:100BA8009244A08F94F837200AEB026A421E02EBA7
:100BB8004C12B2FBF0F26069C4F84CA0104494F8EF
:100BC8003E200B4402FB0300AAF5484A2065FFF7C4
:100BD80064FB4FEA5A2316206364FFF79BFBFFF779
:100BE80079FBDFF838A18AF80000FFF773FBFFF7FD
:100BF80071FB0390FFF76EFB0290FFF76BFB019010
:100C0800FFF768FB019B0299039A1B0403EB012180
:100C1800114401EB00620620CAF804200192FFF794
:100C280079FBFFF757FB8AF808000920FFF772FBEA
:100C38004FF080430021C3F82014019A3648B0FBD6
:100C4800F2F2C3F82C2441F21112C3F82024022333
:100C580084F854304FF4EA73CAF80C304FF0E023AC
:100C68004FF00052C3F80021012384F84830B844FB
:100C78004FFA88F8B8F17D0F22DDCBF100077FB27B
:100C88004FF0904294F8483012690099D243002BF3
:100C980002F001020CBF4FF0030B4FF0010B914221
:100CA80013D09AB10B3DADB2762D8CBF002501252E
:100CB8002BB32B46002500923DE6FFF761FA4DE77E
:100CC800B8F1000F08BF5F46DAE70AB901352DB25F
:100CD800782D03DD23B1B9F1000F04D00023EAE732
:100CE800B9F1000FE7D14FF0E0234FF00051C3F8FE
:100CF8008011002384F848304FF00109DBE7002D0C
:100D0800ECD04FF0E0214FF00050C1F80001012174
:100D180084F848109946CDE70090D00300000020E1
:100D2800024A936801339360704700BF10000020A7
:100D380070B54FF0804382B0D3F8104404210DEB16
:100D48000100FFF747FAE0076AD56848037A4FF0D1
:100D580090424FF48071102B9161654A74D093686A
:100D68009907FCD5FF21624B11739A68D207FCD50D
:100D7800C5681A7B6B1EC3600378022BD4B200F0DF
:100D8800868000232546194641EA0422594C43EA45
:100D9800052394F85410C5689BB28A408B404FF0E5
:100DA8008041160AD2B2C1F83864C1F840241A0A40
:100DB800DBB2C1F83424C1F83C34002D30D14C4B9F
:100DC8009A689507FCD5FF221A73494B9A68D10790
:100DD800FCD51B7B464B9A689207FCD5FF221A73F9
:100DE800434A9368DE07FCD5636C4FF40071C16019
:100DF800581E137B3E4B6064FF219A689507FCD50B
:100E080019739A68D207FCD51A7BFE2AF5D138B92E
:100E18004FF0E0234FF00052C3F8802184F84800D7
:100E28004FF090434FF080454FF0807204219A6153
:100E38000DEB0100D5F81044FFF7CCF924F00104BC
:100E4800C5F8104402B070BD93689E07FCD5FF2119
:100E5800274B11739A68D507FCD5197B244BC9B267
:100E68009C68A407FCD5FF221A73214B9C68E207F3
:100E7800FCD51A7BC568037882F08004022BA5F1A3
:100E88000202C26013D089B20B4625467CE7184B94
:100E98009A689207FCD5FF221A73154B9A68D607F1
:100EA800FCD51B7BAA1EC260DDB200236BE7104B8A
:100EB8009A689607FCD5FF221A730D4B9A68D207D9
:100EC800FCD51B7BDAB20A4B9E68B607FCD5FF2619
:100ED8001E73074B9E68F607FCD51B7B043DC56057
:100EE80089B283F0800593B24EE700BF000000206E
:100EF800003001401000002007B5064B0193019B0C
:100F08009847054B0093009B9847002003B05DF875
:100F180004FB00BFCD010008B5030008DFF82CD0A2
:100F2800002103E00A4B5B584350043109480A4B3F
:100F380042189A42F6D3094A02E0002342F8043BD9
:100F4800074B9A42F9D3FFF7D7FFFEE700A000202E
:100F5800C80F00080000002010000020100000202A
:100F680068000020FEE702440346934200D1704720
:080F780003F8011BF9E700007A
:100F800008000000090000000A0000000C0000003A
:100F90000D0000000E00000014000000160000000C
:100FA000180000001A0000001C0000001E000000D5
:100FB0000A0000000B0000000C0000000D00000003
:080FC0000E0000000F0000000C
:100FC8000200000044AC000008000000000200001D
:0400000508000F25BB
:00000001FF
