:020000040800F2
:1000000000200020C50F00080D1000080D1000088A
:1000100000000000000000000000000000000000E0
:100020000000000000000000000000000D100008AB
:1000300000000000000000000D100008810C000806
:100040000D1000080D1000080D1000080D1000081C
:100050000D1000080D1000080D1000080D1000080C
:100060000D1000080D1000080D1000080D100008FC
:100070000D1000080D1000080D1000080D100008EC
:10008000910C00080D100008000000000D10000881
:100090000D1000080D1000080D1000080D100008CC
:1000A0000D1000080D1000080D1000080D100008BC
:1000B0000D100008000000000D10000800000000F6
:1000C00010B504000A2802D10D20FFF7F9FF084BF4
:1000D0001A68002A05D0511C1960147010BC01BCAC
:1000E00000475B68002BF9D0200000F0C7FEF5E761
:1000F00010000020034A93681B1891688B42FCDCB7
:100100007047C04610000020014B024A5A607047F9
:10011000100000207701000810B50A00002100F04F
:1001200077FF10BC01BC0047F7B5050002260A4C5A
:10013000A768042101A8FFF7EFFF3742F7D0257326
:100140000125A668042101A8FFF7E6FF2E42F8D09A
:10015000207BFEBC02BC08470030014010B5FFF711
:10016000E3FF10BC01BC004710B5FF20FFF7DCFF28
:1001700010BC02BC084773B504008025064B1E68FE
:10018000042101A8FFF7C8FF2E42F7D0034B1C70D3
:1001900073BC01BC0047C0461C44004028440040DA
:1001A000F8B504000D0016009527002803D06A3723
:1001B000082800D1783FFF20FFF7D0FF2000403013
:1001C0000006000EFFF7CAFF280EFFF7C7FF280C36
:1001D0000006000EFFF7C2FF280A0006000EFFF718
:1001E000BDFF2806000EFFF7B9FF3800FFF7B6FF86
:1001F0000A24FFF7B9FF3070000602D5013C002C3D
:10020000F7D1F8BC01BC004713B56B46DA1D0023DB
:10021000010040201370084B084C9862237B012B8F
:1002200000D149021220FFF7BBFF0023E3812382A4
:1002300013BC01BC0047C046000400481000002069
:1002400070B5104DEC89002C03D1FFF78DFFFE280F
:10025000FBD1FFF789FF8022013424040600240C1F
:100260009200944204D0EC81300070BC02BC08477C
:100270000023EB812B8A01332B82FFF775FFFFF7F9
:1002800073FFF1E71000002070B505000024013471
:100290002404FFF7D5FF240CA542F8D170BC01BCA3
:1002A000004773B56B46DE1D00230425084C3370F0
:1002B0004033A362320000210C20013DFFF770FFA4
:1002C000002DF7D14023A361A36173BC01BC00479B
:1002D00000040048F8B5114D07006869FFF794FF66
:1002E00000240026FFF7ACFF2B0018339855013689
:1002F000202EF7D1A74204D1FFF7D3FFF8BC01BCF1
:1003000000472B00383320341B782404240C002BA6
:10031000E7D16B8FA342E4D8EEE7C046100000207F
:10032000F0B50125F74C95B026680CAF04213800D4
:100330002E43FFF7F1FE2660266804213800FFF700
:10034000EBFE2E42F8D0F04C2668042135433800ED
:10035000FFF7E2FE25600225266804213800FFF73A
:10036000DBFE2E42F8D0E94D082138002E68FFF759
:10037000D3FEA0239B0333432B600421380026685F
:10038000FFF7CAFE80235B04334380262360B60454
:100390002368042138000193FFF7BEFE019B33421E
:1003A000F6D0042138002C68FFF7B6FE0223234361
:1003B00008242B602E6804213800FFF7ADFE26428A
:1003C000F8D0D34E042138003468FFF7A5FE80230F
:1003D0009B021C43346090240421E4053800256806
:1003E000FFF79AFE80235B021D432560042138003D
:1003F0003568FFF791FE80239B021D43356008217D
:1004000038002568FFF788FE03239D43256080257B
:10041000042138003668ED02FFF77EFEBC4B2E4308
:100420001E60BC4A042138001668FFF775FE802163
:10043000B84A49010E43B64B16601E683543B44EA8
:1004400004213800FFF768FE3560B24A0421380005
:100450001568FFF761FE8023C021AE4A5B031D4390
:100460001560AD4BAD4A1A60AD4A13681B02090610
:100470001B0A0B4313600022AA4B1A60AA4B0732D7
:100480001A60AA4A042138001568FFF745FE802348
:10049000A64A9B021D431560042138003568FFF70A
:1004A0003BFE80239B021D433560082138002568F0
:1004B000FFF732FEA0231D4325609D4D0821380023
:1004C0002E68FFF729FE88235B011E43D0232E6090
:1004D000984D5B00EB600C2138002E68FFF71CFE86
:1004E0000D231E432E60944D042138002E68FFF723
:1004F00013FE802149010E432E60854E04213800F1
:100500003568FFF709FE80239B021D4335600C21EF
:1005100038002568FFF700FEA8231B021D43256055
:10052000864C182138002568FFF7F6FD3A00844B09
:1005300043CB43C243CB43C200231A0077490991FE
:1005400008260AA8910080194158012088400132EC
:100550000343062AF4D12B4323607A4C08210CA8CC
:100560002568FFF7D9FDC0235B011D432560764C4C
:1005700004210CA82568FFF7CFFD04231D43256047
:1005800019000CA82568FFF7C7FD08231D43256047
:1005900019000CA82568FFF7BFFDC0239B001D4371
:1005A000256004210CA86568FFF7B6FD80235B0178
:1005B0001D43656004210CA82568FFF7ADFD4023AD
:1005C0001D435A4E256004210CA83568FFF7A4FD91
:1005D00002231D4335605D4D08210CA82E68FFF7EE
:1005E0009BFD81231E432E60594E04210CA83568C3
:1005F000FFF792FD01230022FF211D43554B35607B
:100600001A60554A1368424F8B431360FB390CA89C
:100610003D68FFF781FD8023DB021D433D4E3D60B9
:1006200008210CA83568FFF777FDA0231B011D43A7
:1006300035604A4D08210CA82E68FFF76DFD882310
:100640005B031E432E6004210CA83D68FFF764FD88
:1006500080231B031D433D60414D08210CA82E68DB
:10066000FFF75AFDA02300221B031E4388233D49A8
:100670002E600A603C4ADB0013603C4B3C4A13602E
:100680003C4A13603C4A3D4E0A600CA80421356880
:10069000FFF742FD01231D4335600AABDD1D00233A
:1006A00040272B70266804210CA83E43FFF734FD39
:1006B000266008210CA82668FFF72EFD30231E4374
:1006C000266004210CA82668FFF726FD08239E4318
:1006D000104B26601E0002209F62FFF70BFDB761E2
:1006E0000A26FF20013EFFF739FD002EF9D16436BE
:1006F0002F78002F00D1D8E04022D521054B0820CB
:100700009A623DE0002002400010024004100240C6
:10071000141002400004004814E000E07FBB000019
:1007200020ED00E018E000E010E000E01C100240C6
:100730002000004800440040181002400800004813
:10074000281000080C000048003001400004004060
:100750000C0400402804004010E400E0200400489D
:1007600000080048200400402C0400406868000095
:10077000180400401C040040111100001404004043
:1007800049002A00FFF70CFD04222B78134200D108
:10079000A5E00122A84B1A73A84B3F329A629A61D6
:1007A00004210CA82568FFF7B7FC08210D4325603C
:1007B0000CA82568FFF7B0FC30239D43002025607E
:1007C000FFF722FDE3204000FFF75EFD0024FFF766
:1007D00037FD08220AAB9B1818550134042CF6D1BA
:1007E0000C9CFFF75EFD2000FFF70EFD0024FFF7D5
:1007F00027FD08220AAB9B1818550134202CF6D18E
:1008000013220AABD218537811788B4E1B020B437C
:10081000B38733000AAA527D3E331A700AABDB8AD3
:1008200001930AAB1B7E029319230AAA9B185D78D9
:100830001A782D02B31C1543DD870AABDC8B139F9E
:10084000002C00D18BE0029B63431C00019BDF194D
:10085000E7196D0177617587FFF723FD01230122F9
:100860000693049300230792039302930593019345
:100870008024714A9168506C0931E4009568A9425E
:1008800000DA86E0002800D188E0029D039EB54290
:100890007CDC6A4DAC62039D01352D062D16039557
:1008A0007D2DEBD100250395E8E70220FFF722FC20
:1008B0004022624B02209A62FFF71CFC2A0039009A
:1008C0003800FFF76DFC40225C4B013E9A61002E20
:1008D00000D00DE7FA208000FFF70CFCDDE60426CF
:1008E000FFF742FC013E2870002EF9D14022534B05
:1008F0009A61AA282FD140228026504B9A62F60591
:100900002A0000213720FFF74BFC31002A00292064
:10091000FFF746FC29780029F2D12A003A20FFF798
:100920003FFCFFF721FC0123434A800983431373F3
:10093000FFF71AFC2870FFF717FC2870FFF714FC6C
:1009400080212A00287089001020FFF729FC40230D
:100950003A4A936124E74022384B9A61BAE7330060
:10096000012238331A70FFF76BFCFFF769FCFFF7C1
:1009700067FCFFF765FCFFF763FC08220AAB9B18D6
:1009800018550134042CF6D10C9C5CE72B4DAC615E
:1009900081E7002802D0002B00D1F8E08022264C0D
:1009A000274B52021A602300002248334A341A703F
:1009B000FFF777FC2388002B01D0203323800F27FB
:1009C0001D4D2E004A3634882000FFF783FC2B7E15
:1009D000E52B03D0002B04D13380F1E720343480A1
:1009E000EEE71A00423A122A16D9134B5A1CD07F4E
:1009F00057280BD19A1CD17F412907D1DA1CD27F0D
:100A0000562A03D11C1DE47F202C1BD00A4B4A33ED
:100A10001A8820321A80D3E70435EA7F3A400F2A39
:100A2000E3D1403B1B061B0E5B01E3181804000CCE
:100A30003080FFF74FFCD8E710000020000400488A
:100A400080E100E01D7E0CAC25705D7E65709D7EB2
:100A5000A570DD7EE5701D7F25715D7F65719D7FD1
:100A6000A571DB7FE3712E232372002360720A20BD
:100A7000A172E2722373FFF723FB2078002800D0D5
:100A8000B5E0754B1A00383212780600002A07D0FC
:100A90001A002D332C3216781B7836041B06F618F4
:100AA0006D4C230033331878230032331F78230032
:100AB00035331D78230036331B782D021B04ED18C7
:100AC000230034331B78ED18230037331B781B06C3
:100AD000ED180002A31C023FA18FC719D88F4B1E2F
:100AE0004001E564C01800F0CBF96369C018230029
:100AF0003E33F6191F787E4380192065FFF784FB8B
:100B0000564BED1816206D0A6564FFF7BDFBFFF725
:100B100097FB534E3070FFF793FBFFF791FB089064
:100B2000FFF78EFB0500FFF78BFB0700FFF788FB45
:100B30003F04089B2D02ED19ED1800062D18062024
:100B40007560FFF7A1FBFFF77BFB002730720920E0
:100B5000FFF79AFB434B29001F60434800F090F9D0
:100B6000424A404B1060424A1A60099B72689342A5
:100B70007F412300013754331F70EA2380225B003A
:100B8000F3603C4B52021A60012348342370069AEA
:100B90009446029B63441B061B1602937D2B28DDA3
:100BA000049B5B4206932C4A1300032148331B78B5
:100BB0000491002B01D00239049101202E490968CB
:100BC000884301000798884218D0002918D00020D7
:100BD00076240500019A0B3A1204120C9442454106
:100BE0002A00834233D013000190079140E601347C
:100BF00041E7029B002BD6D1049BD3E7002904D107
:100C0000019801300004001401900198782821DD3A
:100C1000002B0FD00023059898420ED0E5E78020E6
:100C2000144A4002106001200B4A483210700593AC
:100C30000193DAE705980028D7D180200F4B4002B6
:100C4000186000234832137001220592CDE7002D71
:100C5000E5D101930023C8E7100000200038FFFF12
:100C60000000002020040040006CDC022C04004046
:100C70001111000000E100E01000004880E100E0F8
:100C8000024A9368013393607047C0461000002009
:100C9000F0B5714B83B01C68042101A8FFF73CFA42
:100CA000E30773D590238022DB0552006B499A61DC
:100CB0000B7A0220102B00D17AE0694B9A6810421F
:100CC000FCD0FF2201201A73654B9A681042FCD0B9
:100CD000CD68187B0B786A1E0400CA60022B00D115
:100CE0008AE000230022000202435420240223430E
:100CF0005C4C205C1B0482401B0C8340FF205A4D3F
:100D0000AC465A4F160ACD683E60594E02403260DA
:100D1000584A18401B0A136063461860002D35D1ED
:100D200002204F4B9A681042FCD0FF2201201A7318
:100D30004B4B9A681042FCD002201B7B484B9A68B0
:100D40001042FCD0FF2201201A73454B9A681042D2
:100D5000FCD01B7B80239B00CB60FF250221012060
:100D6000666C013E3E4B66649A681142FCD01D736E
:100D70009A681042FCD01A7BFE2AF5D1002E05D1CC
:100D800080233D4A5B0213604823E654902380226F
:100D9000DB0552009A62304D042101A82C68FFF750
:100DA000BBF901239C432C6003B0F0BC01BC00479D
:100DB0002B4B9A681042FCD0FF2201201A73284B5B
:100DC0009A681042FCD002241A7B254B9868044292
:100DD000FCD0FF2001241873214B98680442FCD0FA
:100DE000187B8023CD6858400B78AC1ECC60022B5A
:100DF00012D00400130076E70224194B9A681442BB
:100E0000FCD0FF2201241A73154B9A681442FCD0BF
:100E1000023D1C7BCD6064E70226114B9C68264294
:100E2000FCD0FF2401261C730D4B9C682642FCD08D
:100E300002271B7B0A4CA6683742FCD0FF260127FD
:100E40002673074CA6683742FCD0043D247BCD6056
:100E500080256C4047E7C046100400400000002099
:100E600000300140100000203C04004038040040E5
:100E7000400400403404004080E100E01847C046D0
:100E8000012051E21EFF2F013600003A010050E11F
:100E90002200009A020011E12300000A0E0211E371
:100EA0008111A0010830A0030130A013010251E319
:100EB000000051310112A0310332A031FAFFFF3A94
:100EC000020151E3000051318110A0318330A03183
:100ED000FAFFFF3A0020A0E3010050E101004020AA
:100EE00003208221A10050E1A1004020A320822103
:100EF000210150E12101402023218221A10150E163
:100F0000A1014020A3218221000050E32332B0112F
:100F10002112A011EFFFFF1A0200A0E11EFF2FE136
:100F20000100A0030000A0131EFF2FE1010851E300
:100F30002118A0211020A0230020A033010C51E390
:100F40002114A02108208222100051E32112A021A7
:100F500004208222040051E303208282A120829097
:100F60003002A0E11EFF2FE1000050E30000E0137B
:100F7000070000EA000051E3FAFFFF0A03402DE9F1
:100F8000BEFFFFEB0640BDE8920003E0031041E026
:100F90001EFF2FE11EFF2FE107B5074B0193019BB9
:100FA00000F00EF8054B0093009B00F009F80020BC
:100FB00003B002BC0847C04609010008210300082D
:100FC0001847C0460B4885460B480C490C4A00237D
:100FD00002E0D458C4500433C4188C42F9D3094AEF
:100FE000094C002301E013600432A242FBD3FFF757
:100FF000D3FFFEE7002000200000002010000020AA
:10100000401000081000002068000020FEE70000EB
:101010000030A0E1022080E0020053E11EFF2F011A
:081020000110C3E4FBFFFFEA2D
:101028000A0000000B0000000C0000000D0000008A
:081038000E0000000F00000093
:101040000200000044AC00000800000000020000A4
:0400000508000FC51B
:00000001FF
